:100000000C9434000C9409170C94091718950000EF
:10001000189500001895000018950000189500002C
:10002000189500001895000018950000189500001C
:10003000189500001895000018950000189500000C
:1000400018950000189500000C94720C189500008B
:1000500018950000189500001895000018950000EC
:1000600018950000189500008FEF8DBFC8E3E0ECF5
:100070004E2E88E08EBFD8E0F6E05F2EA89584B7BC
:10008000082E877F84BF88E1992780936000909332
:100090006000EEEFF7E0A0E0B1E088278D933197A4
:1000A000E9F788E08093C40080E08093C50088E190
:1000B0008093C1006624209A219A229A239A249A36
:1000C0002598389A399A3A9A3B9A52985398559A61
:1000D000569A579A0E94DA198CE00E94281AEAEF81
:1000E000F0E088E40E94281A58E0C895802D0E940C
:1000F000221A31965A95C9F704C020200420042002
:100100002020EEE1F1E080E50E94281A58E0C89531
:10011000802D0E94221A31965A95C9F704C0201BDF
:100120001B1B1B1B2020E2E4F1E088E50E94281A3B
:1001300058E0C895802D0E94221A31965A95C9F729
:1001400004C0201F1B111B1F202087E880937A000A
:1001500080E480937C0086E08093060143981D9A9A
:100160000E94AF1D82E390E00E94AC1A5098519A11
:1001700082E390E00E94AC1A70910901706870935C
:100180000901E4E6F0E0AAE0B1E091E00E948E1DF2
:100190000E94FB07E89AE99A809169008C7F816050
:1001A0008093690080916900837F846080936900F7
:1001B0007091C10070687093C100789470917A005A
:1001C000706870937A00E0E4F0E0ADE0B1E091E0B7
:1001D0000E948E1DECE3F0E0AEE0B1E092E00E9400
:1001E0008E1D8AE090E00E94AC1A00917C00007F96
:1001F000066000937C000E94E41AA0E0B1E08D93B9
:100200009C93A0E0B1E00D911C91023D50E01507D8
:1002100081E008F480E08F93A0E0B1E00D911C91A3
:10022000023251E0150781E010F009F080E09F9163
:100230008923882311F40C9423018AE090E00E9422
:10024000AC1A0E94700800917C00007F0660009349
:100250007C000E94E41AA0E0B1E08D939C93A0E0A2
:10026000B1E00D911C91023350E0150718F011F028
:100270000C943E010E94C10F0E940B18E0E4F0E0D4
:10028000ADE0B1E091E00E948E1D00910D010A30B9
:1002900018F011F00C944E010C9450010E940B18B0
:1002A0000E94570408E316E52CE435E0A8E1B1E02C
:1002B0000D931D932D933C930E94200286E090E0C5
:1002C000A4E0B1E08D939C9381E1809306010E94AC
:1002D0004312E998E8E6F0E0A4E4B1E091E00E947E
:1002E0008E1DE0E4F0E0ADE0B1E091E00E948E1DF3
:1002F000ECE3F0E0A5E4B1E092E00E948E1DE8E4BA
:10030000F0E0A2E8B1E094E00E948E1DE4E4F0E0A9
:10031000ABE0B1E091E00E948E1D8FEB15E00E94F2
:10032000CE19EAEDFBE30E94B8198FE71AE00E94AC
:10033000CE19ECEDFBE30E94B8198FE71EE00E9496
:10034000CE19ECEDFBE30E94B819E99A0E94F2166F
:10035000A9E0B1E08C9187FB16F00C94B1010E94EA
:100360006C03A3E2B0E00C9105FB81E00EF480E0A9
:100370008F93A9E0B1E08C9186FB81E00EF080E0E4
:100380009F91892B882311F40C94CC0185E090E097
:100390000E94AC1A0E94B90300917C00007F0660A5
:1003A00000937C000E94E41AA0E0B1E08D939C933E
:1003B000A0E0B1E00D911C91083552E0150718F04E
:1003C00011F00C940E0285E090E00E94AC1A0091AE
:1003D0003701003011F00C94F1010E94B8120C9416
:1003E000F3010E94321000917C00007F06600093B0
:1003F0007C000E94E41AA0E0B1E08D939C93A0E001
:10040000B1E00D911C91043853E0150718F011F07C
:100410000C940C020C94F3010E94C10FA9E0B1E00E
:100420008C9185FB16F00C941C020E94300E70918A
:1004300009017F7D709309010E9495110C94A80118
:1004400000E412E42FE030E0ACE2B1E00D931D9344
:100450002D933C93A8E1B1E00D911D912D913C911C
:100460004AE050E060E070E00E94531AA0E2B1E080
:100470004D935D936D937D9381E080932B0100916B
:100480002B01073018F011F00C949302A0E2B1E0B8
:100490000D911D912D913C91ACE2B1E04D915D919A
:1004A0006D917C910E94531AACE1B1E04D935D9344
:1004B0006D937D9380911C01ABE2B1E0AD90BB24C4
:1004C000A3E2B1E0AA0DBB1D8C93A0E2B1E00D91B7
:1004D0001D912D913C91ACE2B1E04D915D916D91FA
:1004E0007C910E944C1AA0E2B1E00D931D932D93D4
:1004F0003D93ACE2B1E00D911D912D913C914AE00C
:1005000050E060E070E00E94531AACE2B1E04D931D
:100510005D936D937D93ABE2B1E08C918F5F8C9393
:1005200010F40C943F0240E856E968E970E0A8E155
:10053000B1E00D911D912D913C910E94C81C0CF4CD
:1005400002C00C94A60280E0809324018091C10037
:100550008F738093C10040912401009130010417F2
:1005600011F40C94D60200912401003011F00C9487
:10057000C6028FE718E00E94CE19EEEDFBE30E9461
:10058000B81980E0809330010C94D6028FE718E010
:100590000E94CE19A8EAB6E0E4E2F1E00E94EA1C6B
:1005A0000E94B0198091240180933001409125016F
:1005B00000913101041711F40C94EE028FE719E059
:1005C0000E94CE19A8EAB6E0E5E2F1E00E94EA1C3A
:1005D0000E94B0198091250180933101409126013C
:1005E00000913201041711F40C9406038FE71BE00D
:1005F0000E94CE19A8EAB6E0E6E2F1E00E94EA1C09
:100600000E94B01980912601809332014091270108
:1006100000913301041711F40C941E038FE71CE0C2
:100620000E94CE19A8EAB6E0E7E2F1E00E94EA1CD7
:100630000E94B019809127018093330140912801D5
:1006400000913401041711F40C9436038FE71DE078
:100650000E94CE19A8EAB6E0E8E2F1E00E94EA1CA6
:100660000E94B019809128018093340140912901A2
:1006700000913501041711F40C944E038FE71FE02D
:100680000E94CE19A8EAB6E0E9E2F1E00E94EA1C75
:100690000E94B019809129018093350140912A016F
:1006A00000913601041711F40C9466038FE710E1F2
:1006B0000E94CE19A8EAB6E0EAE2F1E00E94EA1C44
:1006C0000E94B01980912A01809336018091C10067
:1006D000806C8093C1000895A4E1B1E04D915D91DB
:1006E0006D917C91A8E1B1E00D911D912D913C910E
:1006F000041715072607370718F011F00C9482032A
:100700000C948E03A0E1B1E00D911D912D913C91CF
:10071000A8E1B1E00D931D932D933C93A0E1B1E0CE
:100720004D915D916D917C91A8E1B1E00D911D918C
:100730002D913C91041715072607370710F00C94EC
:10074000AD03A4E1B1E00D911D912D913C91A8E183
:10075000B1E00D931D932D933C93709109017F7728
:10076000709309010E946E040E948E060E9420026E
:100770000895E998E898A8E1B1E00D911D912D91B7
:100780003C91ACE3B1E00D931D932D933C9300910C
:100790000C01023011F00C94CE035D98439A009145
:1007A0003701013011F00C94E703A8E3B1E00D919B
:1007B0001D912D913C91A8E1B1E00D931D932D93D6
:1007C0003C930E946E040E948E060E9420028FEBD2
:1007D00015E00E94CE19E0EEFBE30E94B8198FE706
:1007E00011E00E94CE19E2EEFBE30E94B8191D99B8
:1007F0000C940B04709109017064709309010E94BC
:1008000095111D9B0C94FF03709109017F7B7093E0
:1008100009010C9414040E949511A9E0B1E08C9197
:1008200086FB16F40C940B04709109017F7B709386
:10083000090100913701013011F00C943A04ACE346
:10084000B1E00D911D912D913C91A8E1B1E00D9386
:100850001D932D933C938FE711E00E94CE19E6EE95
:10086000FBE30E94B8197091090170687093090147
:100870000C9442048FE711E00E94CE19EAEEFBE3EC
:100880000E94B81900910C01023011F00C94490437
:100890005D9A73E07CBB43988FEB15E00E94CE1904
:1008A000EAEDFBE30E94B819E99AE89A08958FE708
:1008B00012E00E94CE19EEEEFBE30E94B8198FEB16
:1008C00011E00E94CE19EEEFFBE30E94B819E1E0BF
:1008D000F0E00E94D1190E94BF190895A8E1B1E08B
:1008E0000D911D912D913C91A2E5B1E00D931D93C9
:1008F0002D933C9300914401013011F00C94940429
:10090000A2E5B1E00D911D912D913C91A0E4B1E0E3
:100910004D915D916D917C910E94BE1CA2E5B1E06C
:100920000D931D932D933D9300914401023011F0DE
:100930000C94CD0400910B01033018F011F00C94CD
:10094000A3040C94B904A2E5B1E00D911D912D9181
:100950003C91A0E4B1E04D915D916D917C910E943C
:10096000C31CA2E5B1E00D931D932D933D930C9410
:10097000CD04A2E5B1E00D911D912D913C91A0E433
:10098000B1E04D915D916D917C910E94BE1CA2E5FC
:10099000B1E00D931D932D933D930E94DF040895C4
:1009A000A0E4B1E00D911D912D913C91A2E5B1E043
:1009B0000D931D932D933C930E94DF04089500E056
:1009C0001AEC2AE93BE3A2E5B1E04D915D916D910E
:1009D0007C910E94531AAAE5B1E04D935D936D930B
:1009E0007D93AAE5B1E00D911D912D913C9142E0DE
:1009F00050E060E070E00E944C1AA6E5B1E00D9373
:100A00001D932D933D9340E050E060E070E0A6E53B
:100A1000B1E00D911D912D913C910417150726070A
:100A2000370711F40C942605AAE5B1E00D911D914C
:100A30002D913C9141E050E060E070E00E94C31CC9
:100A4000AAE5B1E00D931D932D933D93AAE5B1E086
:100A50000D911D912D913C9141E050E060E070E0DE
:100A60000E94BB1AA6E5B1E00D931D932D933D9313
:100A7000A6E5B1E00D911D912D913C91A2E5B1E06B
:100A80004D915D916D917C910E94BB1AA6E5B1E0FC
:100A90000D931D932D933D9380E080935F01A6E518
:100AA000B1E00D911D912D913C91A2E8B1E04D91E5
:100AB0005D916D917C910E94531AA0E6B1E04D9337
:100AC0005D936D937D93E2E8F1E00E94391B0E94F3
:100AD0005D1B0E948F1B2F933F934F935F93E0E624
:100AE000F1E00E94391B0E945D1B5F914F913F9185
:100AF0002F910E94001CEDE0F0E0A8E6B1E00E941A
:100B0000661DE8E6F1E00E943E1BE6E5F1E00E948A
:100B1000391B0E945D1B0E94321CEDE0F0E0A8E64C
:100B2000B1E00E94661DE2EDFBE30E949C1CE8E63A
:100B3000F1E00E94391B0E94001CEDE0F0E0A8E605
:100B4000B1E00E94661DE2E8F1E00E94391B0E94BC
:100B50005D1B0E948F1BE8E6F1E00E94391B0E949A
:100B6000AA1BEDE0F0E0A8E6B1E00E94661DE8E611
:100B7000F1E00E94FB1AA4E6B1E0EDE0FF270E943D
:100B8000661D00E810E020E030E0AAE5B1E04D91FC
:100B90005D916D917C910E94BB1AA0E7B1E00D932D
:100BA0001D932D933D93A0E7B1E00D911D912D91E3
:100BB0003C9140E052E060E070E00E94C31CA0E77E
:100BC000B1E00D931D932D933D93E4E6F1E00E9477
:100BD000391B0E945D1B0E948F1BE6EDFBE30E9408
:100BE000931C0E94001CEDE0F0E0A8E6B1E00E943A
:100BF000661DE2EDFBE30E949C1CE8E6F1E00E942A
:100C0000391B0E94AA1BEDE0F0E0A8E6B1E00E94CB
:100C1000661DE8E6F1E00E94FB1AACE6B1E0EDE00B
:100C2000FF270E94661D00E810E020E030E0A0E60B
:100C3000B1E04D915D916D917C910E94BB1AA4E74A
:100C4000B1E00D931D932D933D93A4E7B1E00D9179
:100C50001D912D913C91ACE6B1E04D915D916D916E
:100C60007C910E94BE1CA4E7B1E00D931D932D93CF
:100C70003D93A4E7B1E00D911D912D913C9140E091
:100C800052E060E070E00E94C31CA4E7B1E00D9365
:100C90001D932D933D93ACE6B1E00D911D912D91E7
:100CA0003C914FEF5FEF6FE070E00E94BB1AACE742
:100CB000B1E00D931D932D933D9300E810E020E0EB
:100CC00030E0A4E6B1E04D915D916D917C910E9480
:100CD000BB1AA8E7B1E00D931D932D933D93A8E7B0
:100CE000B1E00D911D912D913C91ACE7B1E04D919A
:100CF0005D916D917C910E94C31CA8E7B1E00D93BA
:100D00001D932D933D930FEF1FEF2FE030E0ACE7E5
:100D1000B1E00D931D932D933C93089580914E0166
:100D2000809380013FB6F894A0E8B1E0BA93AA930B
:100D3000ADE7B1E0BA93AA930E94D9072496A0E840
:100D4000B1E08C918F5F8C933FB6F894A0E8B1E04E
:100D5000BA93AA93ACE7B1E0BA93AA930E94D907D9
:100D60002496A0E8B1E08C918F5F8C933FB6F89405
:100D7000A0E8B1E0BA93AA93A6E7B1E0BA93AA9328
:100D80000E94D9072496A0E8B1E08C918F5F8C93E4
:100D90003FB6F894A0E8B1E0BA93AA93A5E7B1E012
:100DA000BA93AA930E94D9072496A0E8B1E08C9147
:100DB0008F5F8C933FB6F894A0E8B1E0BA93AA9302
:100DC000A4E7B1E0BA93AA930E94D9072496809130
:100DD0007E0180935101A1E5B1E08C9182958C93C5
:100DE0000091510140917A01042BA1E5B1E00C93EF
:100DF000A0E8B1E08C918F5F8C933FB6F894A0E8A7
:100E0000B1E0BA93AA93A1E5B1E0BA93AA930E9484
:100E1000D9072496A0E8B1E08C918F5F8C933FB600
:100E2000F894A0E8B1E0BA93AA93A9E7B1E0BA9325
:100E3000AA930E94D9072496A0E8B1E08C918F5F15
:100E40008C933FB6F894A0E8B1E0BA93AA93A8E7D0
:100E5000B1E0BA93AA930E94D907249680914F01DA
:100E60008093800180E0809381013FB6F894A0E8F0
:100E7000B1E0BA93AA93A1E8B1E0BA93AA930E9411
:100E8000D9072496A0E8B1E08C918F5F8C9381E024
:100E9000809381013FB6F894A0E8B1E0BA93AA9399
:100EA000A1E8B1E0BA93AA930E94D9072496809151
:100EB0005F01809351010091510140917201042B17
:100EC000A1E5B1E00C93A0E8B1E08C918F5F8C9329
:100ED0003FB6F894A0E8B1E0BA93AA93A1E5B1E0D7
:100EE000BA93AA930E94D9072496A0E8B1E08C9106
:100EF0008F5F8C933FB6F894A0E8B1E0BA93AA93C1
:100F0000A1E7B1E0BA93AA930E94D9072496A0E87A
:100F1000B1E08C918F5F8C933FB6F894A0E8B1E07C
:100F2000BA93AA93A0E7B1E0BA93AA930E94D90713
:100F30002496A0E8B1E08C918F5F8C9380E0809341
:100F400081013FB6F894A0E8B1E0BA93AA93A1E872
:100F5000B1E0BA93AA930E94D9072496A0E8B1E021
:100F60008C918F5F8C9380E0809381013FB6F894E1
:100F7000A0E8B1E0BA93AA93A1E8B1E0BA93AA932A
:100F80000E94D9072496A0E8B1E08C918F5F8C93E2
:100F900080E0809381013FB6F894A0E8B1E0BA9375
:100FA000AA93A1E8B1E0BA93AA930E94D907249624
:100FB00008953FBE0E94B41D10EC0E94CC1DEF931B
:100FC000EBE0EA95F1F7EF91AA81BB811C910E94B9
:100FD000CC1DEF93EBE0EA95F1F7EF91A881B98191
:100FE0001C910E94CC1DEF93EBE0EA95F1F7EF9195
:100FF0000E94C31D089587EB8093800180EC80934D
:1010000081013FB6F894A0E8B1E0BA93AA93A1E8B1
:10101000B1E0BA93AA930E94D907249683E0809303
:10102000800100910A01023011F00C941C088CEF31
:10103000809381010C941F088EEF809381013FB64D
:10104000F894A0E8B1E0BA93AA93A1E8B1E0BA930A
:10105000AA930E94D90724968FE08093800180E0B4
:10106000809381013FB6F894A0E8B1E0BA93AA93C7
:10107000A1E8B1E0BA93AA930E94D907249680E12F
:10108000809380018FE4809381013FB6F894A0E8BB
:10109000B1E0BA93AA93A1E8B1E0BA93AA930E94EF
:1010A000D907249600910A01023011F00C946B08C4
:1010B00081E1809380018FE6809381013FB6F894AF
:1010C000A0E8B1E0BA93AA93A1E8B1E0BA93AA93D9
:1010D0000E94D90724968AE090E00E94AC1A0895F5
:1010E0008091C1008F738093C100ECE4F0E0A8E12F
:1010F000B1E094E00E948E1D81E090E0AEE0B1E0AE
:101100008D939C9381E090E0A5E4B1E08D939C9356
:1011100085E080930D018CE480939E018FE711E0C0
:101120000E94CE19EEE0FCE30E94B8198FE714E0AC
:101130000E94CE1900919E010C3411F00C94A60867
:10114000E2E1FCE30E94B8190C94CC08003511F0E0
:101150000C94B008E6E1FCE30E94B8190C94CC08AA
:10116000043511F00C94BA08EAE1FCE30E94B819C6
:101170000C94CC08083511F00C94C408EEE1FCE3A3
:101180000E94B8190C94CC080C3511F00C94CC08C2
:10119000E2E2FCE30E94B8198FE718E00E94CE1942
:1011A000A8EAB6E0E8E1F1E00E94DE1C0E94B01976
:1011B000E6E2FCE30E94B81900917C00007F066023
:1011C00000937C000E94E41AA0E0B1E08D939C9310
:1011D000A0E0B1E00D911C91023350E0150710F032
:1011E0000C943709E998AEE9B1E0EC91FF27A8E14A
:1011F000B1E094E07BE70E947D1DAEE9B1E08C9107
:101200008C5F8C93AEE9B1E0EC91FF27A8E1B1E0EF
:1012100094E00E948E1DE99A8FEB16E00E94CE1991
:10122000EAE2FCE30E94B819E2E0F0E00E94D11982
:101230008FEB16E00E94CE19E2E3FCE30E94B8199E
:1012400000919E01003611F00C9437090E94730939
:101250000E94850A8AE090E0AEE0B1E08D939C9315
:101260008091C100806C8093C1000C947209A0E051
:10127000B1E00D911C910E3650E0150781E008F4A5
:1012800080E08F93A0E0B1E00D911C91093B50E00C
:10129000150781E010F009F080E09F9189238823F1
:1012A00011F40C947009ADE0B1E08C918F5F8C93D8
:1012B00000910D01063018F011F00C9461090C94A6
:1012C000640982E080930D010E94C10F0E94330FD8
:1012D0008FEB15E00E94CE19EAE3FCE30E94B819F7
:1012E0000C9496080895E8E4F0E0A2E8B1E094E0F8
:1012F0000E948E1D81E090E0AEE0B1E08D939C9362
:1013000000E010E020E030E0A0E4B1E00D931D9398
:101310002D933C930E94BF1982E080930A010E94A2
:10132000FB078FEB11E00E94CE19E8E4FCE30E947A
:10133000B819EEE4FCE30E94B819E8E5FCE30E946A
:10134000B819A2E8B1E00D911D912D913C91A8E151
:10135000B1E00D931D932D933C938AE180934E0150
:101360008AE280934F018CE280935001A9E0B1E0C2
:101370008C9187FB16F00C94F8098FE711E00E941E
:10138000CE19ECE5FCE30E94B819A8EAB6E0E8E162
:10139000F1E00E94DE1C0E94B019A8E1B1E00D91BD
:1013A0001D912D913C91A2E8B1E00D931D932D93D9
:1013B0003C9300E418E72DE731E0A8E1B1E00D939C
:1013C0001D932D933C930E946E040E948E06A2E80A
:1013D000B1E00D911D912D913C91A8E1B1E00D93EB
:1013E0001D932D933C93709109017F7770930901B0
:1013F00000917C00007F066000937C000E94E41A4C
:10140000A0E0B1E08D939C93A0E0B1E00D911C9120
:101410000E3650E0150781E008F480E08F93A0E0DD
:10142000B1E00D911C91093B50E0150781E010F0EF
:1014300009F080E09F918923882311F40C94450AD8
:10144000ADE0B1E08C918F5F8C9300910D0106307F
:1014500018F011F00C942E0A0C94310A82E080935B
:101460000D010E94C10F8FEB11E00E94CE19E4E63E
:10147000FCE30E94B8190E94330F8FEB11E00E9429
:10148000CE19E8E6FCE30E94B819A0E0B1E00D91A6
:101490001C910C3751E0150781E008F480E08F9330
:1014A000A0E0B1E00D911C910C3C51E0150781E0EA
:1014B00010F009F080E09F918923882311F40C94A7
:1014C000820A84E190E00E94AC1AE998E8E4F0E036
:1014D000A2E8B1E094E07BE70E947D1DE99A8FEBE2
:1014E00011E00E94CE19EAE7FCE30E94B819E2E09D
:1014F000F0E00E94D1190E94BF1981E080930D0194
:101500000C94840A0C94B60908958FE711E00E94A8
:10151000CE19ECE8FCE30E94B8198FEB11E00E94B1
:10152000CE19E8E9FCE30E94B8198FEB1AE00E949B
:10153000CE19EEE0FCE30E94B819E4E6F0E0AAE080
:10154000B1E091E00E948E1DE8E6F0E0A4E4B1E095
:1015500091E00E948E1D8FE71CE00E94CE19A8EA40
:10156000B6E0EAE0F1E00E94EA1C0E94B0198FEBBD
:1015700019E00E94CE19AAE9B1E00E94B2190091C7
:101580004401013011F00C94CD0AAAE9B1E0EEED6E
:10159000FBE30E94DE1A0C94D30AAAE9B1E0E2EA66
:1015A000FCE30E94DE1A00917C00007F066000933D
:1015B0007C000E94E41AA0E0B1E08D939C93A0E02F
:1015C000B1E00D911C910C3751E0150781E008F452
:1015D00080E08F93A0E0B1E00D911C910C3C51E0B4
:1015E000150781E010F009F080E09F91892388239E
:1015F00011F40C941C0BAAE0B1E08C918F5F8C93DA
:1016000000910A01023018F011F00C94090B0C94AF
:101610000C0B81E080930A018FE71CE00E94CE1939
:10162000A8EAB6E0EAE0F1E00E94EA1C0E94B019E4
:101630000E94C10F0E94C10FA0E0B1E00D911C916A
:101640000D3C51E0150781E008F480E08F93A0E0A5
:10165000B1E00D911C910A3352E0150781E010F0C2
:1016600009F080E09F918923882311F40C944D0B9D
:10167000A4E4B1E08C918F5F8C930091440102301F
:1016800018F011F00C94460B0C94490B81E08093F8
:1016900044010E94C10F0E94C10FA0E0B1E00D9172
:1016A0001C91023D50E0150781E008F480E08F9323
:1016B000A0E0B1E00D911C91023251E0150781E0EC
:1016C00010F009F080E09F918923882311F40C9495
:1016D0008B0BE4E6F0E0AAE0B1E091E07BE70E944A
:1016E0007D1DE8E6F0E0A4E4B1E091E07BE70E9434
:1016F0007D1D8FEB11E00E94CE19E4EAFCE30E940D
:10170000B8190E94FB07E2E0F0E00E94D1190E94A4
:10171000BF190C948D0B0C94AB0A089500919C0199
:101720000D3011F00C94980B0E94C90C0C94520CC3
:10173000A8E8B1E0E4EBFCE30E949B1D11F00C94DF
:10174000AB0BE8EBFCE30E94A219EEEBFCE30E947A
:10175000A2190C94520CEEE0FCE30E949B1D11F0C8
:101760000C94B60B0E946C0D0C94520CE2ECFCE352
:101770000E949B1D11F00C94C10B0E94300D0C9423
:10178000520CE6ECFCE30E949B1D11F00C94CC0B78
:101790000E94670D0C94520CEAECFCE30E949B1D26
:1017A00011F00C94D90BEEECFCE30E94A2190C94FE
:1017B000520CE4EDFCE30E949B1D11F00C94EA0B2B
:1017C00081E080939E01709109017062709309011C
:1017D0000C94520CE8EDFCE30E949B1D11F00C945C
:1017E000FB0B82E080939E017091090170627093FF
:1017F00009010C94520CECEDFCE30E949B1D11F0CE
:101800000C940C0C84E080939E017091090170622D
:10181000709309010C94520CE0EEFCE30E949B1DB6
:1018200011F00C941D0C85E080939E0170910901CC
:101830007062709309010C94520CE4EEFCE30E9478
:101840009B1D11F00C942E0C83E080939E017091EF
:1018500009017062709309010C94520CE8EEFCE3EC
:101860000E949B1D11F00C943C0C70910901706456
:10187000709309010C94520CECEEFCE30E949B1D4A
:1018800011F00C944A0C709109017F7B709309014F
:101890000C94520CA8E8B1E00E949C19EEEBFCE31A
:1018A0000E94A219A8E8B1E088278C930E948719AA
:1018B000082F013011F00C945F0C0E94630C80E043
:1018C00080939C0108950E948D19A8E8B1E08D9342
:1018D00088278C93A8E8B1E08C91803011F00C94AB
:1018E000630C08950F921F922F923F924F925F9236
:1018F0007F92AF92BF920F931F932F933F934F937B
:101900005F936F937F938F939F93AF93BF93CF9387
:10191000DF93EF93FF938FB78F930E948D19A7E802
:10192000B1E08C938BE3482F00918701041711F4E9
:101930000C94AB0CA7E8B1E08C91A8E8B1E00E9450
:1019400080198D9388278C93ACE9B1E08C918F5FDF
:101950008C930C94AD0C0E948E0B8F918FBFFF91D6
:10196000EF91DF91CF91BF91AF919F918F917F9137
:101970006F915F914F913F912F911F910F91BF9068
:10198000AF907F905F904F903F902F901F900F905F
:101990001895A9E0B1E08C9186FB16F00C94D20C5E
:1019A0000C942F0DA8E1B1E00D911D912D913C916A
:1019B000A6E9B1E00D931D932D933C93A8E8B1E007
:1019C0000E94951DEA2FFB2F39970FEFA8E8B1E091
:1019D0000E946C1DA8E8B1E00E94341DA8E1B1E0AE
:1019E0000D931D932D933D9340E853EC69EC71E00A
:1019F000A8E1B1E00D911D912D913C910E94C81C70
:101A000080E00CF481E08F9340E653EE66E170E0F5
:101A1000A8E1B1E00D911D912D913C910E94C81C4F
:101A200080E014F009F081E09F918923882311F46C
:101A30000C94230D709109017068709309010E9444
:101A4000CC0D0C942F0DA6E9B1E00D911D912D91B7
:101A50003C91A8E1B1E00D931D932D933C93089523
:101A60004FE756E968E970E0A8E1B1E00D911D91FA
:101A70002D913C910E94C81C1CF011F00C94420D59
:101A80000C94480DAAE9B1E088278C930C944E0D74
:101A9000AAE9B1E0E0EFFCE30E94DE1AE2ECFCE32D
:101AA0000E94A219AAE9B1E00E949C19E2EFFCE3AE
:101AB0000E94A219A8EAB6E0E8E1F1E00E94DE1C6B
:101AC0000E949A19E6EFFCE30E94A2190895E8EF3C
:101AD000FCE30E94A219089540E050E060E070E04D
:101AE000A8E1B1E00D911D912D913C910E94C81C7F
:101AF00011F00C947C0D08954FE756E968E970E009
:101B0000A8E1B1E00D911D912D913C910E94C81C5E
:101B10001CF011F00C948E0D0C94940DAAE9B1E018
:101B200088278C930C949A0DAAE9B1E0E0EFFCE3CE
:101B30000E94DE1AEEE0FCE30E94A219AAE9B1E0DD
:101B40000E949C19E2EFFCE30E94A219A8EAB6E009
:101B5000E8E1F1E00E94DE1C0E949A19E8E0FDE352
:101B60000E94A219A9E0B1E08C9186FBA8EAB6E038
:101B70000E94BA1C8D9388278C930E949A19A8EA18
:101B8000B6E0E6E8F1E00E94EA1C0E949A19E8E15A
:101B9000FDE30E94A2190895A4E1B1E04D915D9189
:101BA0006D917C91A8E1B1E00D911D912D913C9139
:101BB000041715072607370718F011F00C94E20DEB
:101BC0000C94E40D0E94FA0DA0E1B1E04D915D91FD
:101BD0006D917C91A8E1B1E00D911D912D913C9109
:101BE000041715072607370710F00C94F90D0E940B
:101BF000FA0D08950E94F313E4E4F0E0ABE0B1E0E5
:101C000091E07BE70E947D1D7091090170687093DF
:101C100009010895399A389A4098ADE4B1E01196D7
:101C200098E08E91983018F4392F992702C038E047
:101C30009850881F419808F4419A00000000409A8B
:101C4000000000004098000000003A9591F79923A9
:101C500041F782E0E1E0F0E0A8E20E94AF1C0895C5
:101C6000E894ADE4B1E08C9184F98C93E894ADE410
:101C7000B1E08C9185F98C93E894ADE4B1E08C915E
:101C800086F98C93E894ADE4B1E08C9187F98C935C
:101C900000919E01013011F00C94620E81E080935E
:101CA00086016894ADE4B1E08C9184F98C938CE466
:101CB00080935101A0EAB1E0E2E1FCE30E94DE1A68
:101CC0000C94C00E023011F00C947A0E82E08093D6
:101CD00086016894ADE4B1E08C9185F98C9380E540
:101CE00080935101A0EAB1E0E6E1FCE30E94DE1A34
:101CF0000C94C00E033011F00C94920E87E0809388
:101D000086016894ADE4B1E08C9186F98C9384E50A
:101D100080935101A0EAB1E0EAE1FCE30E94DE1AFF
:101D20000C94C00E043011F00C94AA0E83E0809342
:101D300086016894ADE4B1E08C9186F98C9388E5D6
:101D400080935101A0EAB1E0EEE1FCE30E94DE1ACB
:101D50000C94C00E053011F00C94C00E89E08093F5
:101D600086016894ADE4B1E08C9187F98C938CE5A1
:101D700080935101A0EAB1E0E2E2FCE30E94DE1AA6
:101D800000914401023011F00C94F30E00910B010C
:101D9000033018F011F00C94CF0E0C94F30E009158
:101DA0009E01013011F00C94DA0E80E58093510110
:101DB0000C94F30E023011F00C94E30E8CE480933B
:101DC00051010C94F30E033011F00C94EC0E88E5E5
:101DD000809351010C94F30E043011F00C94F30E27
:101DE00084E5809351010E940A0EA1E5B1E0EC91D7
:101DF000FF27A0E4B1E094E00E948E1D00910A014B
:101E0000023011F00C94110F82E280934E0182E3B4
:101E100080934F0184E3809350010E94D0040E947C
:101E20008E068AE180934E018AE280934F018CE214
:101E3000809350010E946E040E948E068FE714E08A
:101E40000E94CE19A0EAB1E00E94B2190895009153
:101E50003701013011F00C94320F80E0809337018C
:101E60000E94F70F089500910D01013011F00C94BC
:101E7000410F8AE090E0AEE0B1E08D939C930C942A
:101E80007B0F023011F00C944D0F82E390E0AEE036
:101E9000B1E08D939C930C947B0F033011F00C9464
:101EA000590F84E690E0AEE0B1E08D939C930C94E2
:101EB0007B0F043011F00C94650F88EE93E0AEE0D8
:101EC000B1E08D939C930C947B0F053011F00C9432
:101ED000710F81E090E0AEE0B1E08D939C930C94A3
:101EE0007B0F063011F00C947B0F8AE090E0AEE09F
:101EF000B1E08D939C938FEB14E00E94CE19E2E247
:101F0000FDE30E94B819A8EAB6E0EEE0F1E00E9415
:101F1000DB1C0E94B019E2E3FCE30E94B8190E94A6
:101F2000C10FE0E4F0E0ADE0B1E091E07BE70E94BA
:101F30007D1DECE3F0E0AEE0B1E092E07BE70E94D3
:101F40007D1D0E94C10F8FEB15E00E94CE19EAEDB6
:101F5000FBE30E94B81986E090E0A4E0B1E08D9325
:101F60009C9381E1809306010E9443120E94951187
:101F7000AEE0B1E08D919C91A5E4B1E08D939C938E
:101F8000089588EC90E00E94AC1A089500910C012D
:101F9000023011F00C94D60F5D9A5E988FEB11E031
:101FA0000E94CE19EAE2FDE30E94B81900910C01EB
:101FB000013011F00C94E60F5E9A5D988FEB11E002
:101FC0000E94CE19EEE2FDE30E94B81900910C01C7
:101FD000003011F00C94F60F5E985D988FEB11E0D5
:101FE0000E94CE19E4E6FCE30E94B819089500911E
:101FF0003701013011F00C9411108FE711E00E94AD
:10200000CE19E6EEFBE30E94B819A8E1B1E00D910C
:102010001D912D913C91A8E3B1E00D931D932D935B
:102020003C9300913701003011F00C9431108FE790
:1020300011E00E94CE19EAEEFBE30E94B819A8E372
:10204000B1E00D911D912D913C91A8E1B1E00D936E
:102050001D932D933C930E946E040E948E060E9455
:102060002002089585E090E00E94AC1A00917C0067
:10207000007F066000937C000E94E41AA0E0B1E0BB
:102080008D939C93A0E0B1E00D911C91083552E036
:10209000150718F011F00C944F100C9451100C947B
:1020A0009411A0E0B1E00D911C910D3C51E0150799
:1020B00081E008F480E08F93A0E0B1E00D911C91E5
:1020C0000A3352E0150781E010F009F080E09F919B
:1020D0008923882311F40C94DB10A8E1B1E04D9121
:1020E0005D916D917C91A8E3B1E00D911D912D91D1
:1020F0003C91A8E1B1E00D931D932D933C93A8E38F
:10210000B1E04D935D936D937D930E946E040E94A8
:102110008E060E9420028FE711E00E94CE19E2E3B2
:10212000FDE30E94B819A9E0B1E08C9187FB16F09D
:102130000C949C100E946C0300917C00007F066050
:1021400000937C000E94E41AA0E0B1E08D939C9380
:10215000A0E0B1E00D911C91083552E0150718F090
:1021600011F00C94B5100C949310A8E1B1E04D91CE
:102170005D916D917C91A8E3B1E00D911D912D9140
:102180003C91A8E1B1E00D931D932D933C93A8E3FE
:10219000B1E04D935D936D937D930E946E040E9418
:1021A0008E060E9420028FE711E00E94CE19E6EE13
:1021B000FBE30E94B819A0E0B1E00D911C910C372F
:1021C00051E0150781E008F480E08F93A0E0B1E0D2
:1021D0000D911C910C3C51E0150781E010F009F0C5
:1021E00080E09F918923882311F40C942911A8E1A0
:1021F000B1E04D915D916D917C91A8E3B1E00D91BD
:102200001D912D913C91A8E1B1E00D931D932D936B
:102210003C93A8E3B1E04D935D936D937D930E9451
:102220006E040E948E060E9420028FE711E00E9439
:10223000CE19E6E3FDE30E94B8190E94C10F0E9487
:10224000C10F8FE711E00E94CE19E6EEFBE30E947A
:10225000B819A0E0B1E00D911C910C3251E01507C6
:1022600081E008F480E08F93A0E0B1E00D911C9133
:102270000B3751E0150781E010F009F080E09F91E5
:102280008923882311F40C946511A8E1B1E00D9124
:102290001D912D913C91A8E3B1E00D931D932D93D9
:1022A0003C938FE711E00E94CE19EAE3FDE30E9420
:1022B000B8190E94C10F0E94C10F8FE711E00E9460
:1022C000CE19E6EEFBE30E94B819A0E0B1E00D9153
:1022D0001C91023D50E0150781E008F480E08F93E7
:1022E000A0E0B1E00D911C91023251E0150781E0B0
:1022F00010F009F080E09F918923882311F40C9459
:102300009411A7E3B1E08C918F5F8C93009137011A
:10231000013018F011F00C948F110C94921180E0A0
:10232000809337010E94F70F0895A2E0B1E00E9468
:102330003C19A2E0B1E00D911C91043F51E015075A
:1023400010F00C94A5110C94E41100917C00007F16
:10235000076000937C000E94E41AA2E0B1E08D9334
:102360009C93A2E0B1E00D911C9144E150E00E94E9
:102370006619A4E0B1E04D935C93A4E0B1E00D9147
:102380001C910B3050E0150718F011F00C94CA1195
:102390000C94D0118BE090E0A4E0B1E08D939C937D
:1023A000A4E0B1E00D911C9146E050E0040F151F30
:1023B000A4E0B1E00D931C930E94E51180E090E051
:1023C000A2E0B1E08D939C930895A6E0B1E04D9119
:1023D0005527A4E0B1E00D911C910417150711F0E9
:1023E0000C94F4110C9414128091C1008F7380939B
:1023F000C100A6E0B1E04D915527A4E0B1E00D91F8
:102400001C910417150718F011F00C9409120C9484
:102410000D120E9415120C940F120E94431280910B
:10242000C100806C8093C100089582E0A7E0B1E014
:102430008D9388278C93009106010E3010F40C9434
:10244000271283E0A7E0B1E08D9388278C938FEB70
:10245000109106010E94CE19A7E0B1E00E94B219C6
:10246000A6E0B1E08C918F5F8C93A4E0B1E04D9138
:102470005C91A6E0B1E00D9111270417150711F04A
:102480000C941512089581E0A7E0B1E08D938827A0
:102490008C93A6E0B1E08C9181508C938FEB1091DE
:1024A00006010E94CE19A7E0B1E00E94B219A4E093
:1024B000B1E04D915C91A6E0B1E00D9111270417B8
:1024C000150711F00C9449120895A8E4B1E0EC91BD
:1024D000FF27A8E1B1E094E07BE70E947D1D08950D
:1024E000A7E4B1E0EC91FF27A8E1B1E094E00E94FD
:1024F0008E1D089500910B0144E0049FA8E4B1E013
:102500000C9200910B0144E2040FAAE4B1E00C9399
:1025100000910B0142E3040FACE4B1E00C93A8E49A
:10252000B1E0EC91FF27A8E1B1E094E07BE70E94E5
:102530007D1DAAE4B1E0EC91FF27ACE0B1E091E0B1
:102540007BE70E947D1DACE4B1E0EC91FF27AEE992
:10255000B1E091E07BE70E947D1D0895A9E4B1E020
:10256000EC91FF27ACE0B1E091E00E948E1D089550
:1025700085E090E00E94AC1AA0E0B1E00D911C91C2
:10258000083552E0150710F40C94C8120C94F2139D
:10259000E99800917C00007F066000937C000E9417
:1025A000E41AA0E0B1E08D939C93A0E0B1E00D911E
:1025B0001C910D3C51E0150781E008F480E08F93F9
:1025C000A0E0B1E00D911C910A3352E0150781E0C3
:1025D00010F009F080E09F918923882311F40C9476
:1025E0000E130E947A1280910B01815080930B018F
:1025F00000910B01083018F011F00C9401130C94A9
:10260000041388E080930B01E4E4F0E0ABE0B1E078
:1026100091E07BE70E947D1D0E94F216A0E0B1E0F0
:102620000D911C910C3751E0150781E008F480E012
:102630008F93A0E0B1E00D911C910C3C51E0150787
:1026400081E010F009F080E09F918923882311F444
:102650000C9447130E947A12ABE0B1E08C918F5F2B
:102660008C9300910B01083018F011F00C943A1380
:102670000C943D1380E080930B01E4E4F0E0ABE0C8
:10268000B1E091E07BE70E947D1D0E94F216A0E080
:10269000B1E00D911C910C3251E0150781E008F476
:1026A00080E08F93A0E0B1E00D911C910B3751E0D9
:1026B000150781E010F009F080E09F9189238823BD
:1026C00011F40C947613ACE0B1E08C918F5F8C9395
:1026D00000910C01023018F011F00C9471130C945D
:1026E000741380E080930C010E94C60FA0E0B1E05B
:1026F0000D911C91023D50E0150781E008F480E047
:102700008F93A0E0B1E00D911C91023251E01507CA
:1027100081E010F009F080E09F918923882311F473
:102720000C94A513A7E3B1E08C918F5F8C9300917B
:102730003701013018F011F00C94A0130C94A3137E
:1027400080E0809337010E94F70FA0E0B1E00D9187
:102750001C910E3650E0150781E008F480E08F935D
:10276000A0E0B1E00D911C91093B50E0150781E01C
:1027700010F009F080E09F918923882311F40C94D4
:10278000D413ADE0B1E08C918F5F8C9300910D017B
:10279000043018F011F00C94CF130C94D21381E094
:1027A00080930D010E94330FA0E0B1E00D911C91C8
:1027B000023350E0150710F00C94F113AEE9B1E0CC
:1027C0008C918F5F8C9300919E01053018F011F071
:1027D0000C94EC130C94EF1381E080939E010E9403
:1027E000300EE99A0895E894ADE4B1E08C9180F957
:1027F0008C93E894ADE4B1E08C9181F98C93E894EA
:10280000ADE4B1E08C9182F98C93E894ADE4B1E051
:102810008C9183F98C9340E653EE66E170E0A8E179
:10282000B1E00D911D912D913C910E94C81C80E05A
:1028300014F009F081E08F9340EA55E266E270E01F
:10284000A8E1B1E00D911D912D913C910E94C81C11
:1028500080E00CF481E09F918923882311F40C948B
:10286000511480E080930B0100E613EE26E130E086
:10287000A0E1B1E00D931D932D933C9380E08093F4
:10288000470100EA15E226E230E0A4E1B1E00D9351
:102890001D932D933C9384E28093490182E38093BE
:1028A0004B0140EA55E266E270E0A8E1B1E00D912B
:1028B0001D912D913C910E94C81C80E014F009F0FC
:1028C00081E08F9340E25AEA64E470E0A8E1B1E06D
:1028D0000D911D912D913C910E94C81C80E00CF43B
:1028E00081E09F918923882311F40C949D146894AE
:1028F000ADE4B1E08C9180F98C9381E080930B0181
:1029000000EA15E226E230E0A0E1B1E00D931D936C
:102910002D933C9384E08093470100E21AEA24E47B
:1029200030E0A4E1B1E00D931D932D933C9385E23B
:102930008093490183E380934B0140E25AEA64E4C7
:1029400070E0A8E1B1E00D911D912D913C910E94A4
:10295000C81C80E014F009F081E08F9340E052E160
:102960006AE770E0A8E1B1E00D911D912D913C91D5
:102970000E94C81C80E00CF481E09F918923882389
:1029800011F40C94E9146894ADE4B1E08C9181F9F0
:102990008C9382E080930B0100E21AEA24E430E099
:1029A000A0E1B1E00D931D932D933C9388E08093BB
:1029B000470100E012E12AE730E0A4E1B1E00D9325
:1029C0001D932D933C9386E28093490184E3809389
:1029D0004B0140E052E16AE770E0A8E1B1E00D91FF
:1029E0001D912D913C910E94C81C80E014F009F0CB
:1029F00081E08F9340E05BE167EB70E0A8E1B1E03C
:102A00000D911D912D913C910E94C81C80E00CF409
:102A100081E09F918923882311F40C943B156894DD
:102A2000ADE4B1E08C9180F98C936894ADE4B1E0B1
:102A30008C9181F98C9383E080930B0100E012E18B
:102A40002AE730E0A0E1B1E00D931D932D933C9374
:102A50008CE08093470100E01BE127EB30E0A4E12C
:102A6000B1E00D931D932D933C9387E28093490130
:102A700085E380934B0140E05BE167EB70E0A8E108
:102A8000B1E00D911D912D913C910E94C81C80E0F8
:102A900014F009F081E08F9340E054E264EF70E0BD
:102AA000A8E1B1E00D911D912D913C910E94C81CAF
:102AB00080E00CF481E09F918923882311F40C9429
:102AC00087156894ADE4B1E08C9182F98C9384E031
:102AD00080930B0100E01BE127EB30E0A0E1B1E0C7
:102AE0000D931D932D933C9380E18093470100E06B
:102AF00014E224EF30E0A4E1B1E00D931D932D9397
:102B00003C9388E28093490186E380934B0140E047
:102B100054E264EF70E0A8E1B1E00D911D912D91B8
:102B20003C910E94C81C80E014F009F081E08F9372
:102B300040E05DE261E371E0A8E1B1E00D911D913B
:102B40002D913C910E94C81C80E00CF481E09F9183
:102B50008923882311F40C94D9156894ADE4B1E06D
:102B60008C9180F98C936894ADE4B1E08C9182F9FA
:102B70008C9385E080930B0100E014E224EF30E0B9
:102B8000A0E1B1E00D931D932D933C9384E18093DC
:102B9000470100E01DE221E331E0A4E1B1E00D9343
:102BA0001D932D933C9389E28093490187E38093A1
:102BB0004B0140E05DE261E371E0A8E1B1E00D911D
:102BC0001D912D913C910E94C81C80E014F009F0E9
:102BD00081E08F9340E056E36EE671E0A8E1B1E05A
:102BE0000D911D912D913C910E94C81C80E00CF428
:102BF00081E09F918923882311F40C942B1668940B
:102C0000ADE4B1E08C9181F98C936894ADE4B1E0CE
:102C10008C9182F98C9386E080930B0100E01DE299
:102C200021E331E0A0E1B1E00D931D932D933C939E
:102C300088E18093470100E016E32EE631E0A4E14D
:102C4000B1E00D931D932D933C938AE2809349014B
:102C500088E380934B0140E056E36EE671E0A8E123
:102C6000B1E00D911D912D913C910E94C81C80E016
:102C700014F009F081E08F9340E85AEB6CE871E0C2
:102C8000A8E1B1E00D911D912D913C910E94C81CCD
:102C900080E00CF481E09F918923882311F40C9447
:102CA00083166894ADE4B1E08C9180F98C936894BC
:102CB000ADE4B1E08C9181F98C936894ADE4B1E01E
:102CC0008C9182F98C9387E080930B0100E016E3EE
:102CD0002EE631E0A0E1B1E00D931D932D933C93DE
:102CE0008CE18093470100E81AEB2CE831E0A4E185
:102CF000B1E00D931D932D933C938BE2809349019A
:102D000089E380934B0140E85AEB6CE871E0A8E15D
:102D1000B1E00D911D912D913C910E94C81C80E065
:102D200014F009F081E08F9340E853EC69EC71E016
:102D3000A8E1B1E00D911D912D913C910E94C81C1C
:102D400080E00CF481E09F918923882311F40C9496
:102D5000CF166894ADE4B1E08C9183F98C9388E050
:102D600080930B0100E81AEB2CE831E0A0E1B1E020
:102D70000D931D932D933C9380E28093470100E8CF
:102D800013EC29EC31E0A4E1B1E00D931D932D93F8
:102D90003C938CE2809349018AE380934B018FE757
:102DA00011E00E94CE19EAEEFBE30E94B81980E020
:102DB000809337010E94270F0E94AE120E94C60F17
:102DC0000E940A0E8AE180934E018AE280934F01AD
:102DD0008CE2809350010E946E040E948E060E9435
:102DE0002002089500910B0144E0049FA7E4B1E0A4
:102DF0000C920E9470120E94F313ABE4B1E0EC91CC
:102E0000FF27AEE9B1E091E00E948E1D0E94300ED6
:102E100008950F921F922F923F924F925F927F924E
:102E2000AF92BF920F931F932F933F934F935F9354
:102E30006F937F938F939F93AF93BF93CF93DF93C2
:102E4000EF93FF938FB78F93A9E2B0E08C9183FB50
:102E5000882780F9082F42E0049FA4EAB1E00C9291
:102E60000091A401A9E2B0E08C9182FB882780F94F
:102E7000482F040FA4EAB1E00C930091A50144E0AF
:102E8000049FA6EAB1E00C920091A6014091A40132
:102E9000040FA6EAB1E00C93A6EAB1E08C918F5F33
:102EA0008C930091A601023011F00C945E17709182
:102EB00009017061709309010C94A917033011F096
:102EC0000C946917709109017F7E709309010C942D
:102ED000A917053011F00C947417709109017F7EC9
:102EE000709309010C94A917083011F00C947F1706
:102EF000709109017061709309010C94A917093050
:102F000011F00C948A177091090170617093090196
:102F10000C94A9170C3011F00C94951770910901BD
:102F20007F7E709309010C94A9170E3011F00C9458
:102F3000A017709109017F7E709309010C94A91765
:102F40000F3011F00C94A917709109017061709302
:102F500009018091A4018093A501A9E0B1E08C91C1
:102F600084FB16F40C94C817A8E1B1E00D911D91F3
:102F70002D913C91AEE0B1E04D915C9166277727B1
:102F80000E94BE1CA8E1B1E00D931D932D933D93CB
:102F900070910901706870930901A9E0B1E08C910A
:102FA00084FB16F00C94E817A8E1B1E00D911D9197
:102FB0002D913C91AEE0B1E04D915C916627772771
:102FC0000E94C31CA8E1B1E00D931D932D933D9386
:102FD0007091090170687093090173E07CBB8F9157
:102FE0008FBFFF91EF91DF91CF91BF91AF919F91F3
:102FF0008F917F916F915F914F913F912F911F9191
:103000000F91BF90AF907F905F904F903F902F9027
:103010001F900F901895E99800EE1DEF2CE130E01D
:10302000A8E1B1E00D931D932D933C9380E0809334
:1030300048010E94651200ED11EB27E330E0A8E1A2
:10304000B1E00D931D932D933C9384E08093480150
:103050000E94651200E311EE2BE630E0A8E1B1E03A
:103060000D931D932D933C9388E0809348010E941B
:10307000651208EC1EE72AE930E0A8E1B1E00D9303
:103080001D932D933C938CE0809348010E94651220
:1030900000E719EE27ED30E0A8E1B1E00D931D93B4
:1030A0002D933C9380E1809348010E94651200E2D9
:1030B0001FE224E131E0A8E1B1E00D931D932D93CF
:1030C0003C9384E1809348010E94651200E319EB70
:1030D00022E431E0A8E1B1E00D931D932D933C93E0
:1030E00088E1809348010E94651200EE1DE82CE7FC
:1030F00031E0A8E1B1E00D931D932D933C938CE159
:10310000809348010E94651200E210EE22EB31E04C
:10311000A8E1B1E00D931D932D933C9380E2809341
:1031200048010E9465120AE010E020E030E0A8E1CA
:10313000B1E00D931D932D933C938CE38093480154
:103140000E94651201E010E020E030E0A8E1B1E06B
:103150000D931D932D933C9380E4809348010E942E
:10316000651203E010E020E030E0A8E1B1E00D934B
:103170001D932D933C9384E4809348010E94651233
:1031800000EC1CEF2BE931E0A8E1B1E00D931D93B9
:103190002D933C9388E4809348010E94651208E1D6
:1031A0001DE327E830E0A8E1B1E00D931D932D93D6
:1031B0003C938CE4809348010E94651200ED18E472
:1031C00027E830E0A8E1B1E00D931D932D933C93E7
:1031D00080E5809348010E94651200E71FE327E81D
:1031E00030E0A8E1B1E00D931D932D933C9384E56D
:1031F000809348010E94651208E716E427E830E052
:10320000A8E1B1E00D931D932D933C9388E5809345
:1032100048010E94651204EF12E427E830E0A8E1BB
:10322000B1E00D931D932D933C938CE58093480161
:103230000E94651201E010E020E030E0A8E1B1E07A
:103240000D931D932D933C9384E6809348010E9437
:10325000651201E010E020E030E0A8E1B1E00D935C
:103260001D932D933C9388E6809348010E9465123C
:10327000E99A0895F894FFCFED91FC91EF5FFF4F2D
:10328000FC93EE93089500FC10D0089503D01ED057
:1032900001F8F9CF0024E89457FF02C009D06894E0
:1032A00000F80BD010F80124089502D009D0089539
:1032B000509540954F5F5F4F0895E89417FF08952C
:1032C000009510950F5F1F4F68940895352F242F98
:1032D000E894452B11F468940895512F402F00274E
:1032E000112780E1440F551F001F111F021B130BF4
:1032F000416018F4020F131F4E7F8A9599F70895C5
:103300008F938D918823E9F711978F91089581E02C
:103310000090C00007FE8827089588270090C0000D
:1033200007FE089500C08091C00087FFFCCF809108
:10333000C6000895A8EAB6E08D91882311F009D05F
:10334000FBCF08950E948F1C802D11F002D0FACF80
:1033500008950090C00005FEFCCF8093C60008953C
:10336000A8EAB6E08D91882311F06CD0FBCF0895C8
:103370000E948F1C802D11F065D0FACF089581E056
:1033800067D015D080E864C08FE7213039F08FEB2B
:10339000223021F08FE8233009F08FEC810F0C945C
:1033A000281A88EE93E0D8D03197D9F7089583E0B2
:1033B0009927D2C08AEF90E00E94AC1A249A239AEF
:1033C000229A219A209A579A5F9885E090E00E946D
:1033D000AC1A28982C982B982A9A299A289AEF9315
:1033E000FF93ECE8F1E00E94A01AFF91EF9128987A
:1033F000B0D0289AEF93FF93ECE8F1E00E94A01A76
:10340000FF91EF912898A5D0289AEF93FF93ECE8CD
:10341000F1E00E94A01AFF91EF9128989AD0299884
:10342000289AEF93FF93ECE8F1E00E94A01AFF9135
:10343000EF9128988ED088E20BD08EE009D086E0FC
:1034400007D008955F9A829505D004D082D0089560
:103450005F98F9CF859510F4299A01C02998859530
:1034600010F42A9A01C02A98859510F42B9A01C06D
:103470002B98859510F42C9A01C02C98289AEF93DC
:10348000FF93ECE8F1E00E94A01AFF91EF912898D9
:10349000089500FC05D0089530D005D001F8F9CF8B
:1034A00037D03FD00895842F952FA62FB72FE894BB
:1034B000452B462B472B11F468940895402F512F2C
:1034C000622F732F0027112722273327F0E2440FA2
:1034D000551F661F771F001F111F221F331F081B58
:1034E000190B2A0B3B0B416028F4080F191F2A1FE8
:1034F0003B1F4E7FFA9559F708950024E89477FF13
:1035000002C006D0689400F809D010F8012408958C
:1035100012D04F5F5F4F6F4F7F4F0895E89437FF92
:10352000089500951095209530950F5F1F4F2F4FF0
:103530003F4F689408954095509560957095089513
:103540003197F1F70895689462F80895E89462F865
:10355000089581E090E000C0EF93FF93EE27E82B01
:10356000E92B31F0E0EAFFE03197F1F70197D1F76D
:10357000FF91EF9108950F921F922F92C801D901E8
:10358000489F80014A9F90014B9F202C499F100D1E
:10359000211D321D5A9F202C589F100D211D321DB8
:1035A000599F200D311D689F200D311D699F300DE1
:1035B000789F300D2F901F900F9008950E948F1CC0
:1035C0000D920020D9F7089570917A00706470937D
:1035D0007A0000907A0006FCFCCF70917A0070644B
:1035E00070937A0000907A0006FCFCCF80917800FE
:1035F0009091790008953DD0992711278F2D880F3C
:1036000080E8F82A802F881F08F41FEF41F08F57B9
:10361000082F07FD04C0003240F08FEF01C088275B
:10362000982FD82EE82EF82E09C08FE1801B082F86
:10363000F694E794D79497950A95D1F7112351F012
:103640009095D094E094F09481E0980F8827D81E4C
:10365000E81EF81E0F2DFE2CED2CD92E0895D094C7
:10366000E094F09491E0D90E9927E91EF91E109587
:103670000895D190E190F1900191089521913191B7
:10368000419151910895102F90E8FF0C001F0927D8
:10369000990FF7941078652F90E8440F551F59271C
:1036A000990F4795607800380895FF0C90E89027AF
:1036B000110F9795F794092F0895102FBD2CDE2C2C
:1036C000EF2CF02E11234AF4B094D094E094F094AF
:1036D0009FEFB91AD90AE90AF90A0EE1FF2039F475
:1036E000FE2CED2CDB2CBB240850C2F767C032F057
:1036F0000A95BB0CDD1CEE1CFF1CF9CF0E94811B40
:10370000D4CFB7FE089590E8B91611F4D0FE08950D
:103710009FEFD91AE90AF90A09F403950895502F81
:103720002D2D3E2D4F2D612F08952DEC3CEC4CECB2
:103730005DE366270FC09DDFF2DFDD24EE2490E815
:10374000F92E0FE307C09ADF05C02227332740E296
:1037500051E46627552351F1002381F194DF71F183
:103760001627005850580894050B18F407FD03C09D
:1037700025C007FD23C0469537952795F694E79415
:10378000D79422D0FF202AF0DD0CEE1CFF1C015044
:1037900073F09D2D969548F0DD203AF4EE202AF442
:1037A00091E0D90E9927E91EF91E7FCF07C09FE748
:1037B000092FF92A9FEFD92EE92E0895DD24EE2452
:1037C000FF240027112708959F929924AA24BB243F
:1037D00088E1D216E306F40628F0D21AE30AF40AC6
:1037E000089401C08894991CAA1CBB1CDD0CEE1C1B
:1037F000FF1C8A9571F7D92CEA2CFB2C9F90089519
:1038000042DFE1F25038D1F21627005850580894A0
:10381000051F12F418F4CBCF08F0D0CF0BD0FF2047
:103820002AF0BB0CDD1CEE1CFF1C3FCF0F5F0BF41E
:10383000BECF3BCF9F929924AA24BB24992788E12D
:10384000990CAA1CBB1CDD1CEE1CFF1C30F4920E54
:10385000A31EB41ED91EE91EF91E8A9589F79F90F2
:1038600008950CDF10DF503829F090E869270CC06C
:103870000AF045D01ACF5FE322273327442701C03F
:10388000FDDE01DF5038B1F3003899F3902F951B1E
:103890008BF312F434D0FACF983118F02227332763
:1038A0004427983028F0232F342F44279850F9CFFD
:1038B000992329F04695379527959A95D9F7912F11
:1038C000962742F014D0B0F6F794E794D7940F5FA0
:1038D0008BF66DCF10D051F008F4C1DEFF2052F20C
:1038E000DD0CEE1CFF1C0150CBF761CF67CFD20E71
:1038F000E31EF41E0895D21AE30AF40A0895DF9233
:10390000EF92FF920F931F93D22EE32EF42E052FEA
:10391000162F6F915F914F913F912F910895C89508
:10392000319600200895FBDFD02CF9DFE02CF7DF83
:10393000F02CF5DF002D0895F2DF202DF0DF302D83
:10394000EEDF402DECDF502D089591E0882321F02B
:103950008894991F8A95E9F7892F90950895BB2738
:103960000E94A51C9C9198279C933197F1F798276A
:103970009C93089580E30EF483950895040F151F1A
:10398000261F371F0895041B150B260B370B0895B0
:1039900004171507260737070895000F111F221F68
:1039A000331F089500951095209530950F5F1F4F98
:1039B0002F4F3F4F0895019110810EC00191119139
:1039C000219130810BC00191108117FF05C03FEF9D
:1039D0002FEF04C0008111272227332737FF03C0B0
:1039E000E1DF8DE28D93CF93DF93CF92DF92EF9261
:1039F000AA24BB24CC24DD24EE2440E2CAE0DD2747
:103A000055E093E38881890F87FD9F7083FD907F48
:103A1000891B89935A95A9F7C0DFAA1CBB1CCC1C33
:103A2000DD1CEE1C4A9551F7E894EFE0FF278291E8
:103A30000ED0EB30E0F71EF068948A2D0CD088276A
:103A40008D93EF90DF90CF90DF91CF910895982FD5
:103A5000829501D0892F8F70805D26F0803309F424
:103A6000089568948D9308950027112722273327FE
:103A70001DD08A3328F4803318F005D015D0F9CF43
:103A80000EF490CF089580538F93402F512F622FC3
:103A9000732F83DF82DF72DF80DF8F919927080F1A
:103AA000191F291F391F08958D910895E894FCDF8F
:103AB0008032E9F38B32D9F38930C9F38D3211F4B6
:103AC0006894F2CF089588278D93089594E08191AA
:103AD0008D939A95E1F7089581918D930A9519F048
:103AE0008823D1F70895EFCFF999FECFE1BDF2BD5C
:103AF0003196089591E001C092E07B3751F47FB791
:103B0000F894F2DF8D9180BDFA9AF99A9A95C9F7E7
:103B10007FBF7727089591E001C092E0E5DFF89A32
:103B200080B58D939A95D1F708958FEF83959D91E8
:103B30009923E1F70895689401C0E894AF93BF9387
:103B40008D9116F0919103C00E948F1C902D8917C2
:103B500018F011F48823A1F7BF91AF9108953C9814
:103B60003D984498459808953D9A3C9803D03D98D7
:103B700001D03C9AEF93FF93E4E0F0E00E94A01A9A
:103B8000FF91EF9108953D9A3C9AF4DF3D98359B63
:103B9000FECFF0DF3C98EECF0894111F01C0110F4B
:103BA00069F03D9A18F400003C9802C03C9A00C0AD
:103BB000E1DF3D98359BFECFDDDFF1CF3D9A3C98AC
:103BC000D9DF3D98359BFECFE8943499689462F82C
:103BD000D1CFF0FF7F490000004353002E002000AA
:103BE0005000545820005269740052582000484632
:103BF0002053796E745F555233494C46000020764D
:103C000065722E56335F536935333531410049466D
:103C100000004C5342005553420043574C00435759
:103C2000550050534B00487A200073617665204957
:103C3000460020202020202020002020202020209E
:103C400020202020202000004F5554200000323535
:103C50003030302E30303000487A00005369353330
:103C600035315F00202020004F5554203235303050
:103C7000302E303030487A200000202020736176CA
:103C800065205369353335312020000053693533C1
:103C9000353120434C4B3D004F55543D56464F2B3C
:103CA00000002D007361766520434C4B205369352D
:103CB00033353100414930004149313B00003F3B41
:103CC000000046410000464200005054000050549D
:103CD00030363B004D4431004D4432004D443300FA
:103CE0004D4439004D4437005458000052580000EC
:103CF0003000303030003B0046423030303037301A
:103D000037303030303B000020202020202B303056
:103D10003030303020303000303030303030203BE8
:103D2000000020205374657000005052450041543B
:0E3D3000540058464300522F5400543D520098
:00000001FF
