:100000000C943400189500000C940017189500000B
:10001000189500001895000018950000189500002C
:10002000189500001895000018950000189500001C
:10003000189500001895000018950000189500000C
:1000400018950000189500000C94690C1895000094
:1000500018950000189500001895000018950000EC
:1000600018950000189500008FEF8DBFC8E3E0ECF5
:100070004E2E88E08EBFD8E0F6E05F2EA89584B7BC
:10008000082E877F84BF88E1992780936000909332
:100090006000EEEFF7E0A0E0B1E088278D933197A4
:1000A000E9F788E08093C40080E08093C50088E190
:1000B0008093C1006624209A219A229A239A249A36
:1000C0002598389A399A3A9A3B9A52985398559A61
:1000D000569A579A0E9479198CE00E94C719EAEF44
:1000E000F0E088E40E94C71958E0C895802D0E946E
:1000F000C11931965A95C9F704C020200420042064
:100100002020EEE1F1E080E50E94C71958E0C89593
:10011000802D0E94C11931965A95C9F704C0201B41
:100120001B1B1B1B2020E2E4F1E088E50E94C7199D
:1001300058E0C895802D0E94C11931965A95C9F78B
:1001400004C0201F1B111B1F202087E880937A000A
:1001500080E480937C0086E08093060143981D9A9A
:100160000E944E1D82E390E00E944B1A5098519AD3
:1001700082E390E00E944B1A7091090170687093BD
:100180000901E4E6F0E0AAE0B1E091E00E942D1D53
:100190000E94F207E99A80916900837F88608093CA
:1001A00069007091C10070687093C100789470917B
:1001B0007A00706870937A00E0E4F0E0ADE0B1E0BE
:1001C00091E00E942D1DECE3F0E0AEE0B1E092E0A2
:1001D0000E942D1D8AE090E00E944B1A00917C0045
:1001E000007F066000937C000E94831AA0E0B1E0CB
:1001F0008D939C93A0E0B1E00D911C91023D50E0E5
:10020000150781E008F480E08F93A0E0B1E00D9144
:100210001C91023251E0150781E010F009F080E0F6
:100220009F918923882311F40C941C018AE090E0AB
:100230000E944B1A0E94670800917C00007F0660B4
:1002400000937C000E94831AA0E0B1E08D939C9300
:10025000A0E0B1E00D911C91023350E0150718F0B9
:1002600011F00C9437010E94B80F0E94AA17E0E425
:10027000F0E0ADE0B1E091E00E942D1D00910D0194
:100280000A3018F011F00C9447010C9449010E94B7
:10029000AA170E944E0408E316E52CE435E0A8E115
:1002A000B1E00D931D932D933C930E94190286E0BB
:1002B00090E0A4E0B1E08D939C9381E180930601EE
:1002C0000E943A12E998E8E6F0E0A4E4B1E091E097
:1002D0000E942D1DE0E4F0E0ADE0B1E091E00E946D
:1002E0002D1DECE3F0E0A5E4B1E092E00E942D1DAD
:1002F000E8E4F0E0A2E8B1E094E00E942D1DE4E41F
:10030000F0E0ABE0B1E091E00E942D1D8FEB15E035
:100310000E946D19E8E1FBE30E9457198FE71AE08C
:100320000E946D19EAE1FBE30E9457198FE71EE076
:100330000E946D19EAE1FBE30E945719E99A0E94B5
:10034000E916A9E0B1E08C9187FB16F00C94AA01A4
:100350000E946503A3E2B0E00C9105FB81E00EF47E
:1003600080E08F93A9E0B1E08C9186FB81E00EF0F4
:1003700080E09F91892B882311F40C94C50185E0BE
:1003800090E00E944B1A0E94B20300917C00007F13
:10039000066000937C000E94831AA0E0B1E08D9378
:1003A0009C93A0E0B1E00D911C91083552E0150737
:1003B00018F011F00C94070285E090E00E944B1AAF
:1003C00000913701003011F00C94EA010E94AF1245
:1003D0000C94EC010E94291000917C00007F0660C3
:1003E00000937C000E94831AA0E0B1E08D939C935F
:1003F000A0E0B1E00D911C91043853E0150718F00E
:1004000011F00C9405020C94EC010E94B80FA9E0C5
:10041000B1E08C9185FB16F00C9415020E94270E1A
:10042000709109017F7D709309010E948C110C94D9
:10043000A10100E412E42FE030E0ACE2B1E00D9362
:100440001D932D933C93A8E1B1E00D911D912D9149
:100450003C914AE050E060E070E00E94F219A0E2B6
:10046000B1E04D935D936D937D9381E080932B017B
:1004700000912B01073018F011F00C948C02A0E2CF
:10048000B1E00D911D912D913C91ACE2B1E04D9107
:100490005D916D917C910E94F219ACE1B1E04D93B8
:1004A0005D936D937D9380911C01ABE2B1E0AD90C3
:1004B000BB24A3E2B1E0AA0DBB1D8C93A0E2B1E086
:1004C0000D911D912D913C91ACE2B1E04D915D916A
:1004D0006D917C910E94EB19A0E2B1E00D931D9308
:1004E0002D933D93ACE2B1E00D911D912D913C9186
:1004F0004AE050E060E070E00E94F219ACE2B1E046
:100500004D935D936D937D93ABE2B1E08C918F5FE2
:100510008C9310F40C94380240E856E968E970E0D6
:10052000A8E1B1E00D911D912D913C910E94671CB5
:100530000CF402C00C949F0280E08093240180910F
:10054000C1008F738093C10040912401009130015C
:10055000041711F40C94CF0200912401003011F023
:100560000C94BF028FE718E00E946D19ECE1FBE3E9
:100570000E94571980E0809330010C94CF028FE7DE
:1005800018E00E946D19A8EAB6E0E4E2F1E00E94EA
:10059000891C0E944F198091240180933001409161
:1005A000250100913101041711F40C94E7028FE743
:1005B00019E00E946D19A8EAB6E0E5E2F1E00E94B8
:1005C000891C0E944F19809125018093310140912F
:1005D000260100913201041711F40C94FF028FE7F9
:1005E0001BE00E946D19A8EAB6E0E6E2F1E00E9485
:1005F000891C0E944F1980912601809332014091FD
:10060000270100913301041711F40C9417038FE7AD
:100610001CE00E946D19A8EAB6E0E7E2F1E00E9452
:10062000891C0E944F1980912701809333014091CA
:10063000280100913401041711F40C942F038FE763
:100640001DE00E946D19A8EAB6E0E8E2F1E00E9420
:10065000891C0E944F198091280180933401409198
:10066000290100913501041711F40C9447038FE719
:100670001FE00E946D19A8EAB6E0E9E2F1E00E94ED
:10068000891C0E944F198091290180933501409166
:100690002A0100913601041711F40C945F038FE7CF
:1006A00010E10E946D19A8EAB6E0EAE2F1E00E94CA
:1006B000891C0E944F1980912A01809336018091F4
:1006C000C100806C8093C1000895A4E1B1E04D9118
:1006D0005D916D917C91A8E1B1E00D911D912D91FD
:1006E0003C91041715072607370718F011F00C94F2
:1006F0007B030C948703A0E1B1E00D911D912D9136
:100700003C91A8E1B1E00D931D932D933C93A0E1A2
:10071000B1E04D915D916D917C91A8E1B1E00D91B9
:100720001D912D913C91041715072607370710F0EE
:100730000C94A603A4E1B1E00D911D912D913C9183
:10074000A8E1B1E00D931D932D933C9370910901A5
:100750007F77709309010E9465040E9485060E94BC
:1007600019020895E998A8E1B1E00D911D912D912C
:100770003C91ACE3B1E00D931D932D933C9300911C
:100780000C01023011F00C94C6035D98439A00915D
:100790003701013011F00C94DF03A8E3B1E00D91B3
:1007A0001D912D913C91A8E1B1E00D931D932D93E6
:1007B0003C930E9465040E9485060E9419028FEBFB
:1007C00015E00E946D19EEE1FBE30E9457198FE7D7
:1007D00011E00E946D19E0E2FBE30E9457191D9998
:1007E0000C940304709109017064709309010E94D4
:1007F0008C111D9B0C94F703709109017F7B709302
:1008000009010C940C040E948C11A9E0B1E08C91B8
:1008100086FB16F40C940304709109017F7B70939E
:10082000090100913701013011F00C943204ACE35E
:10083000B1E00D911D912D913C91A8E1B1E00D9396
:100840001D932D933C938FE711E00E946D19E4E214
:10085000FBE30E94571970910901706870930901B8
:100860000C943A048FE711E00E946D19E8E2FBE373
:100870000E94571900910C01023011F00C944104B0
:100880005D9A73E07CBB43988FEB15E00E946D1975
:10089000E8E1FBE30E945719E99A08958FE712E017
:1008A0000E946D19ECE2FBE30E9457198FEB11E0F7
:1008B0000E946D19ECE3FBE30E945719E1E0F0E0C0
:1008C0000E9470190E945E190895A8E1B1E00D918F
:1008D0001D912D913C91A2E5B1E00D931D932D93B7
:1008E0003C9300914401013011F00C948B04A2E57B
:1008F000B1E00D911D912D913C91A0E4B1E04D919D
:100900005D916D917C910E945D1CA2E5B1E00D931B
:100910001D932D933D9300914401023011F00C94EE
:10092000C40400910B01033018F011F00C949A04E8
:100930000C94B004A2E5B1E00D911D912D913C9174
:10094000A0E4B1E04D915D916D917C910E94621C9B
:10095000A2E5B1E00D931D932D933D930C94C40437
:10096000A2E5B1E00D911D912D913C91A0E4B1E083
:100970004D915D916D917C910E945D1CA2E5B1E06D
:100980000D931D932D933D930E94D6040895A0E4EA
:10099000B1E00D911D912D913C91A2E5B1E00D9337
:1009A0001D932D933C930E94D604089500E01AEC09
:1009B0002AE93BE3A2E5B1E04D915D916D917C9117
:1009C0000E94F219AAE5B1E04D935D936D937D937A
:1009D000AAE5B1E00D911D912D913C9142E050E0CE
:1009E00060E070E00E94EB19A6E5B1E00D931D9365
:1009F0002D933D9340E050E060E070E0A6E5B1E06B
:100A00000D911D912D913C9104171507260737076D
:100A100011F40C941D05AAE5B1E00D911D912D91E5
:100A20003C9141E050E060E070E00E94621CAAE569
:100A3000B1E00D931D932D933D93AAE5B1E00D9187
:100A40001D912D913C9141E050E060E070E00E94EA
:100A50005A1AA6E5B1E00D931D932D933D93A6E59B
:100A6000B1E00D911D912D913C91A2E5B1E04D9128
:100A70005D916D917C910E945A1AA6E5B1E00D93AB
:100A80001D932D933D9380E080935F01A6E5B1E037
:100A90000D911D912D913C91A2E8B1E04D915D9198
:100AA0006D917C910E94F219A0E6B1E04D935D93A7
:100AB0006D937D93E2E8F1E00E94D81A0E94FC1A3F
:100AC0000E942E1B2F933F934F935F93E0E6F1E03C
:100AD0000E94D81A0E94FC1A5F914F913F912F916A
:100AE0000E949F1BEDE0F0E0A8E6B1E00E94051D2A
:100AF000E8E6F1E00E94DD1AE6E5F1E00E94D81A8E
:100B00000E94FC1A0E94D11BEDE0F0E0A8E6B1E0E3
:100B10000E94051DE0E1FBE30E943B1CE8E6F1E0DA
:100B20000E94D81A0E949F1BEDE0F0E0A8E6B1E019
:100B30000E94051DE2E8F1E00E94D81A0E94FC1A0A
:100B40000E942E1BE8E6F1E00E94D81A0E94491B81
:100B5000EDE0F0E0A8E6B1E00E94051DE8E6F1E076
:100B60000E949A1AA4E6B1E0EDE0FF270E94051D5D
:100B700000E810E020E030E0AAE5B1E04D915D91A1
:100B80006D917C910E945A1AA0E7B1E00D931D93DC
:100B90002D933D93A0E7B1E00D911D912D913C91D6
:100BA00040E052E060E070E00E94621CA0E7B1E02B
:100BB0000D931D932D933D93E4E6F1E00E94D81A26
:100BC0000E94FC1A0E942E1BE4E1FBE30E94321CEF
:100BD0000E949F1BEDE0F0E0A8E6B1E00E94051D39
:100BE000E0E1FBE30E943B1CE8E6F1E00E94D81A3A
:100BF0000E94491BEDE0F0E0A8E6B1E00E94051D6F
:100C0000E8E6F1E00E949A1AACE6B1E0EDE0FF27D9
:100C10000E94051D00E810E020E030E0A0E6B1E011
:100C20004D915D916D917C910E945A1AA4E7B1E0BB
:100C30000D931D932D933D93A4E7B1E00D911D916C
:100C40002D913C91ACE6B1E04D915D916D917C911F
:100C50000E945D1CA4E7B1E00D931D932D933D937D
:100C6000A4E7B1E00D911D912D913C9140E052E03F
:100C700060E070E00E94621CA4E7B1E00D931D9358
:100C80002D933D93ACE6B1E00D911D912D913C91DA
:100C90004FEF5FEF6FE070E00E945A1AACE7B1E0EF
:100CA0000D931D932D933D9300E810E020E030E07C
:100CB000A4E6B1E04D915D916D917C910E945A1A2C
:100CC000A8E7B1E00D931D932D933D93A8E7B1E004
:100CD0000D911D912D913C91ACE7B1E04D915D914D
:100CE0006D917C910E94621CA8E7B1E00D931D9369
:100CF0002D933D930FEF1FEF2FE030E0ACE7B1E015
:100D00000D931D932D933C93089580914E018093F4
:100D100080013FB6F894A0E8B1E0BA93AA93ADE79A
:100D2000B1E0BA93AA930E94D0072496A0E8B1E05C
:100D30008C918F5F8C933FB6F894A0E8B1E0BA93A2
:100D4000AA93ACE7B1E0BA93AA930E94D007249685
:100D5000A0E8B1E08C918F5F8C933FB6F894A0E847
:100D6000B1E0BA93AA93A6E7B1E0BA93AA930E941E
:100D7000D0072496A0E8B1E08C918F5F8C933FB6AA
:100D8000F894A0E8B1E0BA93AA93A5E7B1E0BA93CA
:100D9000AA930E94D0072496A0E8B1E08C918F5FBF
:100DA0008C933FB6F894A0E8B1E0BA93AA93A4E775
:100DB000B1E0BA93AA930E94D007249680917E0155
:100DC00080935101A1E5B1E08C9182958C930091C3
:100DD000510140917A01042BA1E5B1E00C93A0E808
:100DE000B1E08C918F5F8C933FB6F894A0E8B1E0AE
:100DF000BA93AA93A1E5B1E0BA93AA930E94D0074F
:100E00002496A0E8B1E08C918F5F8C933FB6F89464
:100E1000A0E8B1E0BA93AA93A9E7B1E0BA93AA9384
:100E20000E94D0072496A0E8B1E08C918F5F8C934C
:100E30003FB6F894A0E8B1E0BA93AA93A8E7B1E06E
:100E4000BA93AA930E94D007249680914F01809371
:100E5000800180E0809381013FB6F894A0E8B1E082
:100E6000BA93AA93A1E8B1E0BA93AA930E94D007DB
:100E70002496A0E8B1E08C918F5F8C9381E0809301
:100E800081013FB6F894A0E8B1E0BA93AA93A1E833
:100E9000B1E0BA93AA930E94D007249680915F0193
:100EA000809351010091510140917201042BA1E501
:100EB000B1E00C93A0E8B1E08C918F5F8C933FB6CA
:100EC000F894A0E8B1E0BA93AA93A1E5B1E0BA938F
:100ED000AA930E94D0072496A0E8B1E08C918F5F7E
:100EE0008C933FB6F894A0E8B1E0BA93AA93A1E737
:100EF000B1E0BA93AA930E94D0072496A0E8B1E08B
:100F00008C918F5F8C933FB6F894A0E8B1E0BA93D0
:100F1000AA93A0E7B1E0BA93AA930E94D0072496BF
:100F2000A0E8B1E08C918F5F8C9380E08093810189
:100F30003FB6F894A0E8B1E0BA93AA93A1E8B1E073
:100F4000BA93AA930E94D0072496A0E8B1E08C91AE
:100F50008F5F8C9380E0809381013FB6F894A0E886
:100F6000B1E0BA93AA93A1E8B1E0BA93AA930E9420
:100F7000D0072496A0E8B1E08C918F5F8C9380E03D
:100F8000809381013FB6F894A0E8B1E0BA93AA93A8
:100F9000A1E8B1E0BA93AA930E94D00724960895DD
:100FA0003FBE0E94531D10EC0E946B1DEF93EBE0BF
:100FB000EA95F1F7EF91AA81BB811C910E946B1D0C
:100FC000EF93EBE0EA95F1F7EF91A881B9811C91DD
:100FD0000E946B1DEF93EBE0EA95F1F7EF910E9411
:100FE000621D089587EB8093800180EC80938101DE
:100FF0003FB6F894A0E8B1E0BA93AA93A1E8B1E0B3
:10100000BA93AA930E94D007249683E0809380012C
:1010100000910A01023011F00C9413088CEF8093B8
:1010200081010C9416088EEF809381013FB6F894ED
:10103000A0E8B1E0BA93AA93A1E8B1E0BA93AA9369
:101040000E94D00724968FE08093800180E08093F7
:1010500081013FB6F894A0E8B1E0BA93AA93A1E861
:10106000B1E0BA93AA930E94D007249680E18093BE
:1010700080018FE4809381013FB6F894A0E8B1E04D
:10108000BA93AA93A1E8B1E0BA93AA930E94D007B9
:10109000249600910A01023011F00C94620881E15B
:1010A000809380018FE6809381013FB6F894A0E899
:1010B000B1E0BA93AA93A1E8B1E0BA93AA930E94CF
:1010C000D00724968AE090E00E944B1A0895809100
:1010D000C1008F738093C100ECE4F0E0A8E1B1E0BF
:1010E00094E00E942D1D81E090E0AEE0B1E08D9390
:1010F0009C9381E090E0A5E4B1E08D939C9385E022
:1011000080930D018CE480939E018FE711E00E9493
:101110006D19ECE4FBE30E9457198FE714E00E947D
:101120006D1900919E010C3411F00C949D08E0E5BE
:10113000FBE30E9457190C94C308003511F00C947E
:10114000A708E4E5FBE30E9457190C94C308043593
:1011500011F00C94B108E8E5FBE30E9457190C94D8
:10116000C308083511F00C94BB08ECE5FBE30E94C2
:1011700057190C94C3080C3511F00C94C308E0E621
:10118000FBE30E9457198FE718E00E946D19A8EA47
:10119000B6E0E8E1F1E00E947D1C0E944F19E4E610
:1011A000FBE30E94571900917C00007F06600093CA
:1011B0007C000E94831AA0E0B1E08D939C93A0E094
:1011C000B1E00D911C91023350E0150710F00C9422
:1011D0002E09E998AEE9B1E0EC91FF27A8E1B1E072
:1011E00094E07BE70E941C1DAEE9B1E08C918C5F1E
:1011F0008C93AEE9B1E0EC91FF27A8E1B1E094E077
:101200000E942D1DE99A8FEB16E00E946D19E8E609
:10121000FBE30E945719E2E0F0E00E9470198FEBA7
:1012200016E00E946D19E0E7FBE30E945719009158
:101230009E01003611F00C942E090E946A090E944A
:101240007C0A8AE090E0AEE0B1E08D939C938091BF
:10125000C100806C8093C1000C946909A0E0B1E0EA
:101260000D911C910E3650E0150781E008F480E0E6
:101270008F93A0E0B1E00D911C91093B50E0150760
:1012800081E010F009F080E09F918923882311F418
:101290000C946709ADE0B1E08C918F5F8C93009165
:1012A0000D01063018F011F00C9458090C945B09EC
:1012B00082E080930D010E94B80F0E942A0F8FEBED
:1012C00015E00E946D19E8E7FBE30E9457190C94A2
:1012D0008D080895E8E4F0E0A2E8B1E094E00E940F
:1012E0002D1D81E090E0AEE0B1E08D939C9300E095
:1012F00010E020E030E0A0E4B1E00D931D932D93C9
:101300003C930E945E1982E080930A010E94F207DA
:101310008FEB11E00E946D19E6E8FBE30E9457197C
:10132000ECE8FBE30E945719E6E9FBE30E9457193A
:10133000A2E8B1E00D911D912D913C91A8E1B1E0A1
:101340000D931D932D933C938AE180934E018AE285
:1013500080934F018CE280935001A9E0B1E08C9121
:1013600087FB16F00C94EF098FE711E00E946D19CE
:10137000EAE9FBE30E945719A8EAB6E0E8E1F1E0E8
:101380000E947D1C0E944F19A8E1B1E00D911D91B2
:101390002D913C91A2E8B1E00D931D932D933C93C8
:1013A00000E418E72DE731E0A8E1B1E00D931D93CB
:1013B0002D933C930E9465040E948506A2E8B1E04B
:1013C0000D911D912D913C91A8E1B1E00D931D93DC
:1013D0002D933C93709109017F77709309010091DF
:1013E0007C00007F066000937C000E94831AA0E0CE
:1013F000B1E08D939C93A0E0B1E00D911C910E366D
:1014000050E0150781E008F480E08F93A0E0B1E0A0
:101410000D911C91093B50E0150781E010F009F097
:1014200080E09F918923882311F40C943C0AADE05D
:10143000B1E08C918F5F8C9300910D01063018F014
:1014400011F00C94250A0C94280A82E080930D0177
:101450000E94B80F8FEB11E00E946D19E2EAFBE3E6
:101460000E9457190E942A0F8FEB11E00E946D19FC
:10147000E6EAFBE30E945719A0E0B1E00D911C9150
:101480000C3751E0150781E008F480E08F93A0E06D
:10149000B1E00D911C910C3C51E0150781E010F07A
:1014A00009F080E09F918923882311F40C94790A34
:1014B00084E190E00E944B1AE998E8E4F0E0A2E8A9
:1014C000B1E094E07BE70E941C1DE99A8FEB11E0EC
:1014D0000E946D19E8EBFBE30E945719E2E0F0E08F
:1014E0000E9470190E945E1981E080930D010C9496
:1014F0007B0A0C94AD0908958FE711E00E946D19E5
:10150000EAECFBE30E9457198FEB11E00E946D1982
:10151000E6EDFBE30E9457198FEB1AE00E946D196C
:10152000ECE4FBE30E945719E4E6F0E0AAE0B1E046
:1015300091E00E942D1DE8E6F0E0A4E4B1E091E026
:101540000E942D1D8FE71CE00E946D19A8EAB6E0ED
:10155000EAE0F1E00E94891C0E944F198FEB19E02C
:101560000E946D19AAE9B1E00E945119009144014D
:10157000013011F00C94C40AAAE9B1E0ECE1FBE3FC
:101580000E947D1A0C94CA0AAAE9B1E0E0EEFBE3DE
:101590000E947D1A00917C00007F066000937C0011
:1015A0000E94831AA0E0B1E08D939C93A0E0B1E08B
:1015B0000D911C910C3751E0150781E008F480E093
:1015C0008F93A0E0B1E00D911C910C3C51E0150708
:1015D00081E010F009F080E09F918923882311F4C5
:1015E0000C94130BAAE0B1E08C918F5F8C93009167
:1015F0000A01023018F011F00C94000B0C94030B4C
:1016000081E080930A018FE71CE00E946D19A8EA2F
:10161000B6E0EAE0F1E00E94891C0E944F190E94A6
:10162000B80F0E94B80FA0E0B1E00D911C910D3CE5
:1016300051E0150781E008F480E08F93A0E0B1E06D
:101640000D911C910A3352E0150781E010F009F06A
:1016500080E09F918923882311F40C94440BA4E427
:10166000B1E08C918F5F8C9300914401023018F0AF
:1016700011F00C943D0B0C94400B81E080934401DD
:101680000E94B80F0E94B80FA0E0B1E00D911C912C
:10169000023D50E0150781E008F480E08F93A0E060
:1016A000B1E00D911C91023251E0150781E010F07C
:1016B00009F080E09F918923882311F40C94820B18
:1016C000E4E6F0E0AAE0B1E091E07BE70E941C1DB7
:1016D000E8E6F0E0A4E4B1E091E07BE70E941C1DA5
:1016E0008FEB11E00E946D19E2EEFBE30E945719A7
:1016F0000E94F207E2E0F0E00E9470190E945E1979
:101700000C94840B0C94A20A089500919C010D3056
:1017100011F00C948F0B0E94C00C0C94490CA8E89B
:10172000B1E0E2EFFBE30E943A1D11F00C94A20B32
:10173000E6EFFBE30E944119ECEFFBE30E94411945
:101740000C94490CECE4FBE30E943A1D11F00C945C
:10175000AD0B0E94630D0C94490CE0E0FCE30E9489
:101760003A1D11F00C94B80B0E94270D0C94490CF3
:10177000E4E0FCE30E943A1D11F00C94C30B0E94BC
:101780005E0D0C94490CE8E0FCE30E943A1D11F058
:101790000C94D00BECE0FCE30E9441190C94490C32
:1017A000E2E1FCE30E943A1D11F00C94E10B81E0B0
:1017B00080939E01709109017062709309010C94ED
:1017C000490CE6E1FCE30E943A1D11F00C94F20B87
:1017D00082E080939E01709109017062709309010B
:1017E0000C94490CEAE1FCE30E943A1D11F00C94C0
:1017F000030C84E080939E017091090170627093E4
:1018000009010C94490CEEE1FCE30E943A1D11F031
:101810000C94140C85E080939E0170910901706214
:10182000709309010C94490CE2E2FCE30E943A1D1A
:1018300011F00C94250C83E080939E0170910901B6
:101840007062709309010C94490CE6E2FCE30E947B
:101850003A1D11F00C94330C70910901706470936F
:1018600009010C94490CEAE2FCE30E943A1D11F0D4
:101870000C94410C709109017F7B709309010C94C9
:10188000490CA8E8B1E00E943B19ECEFFBE30E9491
:101890004119A8E8B1E088278C930E942619082FE7
:1018A000013011F00C94560C0E945A0C80E0809389
:1018B0009C0108950E942C19A8E8B1E08D93882717
:1018C0008C93A8E8B1E08C91803011F00C945A0C04
:1018D00008950F921F922F923F924F925F927F92A4
:1018E000AF92BF920F931F932F933F934F935F93AA
:1018F0006F937F938F939F93AF93BF93CF93DF9318
:10190000EF93FF938FB78F930E942C19A7E8B1E054
:101910008C938BE3482F00918701041711F40C94EA
:10192000A20CA7E8B1E08C91A8E8B1E00E941F19D1
:101930008D9388278C93ACE9B1E08C918F5F8C9369
:101940000C94A40C0E94850B8F918FBFFF91EF9197
:10195000DF91CF91BF91AF919F918F917F916F91C7
:101960005F914F913F912F911F910F91BF90AF9039
:101970007F905F904F903F902F901F900F90189501
:10198000A9E0B1E08C9186FB16F00C94C90C0C9484
:10199000260DA8E1B1E00D911D912D913C91A6E994
:1019A000B1E00D931D932D933C93A8E8B1E00E9404
:1019B000341DEA2FFB2F39970FEFA8E8B1E00E9402
:1019C0000B1DA8E8B1E00E94D31CA8E1B1E00D9383
:1019D0001D932D933D9340E853EC69EC71E0A8E131
:1019E000B1E00D911D912D913C910E94671C80E00A
:1019F0000CF481E08F9340E653EE66E170E0A8E1DD
:101A0000B1E00D911D912D913C910E94671C80E0E9
:101A100014F009F081E09F918923882311F40C943C
:101A20001A0D709109017068709309010E94C30D2D
:101A30000C94260DA6E9B1E00D911D912D913C91DC
:101A4000A8E1B1E00D931D932D933C9308954FE7CA
:101A500056E968E970E0A8E1B1E00D911D912D9182
:101A60003C910E94671C1CF011F00C94390D0C94F1
:101A70003F0DAAE9B1E088278C930C94450DAAE9A3
:101A8000B1E0EEE2FCE30E947D1AE0E0FCE30E949C
:101A90004119AAE9B1E00E943B19E0E3FCE30E948E
:101AA0004119A8EAB6E0E8E1F1E00E947D1C0E943D
:101AB0003919E4E3FCE30E9441190895E6E3FCE3ED
:101AC0000E944119089540E050E060E070E0A8E114
:101AD000B1E00D911D912D913C910E94671C11F078
:101AE0000C94730D08954FE756E968E970E0A8E19A
:101AF000B1E00D911D912D913C910E94671C1CF04D
:101B000011F00C94850D0C948B0DAAE9B1E0882797
:101B10008C930C94910DAAE9B1E0EEE2FCE30E94F3
:101B20007D1AECE4FBE30E944119AAE9B1E00E94AE
:101B30003B19E0E3FCE30E944119A8EAB6E0E8E1C2
:101B4000F1E00E947D1C0E943919E6E4FCE30E944A
:101B50004119A9E0B1E08C9186FBA8EAB6E00E94A9
:101B6000591C8D9388278C930E943919A8EAB6E0F6
:101B7000E6E8F1E00E94891C0E943919E6E5FCE3E1
:101B80000E9441190895A4E1B1E04D915D916D91DC
:101B90007C91A8E1B1E00D911D912D913C9104172C
:101BA00015072607370718F011F00C94D90D0C947F
:101BB000DB0D0E94F10DA0E1B1E04D915D916D91C1
:101BC0007C91A8E1B1E00D911D912D913C910417FC
:101BD00015072607370710F00C94F00D0E94F10D41
:101BE00008950E94EA13E4E4F0E0ABE0B1E091E094
:101BF0007BE70E941C1D70910901706870930901B8
:101C00000895399A389A4098ADE4B1E0119698E079
:101C10008E91983018F4392F992702C038E09850E7
:101C2000881F419808F4419A00000000409A000083
:101C300000004098000000003A9591F7992341F781
:101C400082E0E1E0F0E0A8E20E944E1C0895E894F2
:101C5000ADE4B1E08C9184F98C93E894ADE4B1E00B
:101C60008C9185F98C93E894ADE4B1E08C9186F980
:101C70008C93E894ADE4B1E08C9187F98C9300915A
:101C80009E01013011F00C94590E81E08093860181
:101C90006894ADE4B1E08C9184F98C938CE48093EA
:101CA0005101A0EAB1E0E0E5FBE30E947D1A0C944B
:101CB000B70E023011F00C94710E82E08093860111
:101CC0006894ADE4B1E08C9185F98C9380E58093C4
:101CD0005101A0EAB1E0E4E5FBE30E947D1A0C9417
:101CE000B70E033011F00C94890E87E080938601C3
:101CF0006894ADE4B1E08C9186F98C9384E580938F
:101D00005101A0EAB1E0E8E5FBE30E947D1A0C94E2
:101D1000B70E043011F00C94A10E83E0809386017D
:101D20006894ADE4B1E08C9186F98C9388E580935A
:101D30005101A0EAB1E0ECE5FBE30E947D1A0C94AE
:101D4000B70E053011F00C94B70E89E08093860130
:101D50006894ADE4B1E08C9187F98C938CE5809325
:101D60005101A0EAB1E0E0E6FBE30E947D1A009198
:101D70004401023011F00C94EA0E00910B01033083
:101D800018F011F00C94C60E0C94EA0E00919E010E
:101D9000013011F00C94D10E80E5809351010C9428
:101DA000EA0E023011F00C94DA0E8CE480935101AB
:101DB0000C94EA0E033011F00C94E30E88E5809346
:101DC00051010C94EA0E043011F00C94EA0E84E5F3
:101DD000809351010E94010EA1E5B1E0EC91FF2733
:101DE000A0E4B1E094E00E942D1D00910A010230B0
:101DF00011F00C94080F82E280934E0182E38093ED
:101E00004F0184E3809350010E94C7040E9485061D
:101E10008AE180934E018AE280934F018CE28093A5
:101E200050010E9465040E9485068FE714E00E941D
:101E30006D19A0EAB1E00E9451190895009137018F
:101E4000013011F00C94290F80E0809337010E943B
:101E5000EE0F089500910D01013011F00C94380F30
:101E60008AE090E0AEE0B1E08D939C930C94720F09
:101E7000023011F00C94440F82E390E0AEE0B1E048
:101E80008D939C930C94720F033011F00C94500FAF
:101E900084E690E0AEE0B1E08D939C930C94720FD9
:101EA000043011F00C945C0F88EE93E0AEE0B1E0EA
:101EB0008D939C930C94720F053011F00C94680F65
:101EC00081E090E0AEE0B1E08D939C930C94720FB2
:101ED000063011F00C94720F8AE090E0AEE0B1E0B1
:101EE0008D939C938FEB14E00E946D19E0E6FCE368
:101EF0000E945719A8EAB6E0EEE0F1E00E947A1CD1
:101F00000E944F19E0E7FBE30E9457190E94B80FA7
:101F1000E0E4F0E0ADE0B1E091E07BE70E941C1D61
:101F2000ECE3F0E0AEE0B1E092E07BE70E941C1D44
:101F30000E94B80F8FEB15E00E946D19E8E1FBE3FA
:101F40000E94571986E090E0A4E0B1E08D939C9345
:101F500081E1809306010E943A120E948C11AEE04A
:101F6000B1E08D919C91A5E4B1E08D939C9308958F
:101F700088EC90E00E944B1A089500910C01023009
:101F800011F00C94CD0F5D9A5E988FEB11E00E94DA
:101F90006D19E8E6FCE30E94571900910C0101302D
:101FA00011F00C94DD0F5E9A5D988FEB11E00E94AA
:101FB0006D19ECE6FCE30E94571900910C0100300A
:101FC00011F00C94ED0F5E985D988FEB11E00E947C
:101FD0006D19E2EAFBE30E94571908950091370159
:101FE000013011F00C9408108FE711E00E946D1978
:101FF000E4E2FBE30E945719A8E1B1E00D911D91C5
:102000002D913C91A8E3B1E00D931D932D933C934A
:1020100000913701003011F00C9428108FE711E087
:102020000E946D19E8E2FBE30E945719A8E3B1E0B2
:102030000D911D912D913C91A8E1B1E00D931D935F
:102040002D933C930E9465040E9485060E9419020C
:10205000089585E090E00E944B1A00917C00007F7B
:10206000066000937C000E94831AA0E0B1E08D938B
:102070009C93A0E0B1E00D911C91083552E015074A
:1020800018F011F00C9446100C9448100C948B111D
:10209000A0E0B1E00D911C910D3C51E0150781E0ED
:1020A00008F480E08F93A0E0B1E00D911C910A3319
:1020B00052E0150781E010F009F080E09F9189233C
:1020C000882311F40C94D210A8E1B1E04D915D91F8
:1020D0006D917C91A8E3B1E00D911D912D913C9102
:1020E000A8E1B1E00D931D932D933C93A8E3B1E0DB
:1020F0004D935D936D937D930E9465040E948506C8
:102100000E9419028FE711E00E946D19E0E7FCE3DD
:102110000E945719A9E0B1E08C9187FB16F00C944E
:1021200093100E94650300917C00007F066000937D
:102130007C000E94831AA0E0B1E08D939C93A0E004
:10214000B1E00D911C91083552E0150718F011F01F
:102150000C94AC100C948A10A8E1B1E04D915D9103
:102160006D917C91A8E3B1E00D911D912D913C9171
:10217000A8E1B1E00D931D932D933C93A8E3B1E04A
:102180004D935D936D937D930E9465040E94850637
:102190000E9419028FE711E00E946D19E4E2FBE34F
:1021A0000E945719A0E0B1E00D911C910C3751E04D
:1021B000150781E008F480E08F93A0E0B1E00D9175
:1021C0001C910C3C51E0150781E010F009F080E013
:1021D0009F918923882311F40C942011A8E1B1E088
:1021E0004D915D916D917C91A8E3B1E00D911D91B0
:1021F0002D913C91A8E1B1E00D931D932D933C935B
:10220000A8E3B1E04D935D936D937D930E946504C7
:102210000E9485060E9419028FE711E00E946D1945
:10222000E4E7FCE30E9457190E94B80F0E94B80F20
:102230008FE711E00E946D19E4E2FBE30E94571959
:10224000A0E0B1E00D911C910C3251E0150781E046
:1022500008F480E08F93A0E0B1E00D911C910B3762
:1022600051E0150781E010F009F080E09F9189238B
:10227000882311F40C945C11A8E1B1E00D911D913B
:102280002D913C91A8E3B1E00D931D932D933C93C8
:102290008FE711E00E946D19E8E7FCE30E945719EF
:1022A0000E94B80F0E94B80F8FE711E00E946D19CD
:1022B000E4E2FBE30E945719A0E0B1E00D911C910C
:1022C000023D50E0150781E008F480E08F93A0E024
:1022D000B1E00D911C91023251E0150781E010F040
:1022E00009F080E09F918923882311F40C948B11CD
:1022F000A7E3B1E08C918F5F8C930091370101309F
:1023000018F011F00C9486110C94891180E08093E0
:1023100037010E94EE0F0895A2E0B1E00E94DB18A1
:10232000A2E0B1E00D911C91043F51E0150710F0BF
:102330000C949C110C94DB1100917C00007F0760D1
:1023400000937C000E94831AA2E0B1E08D939C93DD
:10235000A2E0B1E00D911C9144E150E00E9405190A
:10236000A4E0B1E04D935C93A4E0B1E00D911C9129
:102370000B3050E0150718F011F00C94C1110C94BB
:10238000C7118BE090E0A4E0B1E08D939C93A4E0B2
:10239000B1E00D911C9146E050E0040F151FA4E040
:1023A000B1E00D931C930E94DC1180E090E0A2E06C
:1023B000B1E08D939C930895A6E0B1E04D9155272F
:1023C000A4E0B1E00D911C910417150711F00C94D5
:1023D000EB110C940B128091C1008F738093C1009C
:1023E000A6E0B1E04D915527A4E0B1E00D911C911C
:1023F0000417150718F011F00C9400120C94041235
:102400000E940C120C9406120E943A128091C10094
:10241000806C8093C100089582E0A7E0B1E08D93C5
:1024200088278C93009106010E3010F40C941E1234
:1024300083E0A7E0B1E08D9388278C938FEB109118
:1024400006010E946D19A7E0B1E00E945119A6E0B3
:10245000B1E08C918F5F8C93A4E0B1E04D915C91E1
:10246000A6E0B1E00D9111270417150711F00C94A7
:102470000C12089581E0A7E0B1E08D9388278C933A
:10248000A6E0B1E08C9181508C938FEB1091060106
:102490000E946D19A7E0B1E00E945119A4E0B1E0DB
:1024A0004D915C91A6E0B1E00D911127041715073D
:1024B00011F00C9440120895A8E4B1E0EC91FF27CC
:1024C000A8E1B1E094E07BE70E941C1D0895A7E419
:1024D000B1E0EC91FF27A8E1B1E094E00E942D1D4E
:1024E000089500910B0144E0049FA8E4B1E00C9230
:1024F00000910B0144E2040FAAE4B1E00C930091B7
:102500000B0142E3040FACE4B1E00C93A8E4B1E0AA
:10251000EC91FF27A8E1B1E094E07BE70E941C1D4D
:10252000AAE4B1E0EC91FF27ACE0B1E091E07BE7F9
:102530000E941C1DACE4B1E0EC91FF27AEE9B1E0D4
:1025400091E07BE70E941C1D0895A9E4B1E0EC91A5
:10255000FF27ACE0B1E091E00E942D1D089585E0D9
:1025600090E00E944B1AA0E0B1E00D911C9108355B
:1025700052E0150710F40C94BF120C94E913E9987B
:1025800000917C00007F066000937C000E94831A0B
:10259000A0E0B1E08D939C93A0E0B1E00D911C917F
:1025A0000D3C51E0150781E008F480E08F93A0E036
:1025B000B1E00D911C910A3352E0150781E010F053
:1025C00009F080E09F918923882311F40C9405136E
:1025D0000E94711280910B01815080930B01009138
:1025E0000B01083018F011F00C94F8120C94FB1247
:1025F00088E080930B01E4E4F0E0ABE0B1E091E02F
:102600007BE70E941C1D0E94E916A0E0B1E00D913D
:102610001C910C3751E0150781E008F480E08F939E
:10262000A0E0B1E00D911C910C3C51E0150781E058
:1026300010F009F080E09F918923882311F40C9415
:102640003E130E947112ABE0B1E08C918F5F8C93CE
:1026500000910B01083018F011F00C9431130C9418
:10266000341380E080930B01E4E4F0E0ABE0B1E0F0
:1026700091E07BE70E941C1D0E94E916A0E0B1E0FA
:102680000D911C910C3251E0150781E008F480E0B7
:102690008F93A0E0B1E00D911C910B3751E015072D
:1026A00081E010F009F080E09F918923882311F4E4
:1026B0000C946D13ACE0B1E08C918F5F8C93009122
:1026C0000C01023018F011F00C9468130C946B1389
:1026D00080E080930C010E94BD0FA0E0B1E00D915D
:1026E0001C91023D50E0150781E008F480E08F93D3
:1026F000A0E0B1E00D911C91023251E0150781E09C
:1027000010F009F080E09F918923882311F40C9444
:102710009C13A7E3B1E08C918F5F8C9300913701FC
:10272000013018F011F00C9497130C949A1380E078
:10273000809337010E94EE0FA0E0B1E00D911C9153
:102740000E3650E0150781E008F480E08F93A0E09A
:10275000B1E00D911C91093B50E0150781E010F0AC
:1027600009F080E09F918923882311F40C94CB1306
:10277000ADE0B1E08C918F5F8C9300910D0104303E
:1027800018F011F00C94C6130C94C91381E08093D7
:102790000D010E942A0FA0E0B1E00D911C910233BF
:1027A00050E0150710F00C94E813AEE9B1E08C91FD
:1027B0008F5F8C9300919E01053018F011F00C94FE
:1027C000E3130C94E61381E080939E010E94270E90
:1027D000E99A0895E894ADE4B1E08C9180F98C9386
:1027E000E894ADE4B1E08C9181F98C93E894ADE488
:1027F000B1E08C9182F98C93E894ADE4B1E08C91D6
:1028000083F98C9340E653EE66E170E0A8E1B1E015
:102810000D911D912D913C910E94671C80E014F058
:1028200009F081E08F9340EA55E266E270E0A8E1AA
:10283000B1E00D911D912D913C910E94671C80E0AB
:102840000CF481E09F918923882311F40C9448149F
:1028500080E080930B0100E613EE26E130E0A0E17A
:10286000B1E00D931D932D933C9380E0809347013D
:1028700000EA15E226E230E0A4E1B1E00D931D93F9
:102880002D933C9384E28093490182E380934B0132
:1028900040EA55E266E270E0A8E1B1E00D911D91D9
:1028A0002D913C910E94671C80E014F009F081E0BA
:1028B0008F9340E25AEA64E470E0A8E1B1E00D9140
:1028C0001D912D913C910E94671C80E00CF481E0E9
:1028D0009F918923882311F40C9494146894ADE497
:1028E000B1E08C9180F98C9381E080930B0100EA38
:1028F00015E226E230E0A0E1B1E00D931D932D93A7
:102900003C9384E08093470100E21AEA24E430E03B
:10291000A4E1B1E00D931D932D933C9385E2809348
:10292000490183E380934B0140E25AEA64E470E09A
:10293000A8E1B1E00D911D912D913C910E94671C81
:1029400080E014F009F081E08F9340E052E16AE703
:1029500070E0A8E1B1E00D911D912D913C910E9494
:10296000671C80E00CF481E09F918923882311F497
:102970000C94E0146894ADE4B1E08C9181F98C93EF
:1029800082E080930B0100E21AEA24E430E0A0E147
:10299000B1E00D931D932D933C9388E08093470104
:1029A00000E012E12AE730E0A4E1B1E00D931D93CD
:1029B0002D933C9386E28093490184E380934B01FD
:1029C00040E052E16AE770E0A8E1B1E00D911D91AD
:1029D0002D913C910E94671C80E014F009F081E089
:1029E0008F9340E05BE167EB70E0A8E1B1E00D910F
:1029F0001D912D913C910E94671C80E00CF481E0B8
:102A00009F918923882311F40C9432156894ADE4C6
:102A1000B1E08C9180F98C936894ADE4B1E08C9135
:102A200081F98C9383E080930B0100E012E12AE7A7
:102A300030E0A0E1B1E00D931D932D933C938CE029
:102A40008093470100E01BE127EB30E0A4E1B1E017
:102A50000D931D932D933C9387E28093490185E369
:102A600080934B0140E05BE167EB70E0A8E1B1E0EF
:102A70000D911D912D913C910E94671C80E014F0F6
:102A800009F081E08F9340E054E264EF70E0A8E148
:102A9000B1E00D911D912D913C910E94671C80E049
:102AA0000CF481E09F918923882311F40C947E1506
:102AB0006894ADE4B1E08C9182F98C9384E08093CA
:102AC0000B0100E01BE127EB30E0A0E1B1E00D934A
:102AD0001D932D933C9380E18093470100E014E225
:102AE00024EF30E0A4E1B1E00D931D932D933C93CE
:102AF00088E28093490186E380934B0140E054E2F1
:102B000064EF70E0A8E1B1E00D911D912D913C9131
:102B10000E94671C80E014F009F081E08F9340E090
:102B20005DE261E371E0A8E1B1E00D911D912D91AD
:102B30003C910E94671C80E00CF481E09F91892306
:102B4000882311F40C94D0156894ADE4B1E08C9115
:102B500080F98C936894ADE4B1E08C9182F98C9308
:102B600085E080930B0100E014E224EF30E0A0E167
:102B7000B1E00D931D932D933C9384E18093470125
:102B800000E01DE221E331E0A4E1B1E00D931D93EB
:102B90002D933C9389E28093490187E380934B0115
:102BA00040E05DE261E371E0A8E1B1E00D911D91CB
:102BB0002D913C910E94671C80E014F009F081E0A7
:102BC0008F9340E056E36EE671E0A8E1B1E00D912D
:102BD0001D912D913C910E94671C80E00CF481E0D6
:102BE0009F918923882311F40C9422166894ADE4F4
:102BF000B1E08C9181F98C936894ADE4B1E08C9153
:102C000082F98C9386E080930B0100E01DE221E3C2
:102C100031E0A0E1B1E00D931D932D933C9388E149
:102C20008093470100E016E32EE631E0A4E1B1E035
:102C30000D931D932D933C938AE28093490188E381
:102C400080934B0140E056E36EE671E0A8E1B1E00D
:102C50000D911D912D913C910E94671C80E014F014
:102C600009F081E08F9340E85AEB6CE871E0A8E14D
:102C7000B1E00D911D912D913C910E94671C80E067
:102C80000CF481E09F918923882311F40C947A1627
:102C90006894ADE4B1E08C9180F98C936894ADE4D4
:102CA000B1E08C9181F98C936894ADE4B1E08C91A2
:102CB00082F98C9387E080930B0100E016E32EE607
:102CC00031E0A0E1B1E00D931D932D933C938CE195
:102CD0008093470100E81AEB2CE831E0A4E1B1E071
:102CE0000D931D932D933C938BE28093490189E3CF
:102CF00080934B0140E85AEB6CE871E0A8E1B1E049
:102D00000D911D912D913C910E94671C80E014F063
:102D100009F081E08F9340E853EC69EC71E0A8E1A1
:102D2000B1E00D911D912D913C910E94671C80E0B6
:102D30000CF481E09F918923882311F40C94C6162A
:102D40006894ADE4B1E08C9183F98C9388E0809332
:102D50000B0100E81AEB2CE831E0A0E1B1E00D93A3
:102D60001D932D933C9380E28093470100E813EC80
:102D700029EC31E0A4E1B1E00D931D932D933C9338
:102D80008CE2809349018AE380934B018FE711E045
:102D90000E946D19E8E2FBE30E94571980E08093DE
:102DA00037010E941E0F0E94A5120E94BD0F0E94B3
:102DB000010E8AE180934E018AE280934F018CE2FA
:102DC000809350010E9465040E9485060E941902AA
:102DD000089500910B0144E0049FA7E4B1E00C9238
:102DE0000E9467120E94EA13ABE4B1E0EC91FF2766
:102DF000AEE9B1E091E00E942D1D0E94270E0895DA
:102E00000F921F922F923F924F925F927F92AF92BA
:102E1000BF920F931F932F933F934F935F936F93A3
:102E20007F938F939F93AF93BF93CF93DF93EF9352
:102E3000FF938FB78F93EF93FF93ECEAF4E00E9438
:102E40003F1AFF91EF914B990C943117A9E2B0E032
:102E50008C9182FBA9E0B1E08C9184F98C930E9463
:102E60004F1773E07CBB8F918FBFFF91EF91DF9184
:102E7000CF91BF91AF919F918F917F916F915F9112
:102E80004F913F912F911F910F91BF90AF907F90E5
:102E90005F904F903F902F901F900F901895EF9359
:102EA000FF93ECEAF4E00E943F1AFF91EF914B9BF5
:102EB0000C945C170C946E170027A9E2B0E08C917B
:102EC00082FB00F94427A9E0B1E08C9184FB40F932
:102ED000041711F00C946E170E946F170895EF936A
:102EE000FF93ECEAF4E00E943F1AFF91EF914A9BB6
:102EF0000C949017A8E1B1E00D911D912D913C919A
:102F0000AEE0B1E04D915C91662777270E945D1C91
:102F1000A8E1B1E00D931D932D933D930C94A4175C
:102F2000A8E1B1E00D911D912D913C91AEE0B1E091
:102F30004D915C91662777270E94621CA8E1B1E061
:102F40000D931D932D933D937091090170687093BB
:102F500009010895E99800EE1DEF2CE130E0A8E1A9
:102F6000B1E00D931D932D933C9380E08093480135
:102F70000E945C1200ED11EB27E330E0A8E1B1E024
:102F80000D931D932D933C9384E0809348010E9400
:102F90005C1200E311EE2BE630E0A8E1B1E00D9306
:102FA0001D932D933C9388E0809348010E945C120E
:102FB00008EC1EE72AE930E0A8E1B1E00D931D938B
:102FC0002D933C938CE0809348010E945C1200E7B3
:102FD00019EE27ED30E0A8E1B1E00D931D932D939C
:102FE0003C9380E1809348010E945C1200E21FE262
:102FF00024E131E0A8E1B1E00D931D932D933C93C2
:1030000084E1809348010E945C1200E319EB22E402
:1030100031E0A8E1B1E00D931D932D933C9388E13D
:10302000809348010E945C1200EE1DE82CE731E01D
:10303000A8E1B1E00D931D932D933C938CE1809317
:1030400048010E945C1200E210EE22EB31E0A8E1A0
:10305000B1E00D931D932D933C9380E28093480142
:103060000E945C120AE010E020E030E0A8E1B1E04C
:103070000D931D932D933C938CE3809348010E9404
:103080005C1201E010E020E030E0A8E1B1E00D9337
:103090001D932D933C9380E4809348010E945C1221
:1030A00003E010E020E030E0A8E1B1E00D931D93D3
:1030B0002D933C9384E4809348010E945C1200ECC1
:1030C0001CEF2BE931E0A8E1B1E00D931D932D93A6
:1030D0003C9388E4809348010E945C1208E11DE360
:1030E00027E830E0A8E1B1E00D931D932D933C93C8
:1030F0008CE4809348010E945C1200ED18E427E8FC
:1031000030E0A8E1B1E00D931D932D933C9380E551
:10311000809348010E945C1200E71FE327E830E03B
:10312000A8E1B1E00D931D932D933C9384E580932A
:1031300048010E945C1208E716E427E830E0A8E1A5
:10314000B1E00D931D932D933C9388E58093480146
:103150000E945C1204EF12E427E830E0A8E1B1E03D
:103160000D931D932D933C938CE5809348010E9411
:103170005C1201E010E020E030E0A8E1B1E00D9346
:103180001D932D933C9384E6809348010E945C122A
:1031900001E010E020E030E0A8E1B1E00D931D93E4
:1031A0002D933C9388E6809348010E945C12E99A33
:1031B0000895F894FFCFED91FC91EF5FFF4FFC93E2
:1031C000EE93089500FC10D0089503D01ED001F8AE
:1031D000F9CF0024E89457FF02C009D0689400F8A2
:1031E0000BD010F80124089502D009D0089550950D
:1031F00040954F5F5F4F0895E89417FF089500953D
:1032000010950F5F1F4F68940895352F242FE89471
:10321000452B11F468940895512F402F0027112752
:1032200080E1440F551F001F111F021B130B41604B
:1032300018F4020F131F4E7F8A9599F708958F9304
:103240008D918823E9F711978F91089581E000907F
:10325000C00007FE8827089588270090C00007FE59
:10326000089500C08091C00087FFFCCF8091C60008
:103270000895A8EAB6E08D91882311F009D0FBCF1C
:1032800008950E942E1C802D11F002D0FACF0895CF
:103290000090C00005FEFCCF8093C6000895A8EA08
:1032A000B6E08D91882311F06CD0FBCF08950E9479
:1032B0002E1C802D11F065D0FACF089581E067D0E3
:1032C00015D080E864C08FE7213039F08FEB2230D1
:1032D00021F08FE8233009F08FEC810F0C94C7198F
:1032E00088EE93E0D8D03197D9F7089583E09927F5
:1032F000D2C08AEF90E00E944B1A249A239A229A15
:10330000219A209A579A5F9885E090E00E944B1A84
:1033100028982C982B982A9A299A289AEF93FF9309
:10332000ECE8F1E00E943F1AFF91EF912898B0D0AD
:10333000289AEF93FF93ECE8F1E00E943F1AFF9187
:10334000EF912898A5D0289AEF93FF93ECE8F1E04D
:103350000E943F1AFF91EF9128989AD02998289AB5
:10336000EF93FF93ECE8F1E00E943F1AFF91EF9199
:1033700028988ED088E20BD08EE009D086E007D066
:1033800008955F9A829505D004D082D008955F9801
:10339000F9CF859510F4299A01C02998859510F4E4
:1033A0002A9A01C02A98859510F42B9A01C02B986F
:1033B000859510F42C9A01C02C98289AEF93FF93CE
:1033C000ECE8F1E00E943F1AFF91EF9128980895F0
:1033D00000FC05D0089530D005D001F8F9CF37D0E2
:1033E0003FD00895842F952FA62FB72FE894452B13
:1033F000462B472B11F468940895402F512F622FCC
:10340000732F0027112722273327F0E2440F551F7F
:10341000661F771F001F111F221F331F081B190B68
:103420002A0B3B0B416028F4080F191F2A1F3B1F72
:103430004E7FFA9559F708950024E89477FF02C06B
:1034400006D0689400F809D010F80124089512D02D
:103450004F5F5F4F6F4F7F4F0895E89437FF089598
:1034600000951095209530950F5F1F4F2F4F3F4FC0
:10347000689408954095509560957095089531979A
:10348000F1F70895689462F80895E89462F8089551
:1034900081E090E000C0EF93FF93EE27E82BE92B4B
:1034A00031F0E0EAFFE03197F1F70197D1F7FF91B2
:1034B000EF9108950F921F922F92C801D901489F52
:1034C00080014A9F90014B9F202C499F100D211D88
:1034D000321D5A9F202C589F100D211D321D599FBF
:1034E000200D311D689F200D311D699F300D789F83
:1034F000300D2F901F900F9008950E942E1C0D925A
:103500000020D9F7089570917A00706470937A0062
:1035100000907A0006FCFCCF70917A007064709382
:103520007A0000907A0006FCFCCF809178009091A0
:10353000790008953DD0992711278F2D880F80E8B5
:10354000F82A802F881F08F41FEF41F08F57082FAB
:1035500007FD04C0003240F08FEF01C08827982F8C
:10356000D82EE82EF82E09C08FE1801B082FF69484
:10357000E794D79497950A95D1F7112351F0909538
:10358000D094E094F09481E0980F8827D81EE81E2C
:10359000F81E0F2DFE2CED2CD92E0895D094E0941A
:1035A000F09491E0D90E9927E91EF91E109508951F
:1035B000D190E190F1900191089521913191419143
:1035C00051910895102F90E8FF0C001F0927990FC3
:1035D000F7941078652F90E8440F551F5927990FDD
:1035E0004795607800380895FF0C90E89027110FF8
:1035F0009795F794092F0895102FBD2CDE2CEF2CF2
:10360000F02E11234AF4B094D094E094F0949FEFFC
:10361000B91AD90AE90AF90A0EE1FF2039F4FE2C99
:10362000ED2CDB2CBB240850C2F767C032F00A95A2
:10363000BB0CDD1CEE1CFF1CF9CF0E94201BD4CF5D
:10364000B7FE089590E8B91611F4D0FE08959FEFE3
:10365000D91AE90AF90A09F403950895502F2D2D76
:103660003E2D4F2D612F08952DEC3CEC4CEC5DE38D
:1036700066270FC09DDFF2DFDD24EE2490E8F92EEF
:103680000FE307C09ADF05C02227332740E251E449
:103690006627552351F1002381F194DF71F116273C
:1036A000005850580894050B18F407FD03C025C0B6
:1036B00007FD23C0469537952795F694E794D79450
:1036C00022D0FF202AF0DD0CEE1CFF1C015073F00D
:1036D0009D2D969548F0DD203AF4EE202AF491E0F5
:1036E000D90E9927E91EF91E7FCF07C09FE7092F42
:1036F000F92A9FEFD92EE92E0895DD24EE24FF2428
:103700000027112708959F929924AA24BB2488E1B9
:10371000D216E306F40628F0D21AE30AF40A089453
:1037200001C08894991CAA1CBB1CDD0CEE1CFF1C5C
:103730008A9571F7D92CEA2CFB2C9F90089542DFD3
:10374000E1F25038D1F21627005850580894051F5E
:1037500012F418F4CBCF08F0D0CF0BD0FF202AF012
:10376000BB0CDD1CEE1CFF1C3FCF0F5F0BF4BECF6C
:103770003BCF9F929924AA24BB24992788E1990CD6
:10378000AA1CBB1CDD1CEE1CFF1C30F4920EA31EF9
:10379000B41ED91EE91EF91E8A9589F79F900895D7
:1037A0000CDF10DF503829F090E869270CC00AF0D0
:1037B00045D01ACF5FE322273327442701C0FDDE1F
:1037C00001DF5038B1F3003899F3902F951B8BF33C
:1037D00012F434D0FACF983118F022273327442737
:1037E000983028F0232F342F44279850F9CF99236D
:1037F00029F04695379527959A95D9F7912F9627D1
:1038000042F014D0B0F6F794E794D7940F5F8BF69C
:103810006DCF10D051F008F4C1DEFF2052F2DD0C64
:10382000EE1CFF1C0150CBF761CF67CFD20EE31E19
:10383000F41E0895D21AE30AF40A0895DF92EF9273
:10384000FF920F931F93D22EE32EF42E052F162FE7
:103850006F915F914F913F912F910895C895319647
:1038600000200895FBDFD02CF9DFE02CF7DFF02CEF
:10387000F5DF002D0895F2DF202DF0DF302DEEDF93
:10388000402DECDF502D089591E0882321F088949D
:10389000991F8A95E9F7892F90950895BB270E9473
:1038A000441C9C9198279C933197F1F798279C93FF
:1038B000089580E30EF483950895040F151F261FC5
:1038C000371F0895041B150B260B370B089504179B
:1038D0001507260737070895000F111F221F331FF2
:1038E000089500951095209530950F5F1F4F2F4F2D
:1038F0003F4F0895019110810EC0019111912191C6
:1039000030810BC00191108117FF05C03FEF2FEFF1
:1039100004C0008111272227332737FF03C0E1DFCE
:103920008DE28D93CF93DF93CF92DF92EF92AA2413
:10393000BB24CC24DD24EE2440E2CAE0DD2755E0A0
:1039400093E38881890F87FD9F7083FD907F891B9A
:1039500089935A95A9F7C0DFAA1CBB1CCC1CDD1C9F
:10396000EE1C4A9551F7E894EFE0FF2782910ED0C4
:10397000EB30E0F71EF068948A2D0CD088278D93E9
:10398000EF90DF90CF90DF91CF910895982F82959F
:1039900001D0892F8F70805D26F0803309F408955F
:1039A00068948D93089500271127222733271DD06F
:1039B0008A3328F4803318F005D015D0F9CF0EF4EF
:1039C00090CF089580538F93402F512F622F732FE4
:1039D00083DF82DF72DF80DF8F919927080F191F45
:1039E000291F391F08958D910895E894FCDF8032D6
:1039F000E9F38B32D9F38930C9F38D3211F468942D
:103A0000F2CF089588278D93089594E081918D9346
:103A10009A95E1F7089581918D930A9519F088237D
:103A2000D1F70895EFCFF999FECFE1BDF2BD319600
:103A3000089591E001C092E07B3751F47FB7F8948C
:103A4000F2DF8D9180BDFA9AF99A9A95C9F77FBFF6
:103A50007727089591E001C092E0E5DFF89A80B5FC
:103A60008D939A95D1F708958FEF83959D91992322
:103A7000E1F70895689401C0E894AF93BF938D91E6
:103A800016F0919103C00E942E1C902D891718F0FA
:103A900011F48823A1F7BF91AF9108953C983D9808
:103AA0004498459808953D9A3C9803D03D9801D09C
:103AB0003C9AEF93FF93E4E0F0E00E943F1AFF91FD
:103AC000EF9108953D9A3C9AF4DF3D98359BFECFE7
:103AD000F0DF3C98EECF0894111F01C0110F69F080
:103AE0003D9A18F400003C9802C03C9A00C0E1DF07
:103AF0003D98359BFECFDDDFF1CF3D9A3C98D9DF75
:103B00003D98359BFECFE8943499689462F8D1CF04
:103B1000F0FF7F490000004353002E0020005000BA
:103B200054582000526974005258200048462053CF
:103B3000796E745F555233494C46000020766572A9
:103B40002E56335F53693533353141004946000005
:103B50004C5342005553420043574C0043575500C5
:103B600050534B00487A2000736176652049460027
:103B70002020202020202000202020202020202065
:103B80002020202000004F555420000032353030D6
:103B9000302E30303000487A0000536935333531EB
:103BA0005F00202020004F55542032353030302E19
:103BB000303030487A200000202020736176652064
:103BC00053693533353120200000536935333531A1
:103BD00020434C4B3D004F55543D56464F2B000063
:103BE0002D007361766520434C4B20536935333586
:103BF0003100414930004149313B00003F3B00006A
:103C000046410000464200005054000050543036F7
:103C10003B004D4431004D4432004D4433004D448F
:103C200039004D443700545800005258000030000D
:103C3000303030003B0046423030303037303730A3
:103C40003030303B000020202020202B303030301E
:103C5000303020303000303030303030203B000009
:103C600020205374657000005052450041545400A8
:0C3C700058464300522F5400543D5200AF
:00000001FF
