:100000000C943400189500000C94201718950000EB
:10001000189500001895000018950000189500002C
:10002000189500001895000018950000189500001C
:10003000189500000C94F71718950000189500000B
:1000400018950000189500000C947D0C1895000080
:1000500018950000189500001895000018950000EC
:1000600018950000189500008FEF8DBFC8E3E0ECF5
:100070004E2E84E08EBFD4E0F2E05F2EA89584B7C8
:10008000082E877F84BF88E1992780936000909332
:100090006000EEEFF3E0A0E0B1E088278D933197A8
:1000A000E9F78DE08093C40080E08093C50088E18B
:1000B0008093C1006624209A219A229A239A249A36
:1000C0002598389A399A3A9A3B9A52985398559A61
:1000D000569A579A0E94081A8CE00E94561AEAEF24
:1000E000F0E088E40E94561A58E0C895802D0E94DE
:1000F000501A31965A95C9F704C0202004200420D4
:100100002020EEE1F1E080E50E94561A58E0C89503
:10011000802D0E94501A31965A95C9F704C0201BB1
:100120001B1B1B1B2020E2E4F1E088E50E94561A0D
:1001300058E0C895802D0E94501A31965A95C9F7FB
:1001400004C0201F1B111B1F202087E880937A000A
:1001500080E480937C0086E08093060143981D9A9A
:100160000E94DD1D82E390E00E94DA1A5098519AB5
:1001700082E390E00E94DA1A70910901706870932E
:100180000901E4E6F0E0AAE0B1E091E00E94BC1DC4
:100190000E940608E99A80916900837F88608093B5
:1001A000690080E08093800083E0809381007091FB
:1001B0006F00716070936F007091C10070687093F0
:1001C000C100789470917A00706870937A00E0E4CE
:1001D000F0E0ADE0B1E091E00E94BC1DECE3F0E0A6
:1001E000AEE0B1E092E00E94BC1D8AE090E00E9487
:1001F000DA1A00917C00007F066000937C000E9468
:10020000121BA0E0B1E08D939C93A0E0B1E00D91B2
:100210001C91023D50E0150781E008F480E08F93C7
:10022000A0E0B1E00D911C91023251E0150781E090
:1002300010F009F080E09F918923882311F40C9439
:1002400027018AE090E00E94DA1A0E947B08009160
:100250007C00007F066000937C000E94121BA0E0DF
:10026000B1E08D939C93A0E0B1E00D911C9102331D
:1002700050E0150718F011F00C9442010E94D80FBD
:100280000E943918E0E4F0E0ADE0B1E091E00E94B6
:10029000BC1D00910D010A3018F011F00C945201B0
:1002A0000C9454010E9439180E94590408E316E581
:1002B0002CE435E0A8E1B1E00D931D932D933C9320
:1002C0000E94240286E090E0A4E0B1E08D939C932C
:1002D00081E1809306010E945A12E998E8E6F0E075
:1002E000A4E4B1E091E00E94BC1DE0E4F0E0ADE0E8
:1002F000B1E091E00E94BC1DECE3F0E0A5E4B1E0C8
:1003000092E00E94BC1DE8E4F0E0A2E8B1E094E0D5
:100310000E94BC1DE4E4F0E0ABE0B1E091E00E949B
:10032000BC1D8FEB15E00E94FC19E6E3FCE30E9484
:10033000E6198FE71AE00E94FC19E8E3FCE30E944B
:10034000E6198FE71EE00E94FC19E8E3FCE30E9437
:10035000E619E99A0E940917A9E0B1E08C9187FBA0
:1003600016F00C94B5010E947003A3E2B0E00C916A
:1003700005FB81E00EF480E08F93A9E0B1E08C9161
:1003800086FB81E00EF080E09F91892B882311F499
:100390000C94D00185E090E00E94DA1A0E94BD031F
:1003A00000917C00007F066000937C000E94121B7D
:1003B000A0E0B1E08D939C93A0E0B1E00D911C9181
:1003C000083552E0150718F011F00C94120285E080
:1003D00090E00E94DA1A00913701003011F00C947D
:1003E000F5010E94CF120C94F7010E944910009170
:1003F0007C00007F066000937C000E94121BA0E03E
:10040000B1E08D939C93A0E0B1E00D911C91043874
:1004100053E0150718F011F00C9410020C94F7013A
:100420000E94D80FA9E0B1E08C9185FB16F00C94E6
:1004300020020E943B0E709109017F7D709309019B
:100440000E94AC110C94AC0100E412E42FE030E007
:10045000ACE2B1E00D931D932D933C93A8E1B1E084
:100460000D911D912D913C914AE050E060E070E0CB
:100470000E94811AA0E2B1E04D935D936D937D934C
:1004800081E080932B0100912B01073018F011F0CF
:100490000C949702A0E2B1E00D911D912D913C9139
:1004A000ACE2B1E04D915D916D917C910E94811A19
:1004B000ACE1B1E04D935D936D937D9380911C0110
:1004C000ABE2B1E0AD90BB24A3E2B1E0AA0DBB1D4D
:1004D0008C93A0E2B1E00D911D912D913C91ACE285
:1004E000B1E04D915D916D917C910E947A1AA0E2EC
:1004F000B1E00D931D932D933D93ACE2B1E00D91CE
:100500001D912D913C914AE050E060E070E00E9426
:10051000811AACE2B1E04D935D936D937D93ABE2B4
:10052000B1E08C918F5F8C9310F40C94430240E8FF
:1005300056E968E970E0A8E1B1E00D911D912D91B7
:100540003C910E94F61C0CF402C00C94AA0280E0BC
:10055000809324018091C1008F738093C1004091EA
:10056000240100913001041711F40C94DA02009177
:100570002401003011F00C94CA028FE718E00E94A9
:10058000FC19EAE3FCE30E94E61980E08093300165
:100590000C94DA028FE718E00E94FC19A8EAB2E096
:1005A000E4E2F1E00E94181D0E94DE19809124010E
:1005B000809330014091250100913101041711F41D
:1005C0000C94F2028FE719E00E94FC19A8EAB2E04D
:1005D000E5E2F1E00E94181D0E94DE1980912501DC
:1005E000809331014091260100913201041711F4EA
:1005F0000C940A038FE71BE00E94FC19A8EAB2E002
:10060000E6E2F1E00E94181D0E94DE1980912601A9
:10061000809332014091270100913301041711F4B6
:100620000C9422038FE71CE00E94FC19A8EAB2E0B8
:10063000E7E2F1E00E94181D0E94DE198091270177
:10064000809333014091280100913401041711F483
:100650000C943A038FE71DE00E94FC19A8EAB2E06F
:10066000E8E2F1E00E94181D0E94DE198091280145
:10067000809334014091290100913501041711F450
:100680000C9452038FE71FE00E94FC19A8EAB2E025
:10069000E9E2F1E00E94181D0E94DE198091290113
:1006A0008093350140912A0100913601041711F41D
:1006B0000C946A038FE710E10E94FC19A8EAB2E0EB
:1006C000EAE2F1E00E94181D0E94DE1980912A01E1
:1006D000809336018091C100806C8093C1000895A1
:1006E000A4E1B1E04D915D916D917C91A8E1B1E003
:1006F0000D911D912D913C91041715072607370781
:1007000018F011F00C9486030C949203A0E1B1E070
:100710000D911D912D913C91A8E1B1E00D931D9398
:100720002D933C93A0E1B1E04D915D916D917C9151
:10073000A8E1B1E00D911D912D913C910417150791
:100740002607370710F00C94B103A4E1B1E00D9136
:100750001D912D913C91A8E1B1E00D931D932D9336
:100760003C93709109017F77709309010E94700496
:100770000E9490060E9424020895E998A8E1B1E041
:100780000D911D912D913C91ACE3B1E00D931D9322
:100790002D933C9300910C01023011F00C94D10385
:1007A0005D98439A00913701013011F00C94EA03EF
:1007B000A8E3B1E00D911D912D913C91A8E1B1E02C
:1007C0000D931D932D933C930E9470040E949006FC
:1007D0000E9424028FEB15E00E94FC19ECE3FCE37D
:1007E0000E94E6198FE711E00E94FC19EEE3FCE39A
:1007F0000E94E6191D990C940E0470910901706411
:10080000709309010E94AC111D9B0C94020470911D
:1008100009017F7B709309010C9417040E94AC11AD
:10082000A9E0B1E08C9186FB16F40C940E04709153
:1008300009017F7B7093090100913701013011F0AC
:100840000C943D04ACE3B1E00D911D912D913C91D0
:10085000A8E1B1E00D931D932D933C938FE711E038
:100860000E94FC19E2E4FCE30E94E6197091090180
:100870007068709309010C9445048FE711E00E94A1
:10088000FC19E6E4FCE30E94E61900910C01023039
:1008900011F00C944C045D9A73E07CBB43988FEB91
:1008A00015E00E94FC19E6E3FCE30E94E619E99AD0
:1008B00008958FE712E00E94FC19EAE4FCE30E942D
:1008C000E6198FEB11E00E94FC19EAE5FCE30E94B7
:1008D000E619E1E0F0E00E94FF190E94ED19089589
:1008E000A8E1B1E00D911D912D913C91A2E5B1E0FF
:1008F0000D931D932D933C9300914401013011F011
:100900000C949604A2E5B1E00D911D912D913C91BE
:10091000A0E4B1E04D915D916D917C910E94EC1C41
:10092000A2E5B1E00D931D932D933D9300914401F9
:10093000023011F00C94CF0400910B01033018F039
:1009400011F00C94A5040C94BB04A2E5B1E00D9148
:100950001D912D913C91A0E4B1E04D915D916D917F
:100960007C910E94F11CA2E5B1E00D931D932D93A3
:100970003D930C94CF04A2E5B1E00D911D912D9112
:100980003C91A0E4B1E04D915D916D917C910E940C
:10099000EC1CA2E5B1E00D931D932D933D930E94B5
:1009A000E1040895A0E4B1E00D911D912D913C91D9
:1009B000A2E5B1E00D931D932D933C930E94E104B9
:1009C000089500E01AEC2AE93BE3A2E5B1E04D917D
:1009D0005D916D917C910E94811AAAE5B1E04D93E1
:1009E0005D936D937D93AAE5B1E00D911D912D91DD
:1009F0003C9142E050E060E070E00E947A1AA6E587
:100A0000B1E00D931D932D933D9340E050E060E0E5
:100A100070E0A6E5B1E00D911D912D913C91041778
:100A200015072607370711F40C942805AAE5B1E04D
:100A30000D911D912D913C9141E050E060E070E0FE
:100A40000E94F11CAAE5B1E00D931D932D933D93F7
:100A5000AAE5B1E00D911D912D913C9141E050E04E
:100A600060E070E00E94E91AA6E5B1E00D931D93E5
:100A70002D933D93A6E5B1E00D911D912D913C91F3
:100A8000A2E5B1E04D915D916D917C910E94E91AD2
:100A9000A6E5B1E00D931D932D933D9380E08093E7
:100AA0005F01A6E5B1E00D911D912D913C91A2E869
:100AB000B1E04D915D916D917C910E94811AA0E60B
:100AC000B1E04D935D936D937D93E2E8F1E00E9478
:100AD000671B0E948B1B0E94BD1B2F933F934F935C
:100AE0005F93E0E6F1E00E94671B0E948B1B5F9121
:100AF0004F913F912F910E942E1CEDE0F0E0A8E66F
:100B0000B1E00E94941DE8E6F1E00E946C1BE6E56E
:100B1000F1E00E94671B0E948B1B0E94601CEDE0AD
:100B2000F0E0A8E6B1E00E94941DEEE2FCE30E9432
:100B3000CA1CE8E6F1E00E94671B0E942E1CEDE053
:100B4000F0E0A8E6B1E00E94941DE2E8F1E00E9426
:100B5000671B0E948B1B0E94BD1BE8E6F1E00E9410
:100B6000671B0E94D81BEDE0F0E0A8E6B1E00E9410
:100B7000941DE8E6F1E00E94291BA4E6B1E0EDE057
:100B8000FF270E94941D00E810E020E030E0AAE575
:100B9000B1E04D915D916D917C910E94E91AA0E7C1
:100BA000B1E00D931D932D933D93A0E7B1E00D911E
:100BB0001D912D913C9140E052E060E070E00E9478
:100BC000F11CA0E7B1E00D931D932D933D93E4E656
:100BD000F1E00E94671B0E948B1B0E94BD1BE2E399
:100BE000FCE30E94C11C0E942E1CEDE0F0E0A8E690
:100BF000B1E00E94941DEEE2FCE30E94CA1CE8E60C
:100C0000F1E00E94671B0E94D81BEDE0F0E0A8E62F
:100C1000B1E00E94941DE8E6F1E00E94291BACE6D9
:100C2000B1E0EDE0FF270E94941D00E810E020E015
:100C300030E0A0E6B1E04D915D916D917C910E9414
:100C4000E91AA4E7B1E00D931D932D933D93A4E71A
:100C5000B1E00D911D912D913C91ACE6B1E04D912B
:100C60005D916D917C910E94EC1CA4E7B1E00D9325
:100C70001D932D933D93A4E7B1E00D911D912D910E
:100C80003C9140E052E060E070E00E94F11CA4E77B
:100C9000B1E00D931D932D933D93ACE6B1E00D9122
:100CA0001D912D913C914FEF5FEF6FE070E00E943E
:100CB000E91AACE7B1E00D931D932D933D9300E845
:100CC00010E020E030E0A4E6B1E04D915D916D913F
:100CD0007C910E94E91AA8E7B1E00D931D932D9332
:100CE0003D93A8E7B1E00D911D912D913C91ACE7AA
:100CF000B1E04D915D916D917C910E94F11CA8E74E
:100D0000B1E00D931D932D933D930FEF1FEF2FE057
:100D100030E0ACE7B1E00D931D932D933C93089523
:100D200080914E01809380013FB6F894A0E8B1E035
:100D3000BA93AA93ADE7B1E0BA93AA930E94DB07F6
:100D40002496A0E8B1E08C918F5F8C933FB6F89425
:100D5000A0E8B1E0BA93AA93ACE7B1E0BA93AA9342
:100D60000E94DB072496A0E8B1E08C918F5F8C9302
:100D70003FB6F894A0E8B1E0BA93AA93A6E7B1E031
:100D8000BA93AA930E94DB072496A0E8B1E08C9165
:100D90008F5F8C933FB6F894A0E8B1E0BA93AA9322
:100DA000A5E7B1E0BA93AA930E94DB072496A0E8D6
:100DB000B1E08C918F5F8C933FB6F894A0E8B1E0DE
:100DC000BA93AA93A4E7B1E0BA93AA930E94DB076F
:100DD000249680917E0180935101A1E5B1E08C9130
:100DE00082958C930091510140917A01042BA1E5E9
:100DF000B1E00C93A0E8B1E08C918F5F8C933FB68B
:100E0000F894A0E8B1E0BA93AA93A1E5B1E0BA934F
:100E1000AA930E94DB072496A0E8B1E08C918F5F33
:100E20008C933FB6F894A0E8B1E0BA93AA93A9E7EF
:100E3000B1E0BA93AA930E94DB072496A0E8B1E040
:100E40008C918F5F8C933FB6F894A0E8B1E0BA9391
:100E5000AA93A8E7B1E0BA93AA930E94DB0724966D
:100E600080914F018093800180E0809381013FB6A3
:100E7000F894A0E8B1E0BA93AA93A1E8B1E0BA93DC
:100E8000AA930E94DB072496A0E8B1E08C918F5FC3
:100E90008C9381E0809381013FB6F894A0E8B1E0A3
:100EA000BA93AA93A1E8B1E0BA93AA930E94DB0790
:100EB000249680915F0180935101009151014091EE
:100EC0007201042BA1E5B1E00C93A0E8B1E08C9194
:100ED0008F5F8C933FB6F894A0E8B1E0BA93AA93E1
:100EE000A1E5B1E0BA93AA930E94DB072496A0E89B
:100EF000B1E08C918F5F8C933FB6F894A0E8B1E09D
:100F0000BA93AA93A1E7B1E0BA93AA930E94DB0730
:100F10002496A0E8B1E08C918F5F8C933FB6F89453
:100F2000A0E8B1E0BA93AA93A0E7B1E0BA93AA937C
:100F30000E94DB072496A0E8B1E08C918F5F8C9330
:100F400080E0809381013FB6F894A0E8B1E0BA93C5
:100F5000AA93A1E8B1E0BA93AA930E94DB07249672
:100F6000A0E8B1E08C918F5F8C9380E08093810149
:100F70003FB6F894A0E8B1E0BA93AA93A1E8B1E033
:100F8000BA93AA930E94DB072496A0E8B1E08C9163
:100F90008F5F8C9380E0809381013FB6F894A0E846
:100FA000B1E0BA93AA93A1E8B1E0BA93AA930E94E0
:100FB000DB07249608953FBE0E94E21D10EC0E94BC
:100FC000FA1DEF93FF93E3E0F0E00E94CE1AFF9149
:100FD000EF91AA81BB811C910E94FA1DEF93FF93B0
:100FE000E3E0F0E00E94CE1AFF91EF91A881B98171
:100FF0001C910E94FA1DEF93FF93E3E0F0E00E9442
:10100000CE1AFF91EF910E94F11D089587EB809316
:10101000800180EC809381013FB6F894A0E8B1E0B4
:10102000BA93AA93A1E8B1E0BA93AA930E94DB070E
:10103000249683E08093800100910A01023011F030
:101040000C9427088CEF809381010C942A088EEF72
:10105000809381013FB6F894A0E8B1E0BA93AA93D7
:10106000A1E8B1E0BA93AA930E94DB0724968FE02F
:101070008093800180E0809381013FB6F894A0E8DE
:10108000B1E0BA93AA93A1E8B1E0BA93AA930E94FF
:10109000DB07249680E1809380018FE480938101B7
:1010A0003FB6F894A0E8B1E0BA93AA93A1E8B1E002
:1010B000BA93AA930E94DB07249600910A0102309A
:1010C00011F00C94760881E1809380018FE6809383
:1010D00081013FB6F894A0E8B1E0BA93AA93A1E8E1
:1010E000B1E0BA93AA930E94DB0724968AE090E0CD
:1010F0000E94DA1A08958091C1008F738093C10015
:10110000ECE4F0E0A8E1B1E094E00E94BC1D81E0D5
:1011100090E0AEE0B1E08D939C9381E090E0A5E497
:10112000B1E08D939C9385E080930D018CE48093D6
:101130009E018FE711E00E94FC19EAE6FCE30E94A1
:10114000E6198FE714E00E94FC1900919E010C340F
:1011500011F00C94B108EEE6FCE30E94E6190C9441
:10116000D708003511F00C94BB08E2E7FCE30E94BD
:10117000E6190C94D708043511F00C94C508E6E77D
:10118000FCE30E94E6190C94D708083511F00C9482
:10119000CF08EAE7FCE30E94E6190C94D7080C3567
:1011A00011F00C94D708EEE7FCE30E94E6198FE7F4
:1011B00018E00E94FC19A8EAB2E0E8E1F1E00E9420
:1011C0000C1D0E94DE19E2E8FCE30E94E619009182
:1011D0007C00007F066000937C000E94121BA0E050
:1011E000B1E08D939C93A0E0B1E00D911C9102338E
:1011F00050E0150710F00C944209E998AEE9B1E00F
:10120000EC91FF27A8E1B1E094E07BE70E94AB1DE1
:10121000AEE9B1E08C918C5F8C93AEE9B1E0EC91DA
:10122000FF27A8E1B1E094E00E94BC1DE99A8FEB92
:1012300016E00E94FC19E6E8FCE30E94E619E2E0F1
:10124000F0E00E94FF198FEB16E00E94FC19EEE817
:10125000FCE30E94E61900919E01003611F00C9407
:1012600042090E947E090E94900A8AE090E0AEE066
:10127000B1E08D939C938091C100806C8093C100FC
:101280000C947D09A0E0B1E00D911C910E3650E068
:10129000150781E008F480E08F93A0E0B1E00D91A4
:1012A0001C91093B50E0150781E010F009F080E047
:1012B0009F918923882311F40C947B09ADE0B1E060
:1012C0008C918F5F8C9300910D01063018F011F016
:1012D0000C946C090C946F0982E080930D010E94BC
:1012E000D80F0E943E0F8FEB15E00E94FC19E6E933
:1012F000FCE30E94E6190C94A1080895E8E4F0E0EC
:10130000A2E8B1E094E00E94BC1D81E090E0AEE074
:10131000B1E08D939C9300E010E020E030E0A0E489
:10132000B1E00D931D932D933C930E94ED1982E043
:1013300080930A010E9406088FEB11E00E94FC19BD
:10134000E4EAFCE30E94E619EAEAFCE30E94E619FB
:10135000E4EBFCE30E94E619A2E8B1E00D911D91D7
:101360002D913C91A8E1B1E00D931D932D933C93F9
:101370008AE180934E018AE280934F018CE2809350
:101380005001A9E0B1E08C9187FB16F00C94030AA0
:101390008FE711E00E94FC19E8EBFCE30E94E619DC
:1013A000A8EAB2E0E8E1F1E00E940C1D0E94DE191B
:1013B000A8E1B1E00D911D912D913C91A2E8B1E021
:1013C0000D931D932D933C9300E418E72DE731E036
:1013D000A8E1B1E00D931D932D933C930E947004FE
:1013E0000E949006A2E8B1E00D911D912D913C91D3
:1013F000A8E1B1E00D931D932D933C9370910901E9
:101400007F777093090100917C00007F0660009354
:101410007C000E94121BA0E0B1E08D939C93A0E0A1
:10142000B1E00D911C910E3650E0150781E008F4F3
:1014300080E08F93A0E0B1E00D911C91093B50E05A
:10144000150781E010F009F080E09F91892388233F
:1014500011F40C94500AADE0B1E08C918F5F8C9345
:1014600000910D01063018F011F00C94390A0C941B
:101470003C0A82E080930D010E94D80F8FEB11E0AF
:101480000E94FC19E0ECFCE30E94E6190E943E0F6A
:101490008FEB11E00E94FC19E4ECFCE30E94E619DA
:1014A000A0E0B1E00D911C910C3751E0150781E0EF
:1014B00008F480E08F93A0E0B1E00D911C910C3C0A
:1014C00051E0150781E010F009F080E09F91892339
:1014D000882311F40C948D0A84E190E00E94DA1ABA
:1014E000E998E8E4F0E0A2E8B1E094E07BE70E944C
:1014F000AB1DE99A8FEB11E00E94FC19E6EDFCE3CD
:101500000E94E619E2E0F0E00E94FF190E94ED1946
:1015100081E080930D010C948F0A0C94C109089509
:101520008FE711E00E94FC19E8EEFCE30E94E61947
:101530008FEB11E00E94FC19E4EFFCE30E94E61936
:101540008FEB1AE00E94FC19EAE6FCE30E94E61920
:10155000E4E6F0E0AAE0B1E091E00E94BC1DE8E61C
:10156000F0E0A4E4B1E091E00E94BC1D8FE71CE034
:101570000E94FC19A8EAB2E0EAE0F1E00E94181D1E
:101580000E94DE198FEB19E00E94FC19AAE9B1E074
:101590000E94E01900914401013011F00C94D80A26
:1015A000AAE9B1E0EAE3FCE30E940C1B0C94DE0A1A
:1015B000AAE9B1E0EEEFFCE30E940C1B00917C0075
:1015C000007F066000937C000E94121BA0E0B1E047
:1015D0008D939C93A0E0B1E00D911C910C3751E0EC
:1015E000150781E008F480E08F93A0E0B1E00D9151
:1015F0001C910C3C51E0150781E010F009F080E0EF
:101600009F918923882311F40C94270BAAE0B1E061
:101610008C918F5F8C9300910A01023018F011F0C9
:101620000C94140B0C94170B81E080930A018FE744
:101630001CE00E94FC19A8EAB2E0EAE0F1E00E9496
:10164000181D0E94DE190E94D80F0E94D80FA0E03A
:10165000B1E00D911C910D3C51E0150781E008F4BB
:1016600080E08F93A0E0B1E00D911C910A3352E02D
:10167000150781E010F009F080E09F91892388230D
:1016800011F40C94580BA4E4B1E08C918F5F8C930F
:1016900000914401023018F011F00C94510B0C949D
:1016A000540B81E0809344010E94D80F0E94D80F10
:1016B000A0E0B1E00D911C91023D50E0150781E0E2
:1016C00008F480E08F93A0E0B1E00D911C9102320C
:1016D00051E0150781E010F009F080E09F91892327
:1016E000882311F40C94960BE4E6F0E0AAE0B1E054
:1016F00091E07BE70E94AB1DE8E6F0E0A4E4B1E0F6
:1017000091E07BE70E94AB1D8FEB11E00E94FC197A
:10171000E0E0FDE30E94E6190E940608E2E0F0E046
:101720000E94FF190E94ED190C94980B0C94B60AB4
:10173000089500919C010D3011F00C94A30B0E94B0
:10174000D40C0C945D0CA8E8B1E0E0E1FDE30E944C
:10175000C91D11F00C94B60BE4E1FDE30E94D01911
:10176000EAE1FDE30E94D0190C945D0CEAE6FCE38B
:101770000E94C91D11F00C94C10B0E94770D0C94AE
:101780005D0CEEE1FDE30E94C91D11F00C94CC0B41
:101790000E943B0D0C945D0CE2E2FDE30E94C91D2A
:1017A00011F00C94D70B0E94720D0C945D0CE6E2C4
:1017B000FDE30E94C91D11F00C94E40BEAE2FDE385
:1017C0000E94D0190C945D0CE0E3FDE30E94C91D5A
:1017D00011F00C94F50B81E080939E01709109014A
:1017E0007062709309010C945D0CE4E3FDE30E94C8
:1017F000C91D11F00C94060C82E080939E0170913B
:1018000009017062709309010C945D0CE8E3FDE33B
:101810000E94C91D11F00C94170C84E080939E0166
:10182000709109017062709309010C945D0CECE3F6
:10183000FDE30E94C91D11F00C94280C85E08093F3
:101840009E01709109017062709309010C945D0C06
:10185000E0E4FDE30E94C91D11F00C94390C83E013
:1018600080939E01709109017062709309010C943C
:101870005D0CE4E4FDE30E94C91D11F00C94470CDB
:10188000709109017064709309010C945D0CE8E497
:10189000FDE30E94C91D11F00C94550C70910901D3
:1018A0007F7B709309010C945D0CA8E8B1E00E9465
:1018B000CA19EAE1FDE30E94D019A8E8B1E088273F
:1018C0008C930E94B519082F013011F00C946A0C0A
:1018D0000E946E0C80E080939C0108950E94BB19C9
:1018E000A8E8B1E08D9388278C93A8E8B1E08C91AB
:1018F000803011F00C946E0C08950F921F922F926D
:101900003F924F925F927F92AF92BF920F931F933D
:101910002F933F934F935F936F937F938F939F93F7
:10192000AF93BF93CF93DF93EF93FF938FB78F93D3
:101930000E94BB19A7E8B1E08C938BE3482F00917C
:101940008701041711F40C94B60CA7E8B1E08C9150
:10195000A8E8B1E00E94AE198D9388278C93ACE97A
:10196000B1E08C918F5F8C930C94B80C0E94990B12
:101970008F918FBFFF91EF91DF91CF91BF91AF9189
:101980009F918F917F916F915F914F913F912F9197
:101990001F910F91BF90AF907F905F904F903F90BD
:1019A0002F901F900F901895A9E0B1E08C9186FBC5
:1019B00016F00C94DD0C0C943A0DA8E1B1E00D91F9
:1019C0001D912D913C91A6E9B1E00D931D932D93AE
:1019D0003C93A8E8B1E00E94C31DEA2FFB2F399782
:1019E0000FEFA8E8B1E00E949A1DA8E8B1E00E94BC
:1019F000621DA8E1B1E00D931D932D933D9340E846
:101A000053EC69EC71E0A8E1B1E00D911D912D91CD
:101A10003C910E94F61C80E00CF481E08F9340E63C
:101A200053EE66E170E0A8E1B1E00D911D912D91BA
:101A30003C910E94F61C80E014F009F081E09F9137
:101A40008923882311F40C942E0D7091090170687C
:101A5000709309010E94D70D0C943A0DA6E9B1E0EC
:101A60000D911D912D913C91A8E1B1E00D931D9335
:101A70002D933C9308954FE756E968E970E0A8E19B
:101A8000B1E00D911D912D913C910E94F61C1CF02E
:101A900011F00C944D0D0C94530DAAE9B1E0882778
:101AA0008C930C94590DAAE9B1E0ECE4FDE30E949B
:101AB0000C1BEEE1FDE30E94D019AAE9B1E00E94FF
:101AC000CA19EEE4FDE30E94D019A8EAB2E0E8E109
:101AD000F1E00E940C1D0E94C819E2E5FDE30E949E
:101AE000D0190895E4E5FDE30E94D019089540E07F
:101AF00050E060E070E0A8E1B1E00D911D912D9102
:101B00003C910E94F61C11F00C94870D08954FE74C
:101B100056E968E970E0A8E1B1E00D911D912D91C1
:101B20003C910E94F61C1CF011F00C94990D0C9441
:101B30009F0DAAE9B1E088278C930C94A50DAAE922
:101B4000B1E0ECE4FDE30E940C1BEAE6FCE30E943A
:101B5000D019AAE9B1E00E94CA19EEE4FDE30E949F
:101B6000D019A8EAB2E0E8E1F1E00E940C1D0E9461
:101B7000C819E4E6FDE30E94D019A9E0B1E08C9118
:101B800086FBA8EAB2E00E94E81C8D9388278C931C
:101B90000E94C819A8EAB2E0E6E8F1E00E94181D28
:101BA0000E94C819E4E7FDE30E94D0190895A4E15A
:101BB000B1E04D915D916D917C91A8E1B1E00D9105
:101BC0001D912D913C91041715072607370718F032
:101BD00011F00C94ED0D0C94EF0D0E94050EA0E198
:101BE000B1E04D915D916D917C91A8E1B1E00D91D5
:101BF0001D912D913C91041715072607370710F00A
:101C00000C94040E0E94050E08950E940A14E4E448
:101C1000F0E0ABE0B1E091E07BE70E94AB1D70919A
:101C200009017068709309010895399A389A4098AB
:101C3000ADE4B1E0119698E08E91983018F4392F08
:101C4000992702C038E09850881F419808F4419ABB
:101C500000000000409A00000000409800000000D2
:101C60003A9591F7992341F782E0E1E0F0E0A8E2AC
:101C70000E94DD1C0895E894ADE4B1E08C9184F9F4
:101C80008C93E894ADE4B1E08C9185F98C93E89461
:101C9000ADE4B1E08C9186F98C93E894ADE4B1E0C9
:101CA0008C9187F98C9300919E01013011F00C9476
:101CB0006D0E81E0809386016894ADE4B1E08C9173
:101CC00084F98C938CE480935101A0EAB1E0EEE6B4
:101CD000FCE30E940C1B0C94CB0E023011F00C9410
:101CE000850E82E0809386016894ADE4B1E08C912A
:101CF00085F98C9380E580935101A0EAB1E0E2E799
:101D0000FCE30E940C1B0C94CB0E033011F00C94DE
:101D10009D0E87E0809386016894ADE4B1E08C91DC
:101D200086F98C9384E580935101A0EAB1E0E6E75F
:101D3000FCE30E940C1B0C94CB0E043011F00C94AD
:101D4000B50E83E0809386016894ADE4B1E08C9198
:101D500086F98C9388E580935101A0EAB1E0EAE727
:101D6000FCE30E940C1B0C94CB0E053011F00C947C
:101D7000CB0E89E0809386016894ADE4B1E08C914C
:101D800087F98C938CE580935101A0EAB1E0EEE7EE
:101D9000FCE30E940C1B00914401023011F00C94F2
:101DA000FE0E00910B01033018F011F00C94DA0EC6
:101DB0000C94FE0E00919E01013011F00C94E50E82
:101DC00080E5809351010C94FE0E023011F00C94CA
:101DD000EE0E8CE4809351010C94FE0E033011F052
:101DE0000C94F70E88E5809351010C94FE0E04309C
:101DF00011F00C94FE0E84E5809351010E94150EA3
:101E0000A1E5B1E0EC91FF27A0E4B1E094E00E94ED
:101E1000BC1D00910A01023011F00C941C0F82E2EB
:101E200080934E0182E380934F0184E380935001BD
:101E30000E94D2040E9490068AE180934E018AE2B9
:101E400080934F018CE2809350010E9470040E94A5
:101E500090068FE714E00E94FC19A0EAB1E00E940E
:101E6000E019089500913701013011F00C943D0FF5
:101E700080E0809337010E940E10089500910D01BB
:101E8000013011F00C944C0F8AE090E0AEE0B1E02C
:101E90008D939C930C94860F023011F00C94580F84
:101EA00082E390E0AEE0B1E08D939C930C94860FBA
:101EB000033011F00C94640F84E690E0AEE0B1E0E2
:101EC0008D939C930C94860F043011F00C94700F3A
:101ED00088EE93E0AEE0B1E08D939C930C94860F76
:101EE000053011F00C947C0F81E090E0AEE0B1E0A1
:101EF0008D939C930C94860F063011F00C94860FF2
:101F00008AE090E0AEE0B1E08D939C938FEB14E01B
:101F10000E94FC1900910D01013011F00C94960FF4
:101F2000EEE7FDE30E94E6190C94A60FECE8FDE352
:101F30000E94E619A8EAB2E0EEE0F1E00E94091D75
:101F40000E94DE19EEE8FCE30E94E6190E94D80F19
:101F5000E0E4F0E0ADE0B1E091E07BE70E94AB1D92
:101F6000ECE3F0E0AEE0B1E092E07BE70E94AB1D75
:101F70000E94D80F8FEB15E00E94FC19E6E3FCE30A
:101F80000E94E61986E090E0A4E0B1E08D939C9376
:101F900081E1809306010E945A120E94AC11AEE0CA
:101FA000B1E08D919C91A5E4B1E08D939C9308954F
:101FB00088EC90E00E94DA1A089500910C0102303A
:101FC00011F00C94ED0F5D9A5E988FEB11E00E947A
:101FD000FC19E4E9FDE30E94E61900910C010130CF
:101FE00011F00C94FD0F5E9A5D988FEB11E00E944A
:101FF000FC19E8E9FDE30E94E61900910C010030AC
:1020000011F00C940D105E985D988FEB11E00E941A
:10201000FC19E0ECFCE30E94E619089500913701F9
:10202000013011F00C9428108FE711E00E94FC1988
:10203000E2E4FCE30E94E619A8E1B1E00D911D91F4
:102040002D913C91A8E3B1E00D931D932D933C930A
:1020500000913701003011F00C9448108FE711E027
:102060000E94FC19E6E4FCE30E94E619A8E3B1E053
:102070000D911D912D913C91A8E1B1E00D931D931F
:102080002D933C930E9470040E9490060E942402AB
:10209000089585E090E00E94DA1A00917C00007FAC
:1020A000066000937C000E94121BA0E0B1E08D93BB
:1020B0009C93A0E0B1E00D911C91083552E015070A
:1020C00018F011F00C9466100C9468100C94AB117D
:1020D000A0E0B1E00D911C910D3C51E0150781E0AD
:1020E00008F480E08F93A0E0B1E00D911C910A33D9
:1020F00052E0150781E010F009F080E09F918923FC
:10210000882311F40C94F210A8E1B1E04D915D9197
:102110006D917C91A8E3B1E00D911D912D913C91C1
:10212000A8E1B1E00D931D932D933C93A8E3B1E09A
:102130004D935D936D937D930E9470040E94900671
:102140000E9424028FE711E00E94FC19ECE9FDE3F4
:102150000E94E619A9E0B1E08C9187FB16F00C947F
:10216000B3100E94700300917C00007F0660009312
:102170007C000E94121BA0E0B1E08D939C93A0E034
:10218000B1E00D911C91083552E0150718F011F0DF
:102190000C94CC100C94AA10A8E1B1E04D915D9183
:1021A0006D917C91A8E3B1E00D911D912D913C9131
:1021B000A8E1B1E00D931D932D933C93A8E3B1E00A
:1021C0004D935D936D937D930E9470040E949006E1
:1021D0000E9424028FE711E00E94FC19E2E4FCE374
:1021E0000E94E619A0E0B1E00D911C910C3751E07E
:1021F000150781E008F480E08F93A0E0B1E00D9135
:102200001C910C3C51E0150781E010F009F080E0D2
:102210009F918923882311F40C944011A8E1B1E027
:102220004D915D916D917C91A8E3B1E00D911D916F
:102230002D913C91A8E1B1E00D931D932D933C931A
:10224000A8E3B1E04D935D936D937D930E9470047C
:102250000E9490060E9424028FE711E00E94FC1960
:10226000E0EAFDE30E94E6190E94D80F0E94D80F11
:102270008FE711E00E94FC19E2E4FCE30E94E619FA
:10228000A0E0B1E00D911C910C3251E0150781E006
:1022900008F480E08F93A0E0B1E00D911C910B3722
:1022A00051E0150781E010F009F080E09F9189234B
:1022B000882311F40C947C11A8E1B1E00D911D91DB
:1022C0002D913C91A8E3B1E00D931D932D933C9388
:1022D0008FE711E00E94FC19E4EAFDE30E94E61991
:1022E0000E94D80F0E94D80F8FE711E00E94FC19BE
:1022F000E2E4FCE30E94E619A0E0B1E00D911C913C
:10230000023D50E0150781E008F480E08F93A0E0E3
:10231000B1E00D911C91023251E0150781E010F0FF
:1023200009F080E09F918923882311F40C94AB116C
:10233000A7E3B1E08C918F5F8C930091370101305E
:1023400018F011F00C94A6110C94A91180E0809360
:1023500037010E940E100895A2E0B1E00E946A19B0
:10236000A2E0B1E00D911C91043F51E0150710F07F
:102370000C94BC110C94FB1100917C00007F076051
:1023800000937C000E94121BA2E0B1E08D939C930D
:10239000A2E0B1E00D911C9144E150E00E9494193B
:1023A000A4E0B1E04D935C93A4E0B1E00D911C91E9
:1023B0000B3050E0150718F011F00C94E1110C945B
:1023C000E7118BE090E0A4E0B1E08D939C93A4E052
:1023D000B1E00D911C9146E050E0040F151FA4E000
:1023E000B1E00D931C930E94FC1180E090E0A2E00C
:1023F000B1E08D939C930895A6E0B1E04D915527EF
:10240000A4E0B1E00D911C910417150711F00C9494
:102410000B120C942B128091C1008F738093C1001A
:10242000A6E0B1E04D915527A4E0B1E00D911C91DB
:102430000417150718F011F00C9420120C942412B4
:102440000E942C120C9426120E945A128091C100F4
:10245000806C8093C100089582E0A7E0B1E08D9385
:1024600088278C93009106010E3010F40C943E12D4
:1024700083E0A7E0B1E08D9388278C938FEB1091D8
:1024800006010E94FC19A7E0B1E00E94E019A6E055
:10249000B1E08C918F5F8C93A4E0B1E04D915C91A1
:1024A000A6E0B1E00D9111270417150711F00C9467
:1024B0002C12089581E0A7E0B1E08D9388278C93DA
:1024C000A6E0B1E08C9181508C938FEB10910601C6
:1024D0000E94FC19A7E0B1E00E94E019A4E0B1E07D
:1024E0004D915C91A6E0B1E00D91112704171507FD
:1024F00011F00C9460120895A8E4B1E0EC91FF276C
:10250000A8E1B1E094E07BE70E94AB1D0895A7E449
:10251000B1E0EC91FF27A8E1B1E094E00E94BC1D7E
:10252000089500910B0144E0049FA8E4B1E00C92EF
:1025300000910B0144E2040FAAE4B1E00C93009176
:102540000B0142E3040FACE4B1E00C93A8E4B1E06A
:10255000EC91FF27A8E1B1E094E07BE70E94AB1D7E
:10256000AAE4B1E0EC91FF27ACE0B1E091E07BE7B9
:102570000E94AB1DACE4B1E0EC91FF27AEE9B1E005
:1025800091E07BE70E94AB1D0895A9E4B1E0EC91D6
:10259000FF27ACE0B1E091E00E94BC1D089585E00A
:1025A00090E00E94DA1AA0E0B1E00D911C9108358C
:1025B00052E0150710F40C94DF120C940914E998FA
:1025C00000917C00007F066000937C000E94121B3B
:1025D000A0E0B1E08D939C93A0E0B1E00D911C913F
:1025E0000D3C51E0150781E008F480E08F93A0E0F6
:1025F000B1E00D911C910A3352E0150781E010F013
:1026000009F080E09F918923882311F40C9425130D
:102610000E94911280910B01815080930B010091D7
:102620000B01083018F011F00C9418130C941B13C4
:1026300088E080930B01E4E4F0E0ABE0B1E091E0EE
:102640007BE70E94AB1D0E940917A0E0B1E00D914D
:102650001C910C3751E0150781E008F480E08F935E
:10266000A0E0B1E00D911C910C3C51E0150781E018
:1026700010F009F080E09F918923882311F40C94D5
:102680005E130E949112ABE0B1E08C918F5F8C934E
:1026900000910B01083018F011F00C9451130C94B8
:1026A000541380E080930B01E4E4F0E0ABE0B1E090
:1026B00091E07BE70E94AB1D0E940917A0E0B1E00A
:1026C0000D911C910C3251E0150781E008F480E077
:1026D0008F93A0E0B1E00D911C910B3751E01507ED
:1026E00081E010F009F080E09F918923882311F4A4
:1026F0000C948D13ACE0B1E08C918F5F8C930091C2
:102700000C01023018F011F00C9488130C948B1308
:1027100080E080930C010E94DD0FA0E0B1E00D91FC
:102720001C91023D50E0150781E008F480E08F9392
:10273000A0E0B1E00D911C91023251E0150781E05B
:1027400010F009F080E09F918923882311F40C9404
:10275000BC13A7E3B1E08C918F5F8C93009137019C
:10276000013018F011F00C94B7130C94BA1380E0F8
:10277000809337010E940E10A0E0B1E00D911C91F2
:102780000E3650E0150781E008F480E08F93A0E05A
:10279000B1E00D911C91093B50E0150781E010F06C
:1027A00009F080E09F918923882311F40C94EB13A6
:1027B000ADE0B1E08C918F5F8C9300910D010430FE
:1027C00018F011F00C94E6130C94E91381E0809357
:1027D0000D010E943E0FA0E0B1E00D911C9102336B
:1027E00050E0150710F00C940814AEE9B1E08C919C
:1027F0008F5F8C9300919E01053018F011F00C94BE
:1028000003140C94061481E080939E010E943B0EF9
:10281000E99A0895E894ADE4B1E08C9180F98C9345
:10282000E894ADE4B1E08C9181F98C93E894ADE447
:10283000B1E08C9182F98C93E894ADE4B1E08C9195
:1028400083F98C9340E653EE66E170E0A8E1B1E0D5
:102850000D911D912D913C910E94F61C80E014F089
:1028600009F081E08F9340EA55E266E270E0A8E16A
:10287000B1E00D911D912D913C910E94F61C80E0DC
:102880000CF481E09F918923882311F40C9468143F
:1028900080E080930B0100E613EE26E130E0A0E13A
:1028A000B1E00D931D932D933C9380E080934701FD
:1028B00000EA15E226E230E0A4E1B1E00D931D93B9
:1028C0002D933C9384E28093490182E380934B01F2
:1028D00040EA55E266E270E0A8E1B1E00D911D9199
:1028E0002D913C910E94F61C80E014F009F081E0EB
:1028F0008F9340E25AEA64E470E0A8E1B1E00D9100
:102900001D912D913C910E94F61C80E00CF481E019
:102910009F918923882311F40C94B4146894ADE436
:10292000B1E08C9180F98C9381E080930B0100EAF7
:1029300015E226E230E0A0E1B1E00D931D932D9366
:102940003C9384E08093470100E21AEA24E430E0FB
:10295000A4E1B1E00D931D932D933C9385E2809308
:10296000490183E380934B0140E25AEA64E470E05A
:10297000A8E1B1E00D911D912D913C910E94F61CB2
:1029800080E014F009F081E08F9340E052E16AE7C3
:1029900070E0A8E1B1E00D911D912D913C910E9454
:1029A000F61C80E00CF481E09F918923882311F4C8
:1029B0000C9400156894ADE4B1E08C9181F98C938E
:1029C00082E080930B0100E21AEA24E430E0A0E107
:1029D000B1E00D931D932D933C9388E080934701C4
:1029E00000E012E12AE730E0A4E1B1E00D931D938D
:1029F0002D933C9386E28093490184E380934B01BD
:102A000040E052E16AE770E0A8E1B1E00D911D916C
:102A10002D913C910E94F61C80E014F009F081E0B9
:102A20008F9340E05BE167EB70E0A8E1B1E00D91CE
:102A30001D912D913C910E94F61C80E00CF481E0E8
:102A40009F918923882311F40C9452156894ADE466
:102A5000B1E08C9180F98C936894ADE4B1E08C91F5
:102A600081F98C9383E080930B0100E012E12AE767
:102A700030E0A0E1B1E00D931D932D933C938CE0E9
:102A80008093470100E01BE127EB30E0A4E1B1E0D7
:102A90000D931D932D933C9387E28093490185E329
:102AA00080934B0140E05BE167EB70E0A8E1B1E0AF
:102AB0000D911D912D913C910E94F61C80E014F027
:102AC00009F081E08F9340E054E264EF70E0A8E108
:102AD000B1E00D911D912D913C910E94F61C80E07A
:102AE0000CF481E09F918923882311F40C949E15A6
:102AF0006894ADE4B1E08C9182F98C9384E080938A
:102B00000B0100E01BE127EB30E0A0E1B1E00D9309
:102B10001D932D933C9380E18093470100E014E2E4
:102B200024EF30E0A4E1B1E00D931D932D933C938D
:102B300088E28093490186E380934B0140E054E2B0
:102B400064EF70E0A8E1B1E00D911D912D913C91F1
:102B50000E94F61C80E014F009F081E08F9340E0C1
:102B60005DE261E371E0A8E1B1E00D911D912D916D
:102B70003C910E94F61C80E00CF481E09F91892337
:102B8000882311F40C94F0156894ADE4B1E08C91B5
:102B900080F98C936894ADE4B1E08C9182F98C93C8
:102BA00085E080930B0100E014E224EF30E0A0E127
:102BB000B1E00D931D932D933C9384E180934701E5
:102BC00000E01DE221E331E0A4E1B1E00D931D93AB
:102BD0002D933C9389E28093490187E380934B01D5
:102BE00040E05DE261E371E0A8E1B1E00D911D918B
:102BF0002D913C910E94F61C80E014F009F081E0D8
:102C00008F9340E056E36EE671E0A8E1B1E00D91EC
:102C10001D912D913C910E94F61C80E00CF481E006
:102C20009F918923882311F40C9442166894ADE493
:102C3000B1E08C9181F98C936894ADE4B1E08C9112
:102C400082F98C9386E080930B0100E01DE221E382
:102C500031E0A0E1B1E00D931D932D933C9388E109
:102C60008093470100E016E32EE631E0A4E1B1E0F5
:102C70000D931D932D933C938AE28093490188E341
:102C800080934B0140E056E36EE671E0A8E1B1E0CD
:102C90000D911D912D913C910E94F61C80E014F045
:102CA00009F081E08F9340E85AEB6CE871E0A8E10D
:102CB000B1E00D911D912D913C910E94F61C80E098
:102CC0000CF481E09F918923882311F40C949A16C7
:102CD0006894ADE4B1E08C9180F98C936894ADE494
:102CE000B1E08C9181F98C936894ADE4B1E08C9162
:102CF00082F98C9387E080930B0100E016E32EE6C7
:102D000031E0A0E1B1E00D931D932D933C938CE154
:102D10008093470100E81AEB2CE831E0A4E1B1E030
:102D20000D931D932D933C938BE28093490189E38E
:102D300080934B0140E85AEB6CE871E0A8E1B1E008
:102D40000D911D912D913C910E94F61C80E014F094
:102D500009F081E08F9340E853EC69EC71E0A8E161
:102D6000B1E00D911D912D913C910E94F61C80E0E7
:102D70000CF481E09F918923882311F40C94E616CA
:102D80006894ADE4B1E08C9183F98C9388E08093F2
:102D90000B0100E81AEB2CE831E0A0E1B1E00D9363
:102DA0001D932D933C9380E28093470100E813EC40
:102DB00029EC31E0A4E1B1E00D931D932D933C93F8
:102DC0008CE2809349018AE380934B018FE711E005
:102DD0000E94FC19E6E4FCE30E94E61980E080937F
:102DE00037010E94320F0E94C5120E94DD0F0E941F
:102DF000150E8AE180934E018AE280934F018CE2A6
:102E0000809350010E9470040E9490060E94240248
:102E1000089500910B0144E0049FA7E4B1E00C92F7
:102E20000E9487120E940A14ABE4B1E0EC91FF27E4
:102E3000AEE9B1E091E00E94BC1D0E943B0E0895F6
:102E40000F921F922F923F924F925F927F92AF927A
:102E5000BF920F931F932F933F934F935F936F9363
:102E60007F938F939F93AF93BF93CF93DF93EF9312
:102E7000FF938FB78F9380918100887F809381002B
:102E8000A5E4B1E08D919C91AEE0B1E08D939C936F
:102E900000910D01013011F00C949E17A4E8B0E0F0
:102EA0000D911C91003A5FE0150710F00C945E172D
:102EB00084E190E0AEE0B1E08D939C93A4E8B0E0B3
:102EC0000D911C9100385CE0150710F00C946E1702
:102ED0008EE190E0AEE0B1E08D939C93A4E8B0E089
:102EE0000D911C910C3F58E0150710F00C947E17C3
:102EF00082E390E0AEE0B1E08D939C93A4E8B0E073
:102F00000D911C910C3D55E0150710F00C948E1797
:102F100084E690E0AEE0B1E08D939C93A4E8B0E04D
:102F20000D911C91003253E0150710F00C949E1780
:102F300084EF91E0AEE0B1E08D939C934A9B0C94BA
:102F4000B717A8E1B1E00D911D912D913C91AEE034
:102F5000B1E04D915C91662777270E94EC1CA8E1B7
:102F6000B1E00D931D932D933D930C94CB17A8E1E5
:102F7000B1E00D911D912D913C91AEE0B1E04D91EC
:102F80005C91662777270E94F11CA8E1B1E00D93C0
:102F90001D932D933D937091090170687093090101
:102FA00080E090E0909385008093840083E080939C
:102FB000810072E07CBB8F918FBFFF91EF91DF9119
:102FC000CF91BF91AF919F918F917F916F915F91C1
:102FD0004F913F912F911F910F91BF90AF907F9094
:102FE0005F904F903F902F901F900F9018950F92E9
:102FF0001F922F923F924F925F927F92AF92BF9219
:103000000F931F932F933F934F935F936F937F93F0
:103010008F939F93AF93BF93CF93DF93EF93FF93E0
:103020008FB78F9380918100887F809381008EEF8E
:103030009FEF90938500809384008F918FBFFF91C5
:10304000EF91DF91CF91BF91AF919F918F917F9140
:103050006F915F914F913F912F911F910F91BF9071
:10306000AF907F905F904F903F902F901F900F9068
:103070001895E99800EE1DEF2CE130E0A8E1B1E0F1
:103080000D931D932D933C9380E0809348010E9403
:103090007C1200ED11EB27E330E0A8E1B1E00D93E5
:1030A0001D932D933C9384E0809348010E947C12F1
:1030B00000E311EE2BE630E0A8E1B1E00D931D93A3
:1030C0002D933C9388E0809348010E947C1208EC89
:1030D0001EE72AE930E0A8E1B1E00D931D932D939E
:1030E0003C938CE0809348010E947C1200E719EE2B
:1030F00027ED30E0A8E1B1E00D931D932D933C93B3
:1031000080E1809348010E947C1200E21FE224E1EA
:1031100031E0A8E1B1E00D931D932D933C9384E140
:10312000809348010E947C1200E319EB22E431E015
:10313000A8E1B1E00D931D932D933C9388E180931A
:1031400048010E947C1200EE1DE82CE731E0A8E166
:10315000B1E00D931D932D933C938CE18093480136
:103160000E947C1200E210EE22EB31E0A8E1B1E017
:103170000D931D932D933C9380E2809348010E9410
:103180007C120AE010E020E030E0A8E1B1E00D930D
:103190001D932D933C938CE3809348010E947C12F5
:1031A00001E010E020E030E0A8E1B1E00D931D93D4
:1031B0002D933C9380E4809348010E947C1203E0AD
:1031C00010E020E030E0A8E1B1E00D931D932D93D5
:1031D0003C9384E4809348010E947C1200EC1CEF35
:1031E0002BE931E0A8E1B1E00D931D932D933C93C1
:1031F00088E4809348010E947C1208E11DE327E8DF
:1032000030E0A8E1B1E00D931D932D933C938CE445
:10321000809348010E947C1200ED18E427E830E01A
:10322000A8E1B1E00D931D932D933C9380E580932D
:1032300048010E947C1200E71FE327E830E0A8E184
:10324000B1E00D931D932D933C9384E58093480149
:103250000E947C1208E716E427E830E0A8E1B1E01C
:103260000D931D932D933C9388E5809348010E9414
:103270007C1204EF12E427E830E0A8E1B1E00D93FE
:103280001D932D933C938CE5809348010E947C1202
:1032900001E010E020E030E0A8E1B1E00D931D93E3
:1032A0002D933C9384E6809348010E947C1201E0B8
:1032B00010E020E030E0A8E1B1E00D931D932D93E4
:1032C0003C9388E6809348010E947C12E99A089515
:1032D000F894FFCFED91FC91EF5FFF4FFC93EE93DD
:1032E000089500FC10D0089503D01ED001F8F9CF46
:1032F0000024E89457FF02C009D0689400F80BD06E
:1033000010F80124089502D009D0089550954095F1
:103310004F5F5F4F0895E89417FF0895009510954B
:103320000F5F1F4F68940895352F242FE894452B85
:1033300011F468940895512F402F0027112780E140
:10334000440F551F001F111F021B130B416018F47F
:10335000020F131F4E7F8A9599F708958F938D91D1
:103360008823E9F711978F91089581E00090C000BC
:1033700007FE8827089588270090C00007FE08955B
:1033800000C08091C00087FFFCCF8091C6000895E7
:10339000A8EAB2E08D91882311F009D0FBCF0895FF
:1033A0000E94BD1C802D11F002D0FACF089500902C
:1033B000C00005FEFCCF8093C6000895A8EAB2E0E5
:1033C0008D91882311F06CD0FBCF08950E94BD1C15
:1033D000802D11F065D0FACF089581E067D015D027
:1033E00080E864C08FE7213039F08FEB223021F084
:1033F0008FE8233009F08FEC810F0C94561A88EE79
:1034000093E0D8D03197D9F7089583E09927D2C0B7
:103410008AEF90E00E94DA1A249A239A229A219A3B
:10342000209A579A5F9885E090E00E94DA1A2898CF
:103430002C982B982A9A299A289AEF93FF93EDE6D5
:10344000F2E00E94CE1AFF91EF912898B0D0289A0E
:10345000EF93FF93EDE6F2E00E94CE1AFF91EF9119
:103460002898A5D0289AEF93FF93EDE6F2E00E940A
:10347000CE1AFF91EF9128989AD02998289AEF9325
:10348000FF93EDE6F2E00E94CE1AFF91EF912898AB
:103490008ED088E20BD08EE009D086E007D0089568
:1034A0005F9A829505D004D082D008955F98F9CFB5
:1034B000859510F4299A01C02998859510F42A9AC7
:1034C00001C02A98859510F42B9A01C02B988595F8
:1034D00010F42C9A01C02C98289AEF93FF93EDE6F4
:1034E000F2E00E94CE1AFF91EF912898089500FC17
:1034F00005D0089530D005D001F8F9CF37D03FD0AE
:103500000895842F952FA62FB72FE894452B462B8F
:10351000472B11F468940895402F512F622F732F79
:103520000027112722273327F0E2440F551F661F7B
:10353000771F001F111F221F331F081B190B2A0B97
:103540003B0B416028F4080F191F2A1F3B1F4E7FB9
:10355000FA9559F708950024E89477FF02C006D041
:10356000689400F809D010F80124089512D04F5F34
:103570005F4F6F4F7F4F0895E89437FF0895009590
:103580001095209530950F5F1F4F2F4F3F4F689438
:103590000895409550956095709508953197F1F78D
:1035A0000895689462F80895E89462F8089581E0B7
:1035B00090E000C0EF93FF93EE27E82BE92B31F06A
:1035C000EAE6F8E13197F1F70197D1F7FF91EF9132
:1035D00008950F921F922F92C801D901489F800130
:1035E0004A9F90014B9F202C499F100D211D321D99
:1035F0005A9F202C589F100D211D321D599F200DC0
:10360000311D689F200D311D699F300D789F300D51
:103610002F901F900F9008950E94BD1C0D920020C6
:10362000D9F7089570917A00706470937A000090D1
:103630007A0006FCFCCF70917A00706470937A0077
:1036400000907A0006FCFCCF809178009091790080
:1036500008953DD0992711278F2D880F80E8F82AEB
:10366000802F881F08F41FEF41F08F57082F07FDA8
:1036700004C0003240F08FEF01C08827982FD82E69
:10368000E82EF82E09C08FE1801B082FF694E794EE
:10369000D79497950A95D1F7112351F09095D0942E
:1036A000E094F09481E0980F8827D81EE81EF81E59
:1036B0000F2DFE2CED2CD92E0895D094E094F0948B
:1036C00091E0D90E9927E91EF91E10950895D19021
:1036D000E190F190019108952191319141915191A1
:1036E0000895102F90E8FF0C001F0927990FF794F9
:1036F0001078652F90E8440F551F5927990F47956B
:10370000607800380895FF0C90E89027110F979586
:10371000F794092F0895102FBD2CDE2CEF2CF02EDE
:1037200011234AF4B094D094E094F0949FEFB91A26
:10373000D90AE90AF90A0EE1FF2039F4FE2CED2C32
:10374000DB2CBB240850C2F767C032F00A95BB0CD3
:10375000DD1CEE1CFF1CF9CF0E94AF1BD4CFB7FEBF
:10376000089590E8B91611F4D0FE08959FEFD91A84
:10377000E90AF90A09F403950895502F2D2D3E2DDD
:103780004F2D612F08952DEC3CEC4CEC5DE366274A
:103790000FC09DDFF2DFDD24EE2490E8F92E0FE369
:1037A00007C09ADF05C02227332740E251E466278D
:1037B000552351F1002381F194DF71F11627005850
:1037C00050580894050B18F407FD03C025C007FDE9
:1037D00023C0469537952795F694E794D79422D041
:1037E000FF202AF0DD0CEE1CFF1C015073F09D2D14
:1037F000969548F0DD203AF4EE202AF491E0D90EB7
:103800009927E91EF91E7FCF07C09FE7092FF92AE4
:103810009FEFD92EE92E0895DD24EE24FF24002702
:10382000112708959F929924AA24BB2488E1D216D7
:10383000E306F40628F0D21AE30AF40A089401C059
:103840008894991CAA1CBB1CDD0CEE1CFF1C8A95DD
:1038500071F7D92CEA2CFB2C9F90089542DFE1F2FE
:103860005038D1F21627005850580894051F12F40A
:1038700018F4CBCF08F0D0CF0BD0FF202AF0BB0C30
:10388000DD1CEE1CFF1C3FCF0F5F0BF4BECF3BCF08
:103890009F929924AA24BB24992788E1990CAA1CF9
:1038A000BB1CDD1CEE1CFF1C30F4920EA31EB41ECC
:1038B000D91EE91EF91E8A9589F79F9008950CDF9D
:1038C00010DF503829F090E869270CC00AF045D085
:1038D0001ACF5FE322273327442701C0FDDE01DF33
:1038E0005038B1F3003899F3902F951B8BF312F4F5
:1038F00034D0FACF983118F0222733274427983054
:1039000028F0232F342F44279850F9CF992329F0FA
:103910004695379527959A95D9F7912F962742F096
:1039200014D0B0F6F794E794D7940F5F8BF66DCF71
:1039300010D051F008F4C1DEFF2052F2DD0CEE1C75
:10394000FF1C0150CBF761CF67CFD20EE31EF41EF0
:103950000895D21AE30AF40A0895DF92EF92FF92D3
:103960000F931F93D22EE32EF42E052F162F6F9157
:103970005F914F913F912F910895C8953196002006
:103980000895FBDFD02CF9DFE02CF7DFF02CF5DF1A
:10399000002D0895F2DF202DF0DF302DEEDF402DD9
:1039A000ECDF502D089591E0882321F08894991F31
:1039B0008A95E9F7892F90950895BB270E94D31C1B
:1039C0009C9198279C933197F1F798279C930895A1
:1039D00080E30EF483950895040F151F261F371FEB
:1039E0000895041B150B260B370B089504171507B4
:1039F000260737070895000F111F221F331F089550
:103A000000951095209530950F5F1F4F2F4F3F4F1A
:103A10000895019110810EC0019111912191308181
:103A20000BC00191108117FF05C03FEF2FEF04C0BD
:103A3000008111272227332737FF03C0E1DF8DE202
:103A40008D93CF93DF93CF92DF92EF92AA24BB2482
:103A5000CC24DD24EE2440E2CAE0DD2755E093E3E8
:103A60008881890F87FD9F7083FD907F891B8993D3
:103A70005A95A9F7C0DFAA1CBB1CCC1CDD1CEE1C90
:103A80004A9551F7E894EFE0FF2782910ED0EB3092
:103A9000E0F71EF068948A2D0CD088278D93EF9064
:103AA000DF90CF90DF91CF910895982F829501D02C
:103AB000892F8F70805D26F0803309F40895689413
:103AC0008D93089500271127222733271DD08A338D
:103AD00028F4803318F005D015D0F9CF0EF490CF2C
:103AE000089580538F93402F512F622F732F83DFC0
:103AF00082DF72DF80DF8F919927080F191F291F3E
:103B0000391F08958D910895E894FCDF8032E9F320
:103B10008B32D9F38930C9F38D3211F46894F2CF26
:103B2000089588278D93089594E081918D939A95B7
:103B3000E1F7089581918D930A9519F08823D1F7C3
:103B40000895EFCFF999FECFE1BDF2BD319608950A
:103B500091E001C092E07B3751F47FB7F894F2DF37
:103B60008D9180BDFA9AF99A9A95C9F77FBF772708
:103B7000089591E001C092E0E5DFF89A80B58D9359
:103B80009A95D1F708958FEF83959D919923E1F749
:103B90000895689401C0E894AF93BF938D9116F097
:103BA000919103C00E94BD1C902D891718F011F44B
:103BB0008823A1F7BF91AF9108953C983D98449810
:103BC000459808953D9A3C9803D03D9801D03C9A81
:103BD000EF93FF93E9E0F0E00E94CE1AFF91EF919E
:103BE00008953D9A3C9AF4DF3D98359BFECFF0DF77
:103BF0003C98EECF0894111F01C0110F69F03D9A57
:103C000018F400003C9802C03C9A00C0E1DF3D98E7
:103C1000359BFECFDDDFF1CF3D9A3C98D9DF3D9853
:103C2000359BFECFE8943499689462F8D1CFF0FFC9
:103C30007F490000004353002E00200050005458DC
:103C40002000526974005258200048462053796E73
:103C5000745F555233494C460000207665722E56EB
:103C6000335F5369353335314100494600004C53C9
:103C700042005553420043574C00435755005053A0
:103C80004B00487A20007361766520494600202069
:103C90002020202020002020202020202020202044
:103CA000202000004F555420000032353030302E97
:103CB00030303000487A00005369353335315F00C9
:103CC000202020004F55542032353030302E3030F7
:103CD00030487A20000020202073617665205369E7
:103CE00035333531202000005369353335312043D9
:103CF0004C4B3D004F55543D56464F2B00002D0078
:103D00007361766520434C4B205369353335310060
:103D1000414930004149313B00003F3B00004641F2
:103D200000004642000050540000505430363B0022
:103D30004D4431004D4432004D4433004D44390070
:103D40004D443700545800005258000030003030C5
:103D500030003B0046423030303037303730303082
:103D6000303B000020202020202B303030303030FD
:103D700020303000303030303030203B0000202008
:103D8000205374657020696E7420200020205374C5
:103D9000657000005052450041545400584643009D
:083DA000522F5400543D520063
:00000001FF
