:100000000C9434000C9412170C94121718950000DD
:10001000189500001895000018950000189500002C
:10002000189500001895000018950000189500001C
:10003000189500001895000018950000189500000C
:1000400018950000189500000C947B0C1895000082
:1000500018950000189500001895000018950000EC
:1000600018950000189500008FEF8DBFC8E3E0ECF5
:100070004E2E84E08EBFD4E0F2E05F2EA89584B7C8
:10008000082E877F84BF88E1992780936000909332
:100090006000EEEFF3E0A0E0B1E088278D933197A8
:1000A000E9F78DE08093C40080E08093C50088E18B
:1000B0008093C1006624209A219A229A239A249A36
:1000C0002598389A399A3A9A3B9A52985398559A61
:1000D000569A579A0E94E3198CE00E94311AEAEF6F
:1000E000F0E088E40E94311A58E0C895802D0E9403
:1000F0002B1A31965A95C9F704C0202004200420F9
:100100002020EEE1F1E080E50E94311A58E0C89528
:10011000802D0E942B1A31965A95C9F704C0201BD6
:100120001B1B1B1B2020E2E4F1E088E50E94311A32
:1001300058E0C895802D0E942B1A31965A95C9F720
:1001400004C0201F1B111B1F202087E880937A000A
:1001500080E480937C0086E08093060143981D9A9A
:100160000E94B81D82E390E00E94B51A5098519AFF
:1001700082E390E00E94B51A709109017068709353
:100180000901E4E6F0E0AAE0B1E091E00E94971DE9
:100190000E940408E89AE99A809169008C7F816046
:1001A0008093690080916900837F846080936900F7
:1001B0007091C10070687093C100789470917A005A
:1001C000706870937A00E0E4F0E0ADE0B1E091E0B7
:1001D0000E94971DECE3F0E0AEE0B1E092E00E94F7
:1001E000971D8AE090E00E94B51A00917C00007F84
:1001F000066000937C000E94ED1AA0E0B1E08D93B0
:100200009C93A0E0B1E00D911C91023D50E01507D8
:1002100081E008F480E08F93A0E0B1E00D911C91A3
:10022000023251E0150781E010F009F080E09F9163
:100230008923882311F40C9423018AE090E00E9422
:10024000B51A0E94790800917C00007F0660009337
:100250007C000E94ED1AA0E0B1E08D939C93A0E099
:10026000B1E00D911C91023350E0150718F011F028
:100270000C943E010E94CA0F0E941418E0E4F0E0C2
:10028000ADE0B1E091E00E94971D00910D010A30B0
:1002900018F011F00C944E010C9450010E941418A7
:1002A0000E94570408E316E52CE435E0A8E1B1E02C
:1002B0000D931D932D933C930E94200286E090E0C5
:1002C000A4E0B1E08D939C9381E1809306010E94AC
:1002D0004C12E998E8E6F0E0A4E4B1E091E00E9475
:1002E000971DE0E4F0E0ADE0B1E091E00E94971DE1
:1002F000ECE3F0E0A5E4B1E092E00E94971DE8E4B1
:10030000F0E0A2E8B1E094E00E94971DE4E4F0E0A0
:10031000ABE0B1E091E00E94971D8FEB15E00E94E9
:10032000D719ECEEFBE30E94C1198FE71AE00E9497
:10033000D719EEEEFBE30E94C1198FE71EE00E9481
:10034000D719EEEEFBE30E94C119E99A0E94FB1651
:10035000A9E0B1E08C9187FB16F00C94B1010E94EA
:100360006C03A3E2B0E00C9105FB81E00EF480E0A9
:100370008F93A9E0B1E08C9186FB81E00EF080E0E4
:100380009F91892B882311F40C94CC0185E090E097
:100390000E94B51A0E94B90300917C00007F06609C
:1003A00000937C000E94ED1AA0E0B1E08D939C9335
:1003B000A0E0B1E00D911C91083552E0150718F04E
:1003C00011F00C940E0285E090E00E94B51A0091A5
:1003D0003701003011F00C94F1010E94C1120C940D
:1003E000F3010E943B1000917C00007F06600093A7
:1003F0007C000E94ED1AA0E0B1E08D939C93A0E0F8
:10040000B1E00D911C91043853E0150718F011F07C
:100410000C940C020C94F3010E94CA0FA9E0B1E005
:100420008C9185FB16F00C941C020E94390E709181
:1004300009017F7D709309010E949E110C94A8010F
:1004400000E412E42FE030E0ACE2B1E00D931D9344
:100450002D933C93A8E1B1E00D911D912D913C911C
:100460004AE050E060E070E00E945C1AA0E2B1E077
:100470004D935D936D937D9381E080932B0100916B
:100480002B01073018F011F00C949302A0E2B1E0B8
:100490000D911D912D913C91ACE2B1E04D915D919A
:1004A0006D917C910E945C1AACE1B1E04D935D933B
:1004B0006D937D9380911C01ABE2B1E0AD90BB24C4
:1004C000A3E2B1E0AA0DBB1D8C93A0E2B1E00D91B7
:1004D0001D912D913C91ACE2B1E04D915D916D91FA
:1004E0007C910E94551AA0E2B1E00D931D932D93CB
:1004F0003D93ACE2B1E00D911D912D913C914AE00C
:1005000050E060E070E00E945C1AACE2B1E04D9314
:100510005D936D937D93ABE2B1E08C918F5F8C9393
:1005200010F40C943F0240E856E968E970E0A8E155
:10053000B1E00D911D912D913C910E94D11C0CF4C4
:1005400002C00C94A60280E0809324018091C10037
:100550008F738093C10040912401009130010417F2
:1005600011F40C94D60200912401003011F00C9487
:10057000C6028FE718E00E94D719E0EFFBE30E9464
:10058000C11980E0809330010C94D6028FE718E007
:100590000E94D719A8EAB2E0E4E2F1E00E94F31C5D
:1005A0000E94B91980912401809330014091250166
:1005B00000913101041711F40C94EE028FE719E059
:1005C0000E94D719A8EAB2E0E5E2F1E00E94F31C2C
:1005D0000E94B91980912501809331014091260133
:1005E00000913201041711F40C9406038FE71BE00D
:1005F0000E94D719A8EAB2E0E6E2F1E00E94F31CFB
:100600000E94B919809126018093320140912701FF
:1006100000913301041711F40C941E038FE71CE0C2
:100620000E94D719A8EAB2E0E7E2F1E00E94F31CC9
:100630000E94B919809127018093330140912801CC
:1006400000913401041711F40C9436038FE71DE078
:100650000E94D719A8EAB2E0E8E2F1E00E94F31C98
:100660000E94B91980912801809334014091290199
:1006700000913501041711F40C944E038FE71FE02D
:100680000E94D719A8EAB2E0E9E2F1E00E94F31C67
:100690000E94B919809129018093350140912A0166
:1006A00000913601041711F40C9466038FE710E1F2
:1006B0000E94D719A8EAB2E0EAE2F1E00E94F31C36
:1006C0000E94B91980912A01809336018091C1005E
:1006D000806C8093C1000895A4E1B1E04D915D91DB
:1006E0006D917C91A8E1B1E00D911D912D913C910E
:1006F000041715072607370718F011F00C9482032A
:100700000C948E03A0E1B1E00D911D912D913C91CF
:10071000A8E1B1E00D931D932D933C93A0E1B1E0CE
:100720004D915D916D917C91A8E1B1E00D911D918C
:100730002D913C91041715072607370710F00C94EC
:10074000AD03A4E1B1E00D911D912D913C91A8E183
:10075000B1E00D931D932D933C93709109017F7728
:10076000709309010E946E040E948E060E9420026E
:100770000895E998E898A8E1B1E00D911D912D91B7
:100780003C91ACE3B1E00D931D932D933C9300910C
:100790000C01023011F00C94CE035D98439A009145
:1007A0003701013011F00C94E703A8E3B1E00D919B
:1007B0001D912D913C91A8E1B1E00D931D932D93D6
:1007C0003C930E946E040E948E060E9420028FEBD2
:1007D00015E00E94D719E2EFFBE30E94C1198FE7F1
:1007E00011E00E94D719E4EFFBE30E94C1191D99A3
:1007F0000C940B04709109017064709309010E94BC
:100800009E111D9B0C94FF03709109017F7B7093D7
:1008100009010C9414040E949E11A9E0B1E08C918E
:1008200086FB16F40C940B04709109017F7B709386
:10083000090100913701013011F00C943A04ACE346
:10084000B1E00D911D912D913C91A8E1B1E00D9386
:100850001D932D933C938FE711E00E94D719E8EF89
:10086000FBE30E94C119709109017068709309013E
:100870000C9442048FE711E00E94D719ECEFFBE3E0
:100880000E94C11900910C01023011F00C9449042E
:100890005D9A73E07CBB43988FEB15E00E94D719FB
:1008A000ECEEFBE30E94C119E99AE89A08958FE7FC
:1008B00012E00E94D719E0E0FCE30E94C1198FEB1F
:1008C00011E00E94D719E0E1FCE30E94C119E1E0C8
:1008D000F0E00E94DA190E94C8190895A8E1B1E079
:1008E0000D911D912D913C91A2E5B1E00D931D93C9
:1008F0002D933C9300914401013011F00C94940429
:10090000A2E5B1E00D911D912D913C91A0E4B1E0E3
:100910004D915D916D917C910E94C71CA2E5B1E063
:100920000D931D932D933D9300914401023011F0DE
:100930000C94CD0400910B01033018F011F00C94CD
:10094000A3040C94B904A2E5B1E00D911D912D9181
:100950003C91A0E4B1E04D915D916D917C910E943C
:10096000CC1CA2E5B1E00D931D932D933D930C9407
:10097000CD04A2E5B1E00D911D912D913C91A0E433
:10098000B1E04D915D916D917C910E94C71CA2E5F3
:10099000B1E00D931D932D933D930E94DF040895C4
:1009A000A0E4B1E00D911D912D913C91A2E5B1E043
:1009B0000D931D932D933C930E94DF04089500E056
:1009C0001AEC2AE93BE3A2E5B1E04D915D916D910E
:1009D0007C910E945C1AAAE5B1E04D935D936D9302
:1009E0007D93AAE5B1E00D911D912D913C9142E0DE
:1009F00050E060E070E00E94551AA6E5B1E00D936A
:100A00001D932D933D9340E050E060E070E0A6E53B
:100A1000B1E00D911D912D913C910417150726070A
:100A2000370711F40C942605AAE5B1E00D911D914C
:100A30002D913C9141E050E060E070E00E94CC1CC0
:100A4000AAE5B1E00D931D932D933D93AAE5B1E086
:100A50000D911D912D913C9141E050E060E070E0DE
:100A60000E94C41AA6E5B1E00D931D932D933D930A
:100A7000A6E5B1E00D911D912D913C91A2E5B1E06B
:100A80004D915D916D917C910E94C41AA6E5B1E0F3
:100A90000D931D932D933D9380E080935F01A6E518
:100AA000B1E00D911D912D913C91A2E8B1E04D91E5
:100AB0005D916D917C910E945C1AA0E6B1E04D932E
:100AC0005D936D937D93E2E8F1E00E94421B0E94EA
:100AD000661B0E94981B2F933F934F935F93E0E612
:100AE000F1E00E94421B0E94661B5F914F913F9173
:100AF0002F910E94091CEDE0F0E0A8E6B1E00E9411
:100B00006F1DE8E6F1E00E94471BE6E5F1E00E9478
:100B1000421B0E94661B0E943B1CEDE0F0E0A8E631
:100B2000B1E00E946F1DE4EEFBE30E94A51CE8E625
:100B3000F1E00E94421B0E94091CEDE0F0E0A8E6F3
:100B4000B1E00E946F1DE2E8F1E00E94421B0E94AA
:100B5000661B0E94981BE8E6F1E00E94421B0E947F
:100B6000B31BEDE0F0E0A8E6B1E00E946F1DE8E6FF
:100B7000F1E00E94041BA4E6B1E0EDE0FF270E9433
:100B80006F1D00E810E020E030E0AAE5B1E04D91F3
:100B90005D916D917C910E94C41AA0E7B1E00D9324
:100BA0001D932D933D93A0E7B1E00D911D912D91E3
:100BB0003C9140E052E060E070E00E94CC1CA0E775
:100BC000B1E00D931D932D933D93E4E6F1E00E9477
:100BD000421B0E94661B0E94981BE8EEFBE30E94EA
:100BE0009C1C0E94091CEDE0F0E0A8E6B1E00E9428
:100BF0006F1DE4EEFBE30E94A51CE8E6F1E00E9415
:100C0000421B0E94B31BEDE0F0E0A8E6B1E00E94B9
:100C10006F1DE8E6F1E00E94041BACE6B1E0EDE0F8
:100C2000FF270E946F1D00E810E020E030E0A0E602
:100C3000B1E04D915D916D917C910E94C41AA4E741
:100C4000B1E00D931D932D933D93A4E7B1E00D9179
:100C50001D912D913C91ACE6B1E04D915D916D916E
:100C60007C910E94C71CA4E7B1E00D931D932D93C6
:100C70003D93A4E7B1E00D911D912D913C9140E091
:100C800052E060E070E00E94CC1CA4E7B1E00D935C
:100C90001D932D933D93ACE6B1E00D911D912D91E7
:100CA0003C914FEF5FEF6FE070E00E94C41AACE739
:100CB000B1E00D931D932D933D9300E810E020E0EB
:100CC00030E0A4E6B1E04D915D916D917C910E9480
:100CD000C41AA8E7B1E00D931D932D933D93A8E7A7
:100CE000B1E00D911D912D913C91ACE7B1E04D919A
:100CF0005D916D917C910E94CC1CA8E7B1E00D93B1
:100D00001D932D933D930FEF1FEF2FE030E0ACE7E5
:100D1000B1E00D931D932D933C93089580914E0166
:100D2000809380013FB6F894A0E8B1E0BA93AA930B
:100D3000ADE7B1E0BA93AA930E94D9072496A0E840
:100D4000B1E08C918F5F8C933FB6F894A0E8B1E04E
:100D5000BA93AA93ACE7B1E0BA93AA930E94D907D9
:100D60002496A0E8B1E08C918F5F8C933FB6F89405
:100D7000A0E8B1E0BA93AA93A6E7B1E0BA93AA9328
:100D80000E94D9072496A0E8B1E08C918F5F8C93E4
:100D90003FB6F894A0E8B1E0BA93AA93A5E7B1E012
:100DA000BA93AA930E94D9072496A0E8B1E08C9147
:100DB0008F5F8C933FB6F894A0E8B1E0BA93AA9302
:100DC000A4E7B1E0BA93AA930E94D9072496809130
:100DD0007E0180935101A1E5B1E08C9182958C93C5
:100DE0000091510140917A01042BA1E5B1E00C93EF
:100DF000A0E8B1E08C918F5F8C933FB6F894A0E8A7
:100E0000B1E0BA93AA93A1E5B1E0BA93AA930E9484
:100E1000D9072496A0E8B1E08C918F5F8C933FB600
:100E2000F894A0E8B1E0BA93AA93A9E7B1E0BA9325
:100E3000AA930E94D9072496A0E8B1E08C918F5F15
:100E40008C933FB6F894A0E8B1E0BA93AA93A8E7D0
:100E5000B1E0BA93AA930E94D907249680914F01DA
:100E60008093800180E0809381013FB6F894A0E8F0
:100E7000B1E0BA93AA93A1E8B1E0BA93AA930E9411
:100E8000D9072496A0E8B1E08C918F5F8C9381E024
:100E9000809381013FB6F894A0E8B1E0BA93AA9399
:100EA000A1E8B1E0BA93AA930E94D9072496809151
:100EB0005F01809351010091510140917201042B17
:100EC000A1E5B1E00C93A0E8B1E08C918F5F8C9329
:100ED0003FB6F894A0E8B1E0BA93AA93A1E5B1E0D7
:100EE000BA93AA930E94D9072496A0E8B1E08C9106
:100EF0008F5F8C933FB6F894A0E8B1E0BA93AA93C1
:100F0000A1E7B1E0BA93AA930E94D9072496A0E87A
:100F1000B1E08C918F5F8C933FB6F894A0E8B1E07C
:100F2000BA93AA93A0E7B1E0BA93AA930E94D90713
:100F30002496A0E8B1E08C918F5F8C9380E0809341
:100F400081013FB6F894A0E8B1E0BA93AA93A1E872
:100F5000B1E0BA93AA930E94D9072496A0E8B1E021
:100F60008C918F5F8C9380E0809381013FB6F894E1
:100F7000A0E8B1E0BA93AA93A1E8B1E0BA93AA932A
:100F80000E94D9072496A0E8B1E08C918F5F8C93E2
:100F900080E0809381013FB6F894A0E8B1E0BA9375
:100FA000AA93A1E8B1E0BA93AA930E94D907249624
:100FB00008953FBE0E94BD1D10EC0E94D51DEF9309
:100FC000FF93E3E0F0E00E94A91AFF91EF91AA815C
:100FD000BB811C910E94D51DEF93FF93E3E0F0E0ED
:100FE0000E94A91AFF91EF91A881B9811C910E94DA
:100FF000D51DEF93FF93E3E0F0E00E94A91AFF9163
:10100000EF910E94CC1D089587EB8093800180ECC6
:10101000809381013FB6F894A0E8B1E0BA93AA9317
:10102000A1E8B1E0BA93AA930E94D907249683E07D
:101030008093800100910A01023011F00C94250880
:101040008CEF809381010C9428088EEF80938101AE
:101050003FB6F894A0E8B1E0BA93AA93A1E8B1E052
:10106000BA93AA930E94D90724968FE080938001B7
:1010700080E0809381013FB6F894A0E8B1E0BA9394
:10108000AA93A1E8B1E0BA93AA930E94D907249643
:1010900080E1809380018FE4809381013FB6F894D2
:1010A000A0E8B1E0BA93AA93A1E8B1E0BA93AA93F9
:1010B0000E94D907249600910A01023011F00C9485
:1010C000740881E1809380018FE6809381013FB6AF
:1010D000F894A0E8B1E0BA93AA93A1E8B1E0BA937A
:1010E000AA930E94D90724968AE090E00E94B51A3C
:1010F00008958091C1008F738093C100ECE4F0E00B
:10110000A8E1B1E094E00E94971D81E090E0AEE09C
:10111000B1E08D939C9381E090E0A5E4B1E08D93E4
:101120009C9385E080930D018CE480939E018FE772
:1011300011E00E94D719E0E2FCE30E94C1198FE799
:1011400014E00E94D71900919E010C3411F00C9408
:10115000AF08E4E2FCE30E94C1190C94D508003505
:1011600011F00C94B908E8E2FCE30E94C1190C9458
:10117000D508043511F00C94C308ECE2FCE30E949E
:10118000C1190C94D508083511F00C94CD08E0E392
:10119000FCE30E94C1190C94D5080C3511F00C9495
:1011A000D508E4E3FCE30E94C1198FE718E00E9430
:1011B000D719A8EAB2E0E8E1F1E00E94E71C0E943A
:1011C000B919E8E3FCE30E94C11900917C00007F9B
:1011D000066000937C000E94ED1AA0E0B1E08D93C0
:1011E0009C93A0E0B1E00D911C91023350E01507F3
:1011F00010F00C944009E998AEE9B1E0EC91FF27BA
:10120000A8E1B1E094E07BE70E94861DAEE9B1E081
:101210008C918C5F8C93AEE9B1E0EC91FF27A8E153
:10122000B1E094E00E94971DE99A8FEB16E00E94CE
:10123000D719ECE3FCE30E94C119E2E0F0E00E9460
:10124000DA198FEB16E00E94D719E4E4FCE30E9460
:10125000C11900919E01003611F00C9440090E94C2
:101260007C090E948E0A8AE090E0AEE0B1E08D93A6
:101270009C938091C100806C8093C1000C947B0989
:10128000A0E0B1E00D911C910E3650E0150781E011
:1012900008F480E08F93A0E0B1E00D911C91093B30
:1012A00050E0150781E010F009F080E09F9189235C
:1012B000882311F40C947909ADE0B1E08C918F5F33
:1012C0008C9300910D01063018F011F00C946A090E
:1012D0000C946D0982E080930D010E94CA0F0E9458
:1012E0003C0F8FEB15E00E94D719ECE4FCE30E9461
:1012F000C1190C949F080895E8E4F0E0A2E8B1E079
:1013000094E00E94971D81E090E0AEE0B1E08D9303
:101310009C9300E010E020E030E0A0E4B1E00D9309
:101320001D932D933C930E94C81982E080930A017B
:101330000E9404088FEB11E00E94D719EAE5FCE354
:101340000E94C119E0E6FCE30E94C119EAE6FCE351
:101350000E94C119A2E8B1E00D911D912D913C911F
:10136000A8E1B1E00D931D932D933C938AE1809306
:101370004E018AE280934F018CE280935001A9E0F4
:10138000B1E08C9187FB16F00C94010A8FE711E015
:101390000E94D719EEE6FCE30E94C119A8EAB2E068
:1013A000E8E1F1E00E94E71C0E94B919A8E1B1E070
:1013B0000D911D912D913C91A2E8B1E00D931D93EB
:1013C0002D933C9300E418E72DE731E0A8E1B1E06C
:1013D0000D931D932D933C930E946E040E948E06E4
:1013E000A2E8B1E00D911D912D913C91A8E1B1E0F1
:1013F0000D931D932D933C93709109017F7770930A
:10140000090100917C00007F066000937C000E942F
:10141000ED1AA0E0B1E08D939C93A0E0B1E00D91B6
:101420001C910E3650E0150781E008F480E08F93A0
:10143000A0E0B1E00D911C91093B50E0150781E05F
:1014400010F009F080E09F918923882311F40C9417
:101450004E0AADE0B1E08C918F5F8C9300910D014D
:10146000063018F011F00C94370A0C943A0A82E016
:1014700080930D010E94CA0F8FEB11E00E94D719D3
:10148000E6E7FCE30E94C1190E943C0F8FEB11E0DC
:101490000E94D719EAE7FCE30E94C119A0E0B1E07D
:1014A0000D911C910C3751E0150781E008F480E0A4
:1014B0008F93A0E0B1E00D911C910C3C51E0150719
:1014C00081E010F009F080E09F918923882311F4D6
:1014D0000C948B0A84E190E00E94B51AE998E8E444
:1014E000F0E0A2E8B1E094E07BE70E94861DE99A73
:1014F0008FEB11E00E94D719ECE8FCE30E94C119C0
:10150000E2E0F0E00E94DA190E94C81981E08093BD
:101510000D010C948D0A0C94BF0908958FE711E01A
:101520000E94D719EEE9FCE30E94C1198FEB11E08C
:101530000E94D719EAEAFCE30E94C1198FEB1AE076
:101540000E94D719E0E2FCE30E94C119E4E6F0E052
:10155000AAE0B1E091E00E94971DE8E6F0E0A4E483
:10156000B1E091E00E94971D8FE71CE00E94D7191F
:10157000A8EAB2E0EAE0F1E00E94F31C0E94B91987
:101580008FEB19E00E94D719AAE9B1E00E94BB19BC
:1015900000914401013011F00C94D60AAAE9B1E09F
:1015A000E0EFFBE30E94E71A0C94DC0AAAE9B1E041
:1015B000E4EBFCE30E94E71A00917C00007F0660E8
:1015C00000937C000E94ED1AA0E0B1E08D939C9303
:1015D000A0E0B1E00D911C910C3751E0150781E0BE
:1015E00008F480E08F93A0E0B1E00D911C910C3CD9
:1015F00051E0150781E010F009F080E09F91892308
:10160000882311F40C94250BAAE0B1E08C918F5F34
:101610008C9300910A01023018F011F00C94120B17
:101620000C94150B81E080930A018FE71CE00E9467
:10163000D719A8EAB2E0EAE0F1E00E94F31C0E94A8
:10164000B9190E94CA0F0E94CA0FA0E0B1E00D9123
:101650001C910D3C51E0150781E008F480E08F9368
:10166000A0E0B1E00D911C910A3352E0150781E032
:1016700010F009F080E09F918923882311F40C94E5
:10168000560BA4E4B1E08C918F5F8C9300914401E0
:10169000023018F011F00C944F0B0C94520B81E0B7
:1016A000809344010E94CA0F0E94CA0FA0E0B1E0DB
:1016B0000D911C91023D50E0150781E008F480E097
:1016C0008F93A0E0B1E00D911C91023251E015071B
:1016D00081E010F009F080E09F918923882311F4C4
:1016E0000C94940BE4E6F0E0AAE0B1E091E07BE733
:1016F0000E94861DE8E6F0E0A4E4B1E091E07BE71B
:101700000E94861D8FEB11E00E94D719E6EBFCE3E7
:101710000E94C1190E940408E2E0F0E00E94DA1978
:101720000E94C8190C94960B0C94B40A0895009169
:101730009C010D3011F00C94A10B0E94D20C0C9462
:101740005B0CA8E8B1E0E6ECFCE30E94A41D11F0FC
:101750000C94B40BEAECFCE30E94AB19E0EDFCE363
:101760000E94AB190C945B0CE0E2FCE30E94A41D08
:1017700011F00C94BF0B0E94750D0C945B0CE4ED02
:10178000FCE30E94A41D11F00C94CA0B0E94390DB9
:101790000C945B0CE8EDFCE30E94A41D11F00C948A
:1017A000D50B0E94700D0C945B0CECEDFCE30E94D9
:1017B000A41D11F00C94E20BE0EEFCE30E94AB19C7
:1017C0000C945B0CE6EEFCE30E94A41D11F00C945B
:1017D000F30B81E080939E01709109017062709318
:1017E00009010C945B0CEAEEFCE30E94A41D11F0CD
:1017F0000C94040C82E080939E0170910901706248
:10180000709309010C945B0CEEEEFCE30E94A41DA6
:1018100011F00C94150C84E080939E0170910901E5
:101820007062709309010C945B0CE2EFFCE30E9480
:10183000A41D11F00C94260C85E080939E017091FC
:1018400009017062709309010C945B0CE6EFFCE3F4
:101850000E94A41D11F00C94370C83E080939E012C
:10186000709109017062709309010C945B0CEAEFAE
:10187000FCE30E94A41D11F00C94450C7091090129
:101880007064709309010C945B0CEEEFFCE30E9412
:10189000A41D11F00C94530C709109017F7B70937F
:1018A00009010C945B0CA8E8B1E00E94A519E0EDD9
:1018B000FCE30E94AB19A8E8B1E088278C930E9452
:1018C0009019082F013011F00C94680C0E946C0CD8
:1018D00080E080939C0108950E949619A8E8B1E0E9
:1018E0008D9388278C93A8E8B1E08C91803011F01B
:1018F0000C946C0C08950F921F922F923F924F926E
:101900005F927F92AF92BF920F931F932F933F935B
:101910004F935F936F937F938F939F93AF93BF93F7
:10192000CF93DF93EF93FF938FB78F930E94961916
:10193000A7E8B1E08C938BE3482F0091870104174F
:1019400011F40C94B40CA7E8B1E08C91A8E8B1E0D4
:101950000E9489198D9388278C93ACE9B1E08C9112
:101960008F5F8C930C94B60C0E94970B8F918FBF56
:10197000FF91EF91DF91CF91BF91AF919F918F91A7
:101980007F916F915F914F913F912F911F910F9197
:10199000BF90AF907F905F904F903F902F901F909F
:1019A0000F901895A9E0B1E08C9186FB16F00C948D
:1019B000DB0C0C94380DA8E1B1E00D911D912D9137
:1019C0003C91A6E9B1E00D931D932D933C93A8E8BB
:1019D000B1E00E949E1DEA2FFB2F39970FEFA8E878
:1019E000B1E00E94751DA8E8B1E00E943D1DA8E18C
:1019F000B1E00D931D932D933D9340E853EC69ECBA
:101A000071E0A8E1B1E00D911D912D913C910E94F2
:101A1000D11C80E00CF481E08F9340E653EE66E148
:101A200070E0A8E1B1E00D911D912D913C910E94D3
:101A3000D11C80E014F009F081E09F918923882374
:101A400011F40C942C0D70910901706870930901C8
:101A50000E94D50D0C94380DA6E9B1E00D911D91B1
:101A60002D913C91A8E1B1E00D931D932D933C93F2
:101A700008954FE756E968E970E0A8E1B1E00D91FB
:101A80001D912D913C910E94D11C1CF011F00C94E1
:101A90004B0D0C94510DAAE9B1E088278C930C945E
:101AA000570DAAE9B1E0E2E0FDE30E94E71AE4ED98
:101AB000FCE30E94AB19AAE9B1E00E94A519E4E099
:101AC000FDE30E94AB19A8EAB2E0E8E1F1E00E9470
:101AD000E71C0E94A319E8E0FDE30E94AB190895FA
:101AE000EAE0FDE30E94AB19089540E050E060E0B9
:101AF00070E0A8E1B1E00D911D912D913C910E9403
:101B0000D11C11F00C94850D08954FE756E968E952
:101B100070E0A8E1B1E00D911D912D913C910E94E2
:101B2000D11C1CF011F00C94970D0C949D0DAAE99A
:101B3000B1E088278C930C94A30DAAE9B1E0E2E010
:101B4000FDE30E94E71AE0E2FCE30E94AB19AAE978
:101B5000B1E00E94A519E4E0FDE30E94AB19A8EAF8
:101B6000B2E0E8E1F1E00E94E71C0E94A319EAE17B
:101B7000FDE30E94AB19A9E0B1E08C9186FBA8EAD5
:101B8000B2E00E94C31C8D9388278C930E94A319F6
:101B9000A8EAB2E0E6E8F1E00E94F31C0E94A31973
:101BA000EAE2FDE30E94AB190895A4E1B1E04D9192
:101BB0005D916D917C91A8E1B1E00D911D912D9108
:101BC0003C91041715072607370718F011F00C94FD
:101BD000EB0D0C94ED0D0E94030EA0E1B1E04D91D0
:101BE0005D916D917C91A8E1B1E00D911D912D91D8
:101BF0003C91041715072607370710F00C94020EC6
:101C00000E94030E08950E94FC13E4E4F0E0ABE0B0
:101C1000B1E091E07BE70E94861D70910901706838
:101C2000709309010895399A389A4098ADE4B1E06B
:101C3000119698E08E91983018F4392F992702C0A8
:101C400038E09850881F419808F4419A000000003D
:101C5000409A000000004098000000003A9591F77B
:101C6000992341F782E0E1E0F0E0A8E20E94B81C8D
:101C70000895E894ADE4B1E08C9184F98C93E894F4
:101C8000ADE4B1E08C9185F98C93E894ADE4B1E0DA
:101C90008C9186F98C93E894ADE4B1E08C9187F94E
:101CA0008C9300919E01013011F00C946B0E81E039
:101CB000809386016894ADE4B1E08C9184F98C93B3
:101CC0008CE480935101A0EAB1E0E4E2FCE30E94DD
:101CD000E71A0C94C90E023011F00C94830E82E0C6
:101CE000809386016894ADE4B1E08C9185F98C9382
:101CF00080E580935101A0EAB1E0E8E2FCE30E94B4
:101D0000E71A0C94C90E033011F00C949B0E87E077
:101D1000809386016894ADE4B1E08C9186F98C9350
:101D200084E580935101A0EAB1E0ECE2FCE30E947B
:101D3000E71A0C94C90E043011F00C94B30E83E032
:101D4000809386016894ADE4B1E08C9186F98C9320
:101D500088E580935101A0EAB1E0E0E3FCE30E9452
:101D6000E71A0C94C90E053011F00C94C90E89E0E5
:101D7000809386016894ADE4B1E08C9187F98C93EF
:101D80008CE580935101A0EAB1E0E4E3FCE30E941A
:101D9000E71A00914401023011F00C94FC0E0091FE
:101DA0000B01033018F011F00C94D80E0C94FC0EBB
:101DB00000919E01013011F00C94E30E80E58093B8
:101DC00051010C94FC0E023011F00C94EC0E8CE4DA
:101DD000809351010C94FC0E033011F00C94F50E1D
:101DE00088E5809351010C94FC0E043011F00C94A2
:101DF000FC0E84E5809351010E94130EA1E5B1E031
:101E0000EC91FF27A0E4B1E094E00E94971D0091BF
:101E10000A01023011F00C941A0F82E280934E01F5
:101E200082E380934F0184E3809350010E94D004A9
:101E30000E948E068AE180934E018AE280934F01D0
:101E40008CE2809350010E946E040E948E068FE700
:101E500014E00E94D719A0EAB1E00E94BB190895CE
:101E600000913701013011F00C943B0F80E080931A
:101E700037010E940010089500910D01013011F00A
:101E80000C944A0F8AE090E0AEE0B1E08D939C9311
:101E90000C94840F023011F00C94560F82E390E002
:101EA000AEE0B1E08D939C930C94840F033011F05D
:101EB0000C94620F84E690E0AEE0B1E08D939C93C9
:101EC0000C94840F043011F00C946E0F88EE93E0A4
:101ED000AEE0B1E08D939C930C94840F053011F02B
:101EE0000C947A0F81E090E0AEE0B1E08D939C938A
:101EF0000C94840F063011F00C94840F8AE090E06B
:101F0000AEE0B1E08D939C938FEB14E00E94D71963
:101F1000E4E3FDE30E94C119A8EAB2E0EEE0F1E0DB
:101F20000E94E41C0E94B919E4E4FCE30E94C11978
:101F30000E94CA0FE0E4F0E0ADE0B1E091E07BE7A1
:101F40000E94861DECE3F0E0AEE0B1E092E07BE7BA
:101F50000E94861D0E94CA0F8FEB15E00E94D719C0
:101F6000ECEEFBE30E94C11986E090E0A4E0B1E052
:101F70008D939C9381E1809306010E944C120E94F4
:101F80009E11AEE0B1E08D919C91A5E4B1E08D93FE
:101F90009C93089588EC90E00E94B51A08950091F2
:101FA0000C01023011F00C94DF0F5D9A5E988FEBFC
:101FB00011E00E94D719ECE3FDE30E94C1190091E2
:101FC0000C01013011F00C94EF0F5E9A5D988FEBCD
:101FD00011E00E94D719E0E4FDE30E94C1190091CD
:101FE0000C01003011F00C94FF0F5E985D988FEBA0
:101FF00011E00E94D719E6E7FCE30E94C119089599
:1020000000913701013011F00C941A108FE711E0A4
:102010000E94D719E8EFFBE30E94C119A8E1B1E0E3
:102020000D911D912D913C91A8E3B1E00D931D936D
:102030002D933C9300913701003011F00C943A102D
:102040008FE711E00E94D719ECEFFBE30E94C11962
:10205000A8E3B1E00D911D912D913C91A8E1B1E073
:102060000D931D932D933C930E946E040E948E0647
:102070000E942002089585E090E00E94B51A009128
:102080007C00007F066000937C000E94ED1AA0E0B7
:10209000B1E08D939C93A0E0B1E00D911C910835C7
:1020A00052E0150718F011F00C9458100C945A10C7
:1020B0000C949D11A0E0B1E00D911C910D3C51E0FC
:1020C000150781E008F480E08F93A0E0B1E00D9166
:1020D0001C910A3352E0150781E010F009F080E00E
:1020E0009F918923882311F40C94E410A8E1B1E0B6
:1020F0004D915D916D917C91A8E3B1E00D911D91A1
:102100002D913C91A8E1B1E00D931D932D933C934B
:10211000A8E3B1E04D935D936D937D930E946E04AF
:102120000E948E060E9420028FE711E00E94D719BC
:10213000E4E4FDE30E94C119A9E0B1E08C9187FBC2
:1021400016F00C94A5100E946C0300917C00007F97
:10215000066000937C000E94ED1AA0E0B1E08D9330
:102160009C93A0E0B1E00D911C91083552E0150759
:1021700018F011F00C94BE100C949C10A8E1B1E082
:102180004D915D916D917C91A8E3B1E00D911D9110
:102190002D913C91A8E1B1E00D931D932D933C93BB
:1021A000A8E3B1E04D935D936D937D930E946E041F
:1021B0000E948E060E9420028FE711E00E94D7192C
:1021C000E8EFFBE30E94C119A0E0B1E00D911C9182
:1021D0000C3751E0150781E008F480E08F93A0E010
:1021E000B1E00D911C910C3C51E0150781E010F01D
:1021F00009F080E09F918923882311F40C94321117
:10220000A8E1B1E04D915D916D917C91A8E3B1E0C1
:102210000D911D912D913C91A8E1B1E00D931D937D
:102220002D933C93A8E3B1E04D935D936D937D9323
:102230000E946E040E948E060E9420028FE711E029
:102240000E94D719E8E4FDE30E94C1190E94CA0F59
:102250000E94CA0F8FE711E00E94D719E8EFFBE355
:102260000E94C119A0E0B1E00D911C910C3251E027
:10227000150781E008F480E08F93A0E0B1E00D91B4
:102280001C910B3751E0150781E010F009F080E058
:102290009F918923882311F40C946E11A8E1B1E079
:1022A0000D911D912D913C91A8E3B1E00D931D93EB
:1022B0002D933C938FE711E00E94D719ECE4FDE3E6
:1022C0000E94C1190E94CA0F0E94CA0F8FE711E035
:1022D0000E94D719E8EFFBE30E94C119A0E0B1E02A
:1022E0000D911C91023D50E0150781E008F480E05B
:1022F0008F93A0E0B1E00D911C91023251E01507DF
:1023000081E010F009F080E09F918923882311F487
:102310000C949D11A7E3B1E08C918F5F8C93009199
:102320003701013018F011F00C9498110C949B11A6
:1023300080E0809337010E9400100895A2E0B1E090
:102340000E944519A2E0B1E00D911C91043F51E0BB
:10235000150710F00C94AE110C94ED1100917C0057
:10236000007F076000937C000E94ED1AA2E0B1E0BC
:102370008D939C93A2E0B1E00D911C9144E150E05B
:102380000E946F19A4E0B1E04D935C93A4E0B1E02A
:102390000D911C910B3050E0150718F011F00C94C2
:1023A000D3110C94D9118BE090E0A4E0B1E08D93AF
:1023B0009C93A4E0B1E00D911C9146E050E0040F25
:1023C000151FA4E0B1E00D931C930E94EE1180E074
:1023D00090E0A2E0B1E08D939C930895A6E0B1E077
:1023E0004D915527A4E0B1E00D911C9104171507FC
:1023F00011F00C94FD110C941D128091C1008F738B
:102400008093C100A6E0B1E04D915527A4E0B1E072
:102410000D911C910417150718F011F00C9412126D
:102420000C9416120E941E120C9418120E944C1248
:102430008091C100806C8093C100089582E0A7E084
:10244000B1E08D9388278C93009106010E3010F433
:102450000C94301283E0A7E0B1E08D9388278C9331
:102460008FEB109106010E94D719A7E0B1E00E94FE
:10247000BB19A6E0B1E08C918F5F8C93A4E0B1E032
:102480004D915C91A6E0B1E00D911127041715075D
:1024900011F00C941E12089581E0A7E0B1E08D9335
:1024A00088278C93A6E0B1E08C9181508C938FEBC0
:1024B000109106010E94D719A7E0B1E00E94BB1954
:1024C000A4E0B1E04D915C91A6E0B1E00D9111273F
:1024D0000417150711F00C9452120895A8E4B1E006
:1024E000EC91FF27A8E1B1E094E07BE70E94861D14
:1024F0000895A7E4B1E0EC91FF27A8E1B1E094E0F2
:102500000E94971D089500910B0144E0049FA8E4E8
:10251000B1E00C9200910B0144E2040FAAE4B1E097
:102520000C9300910B0142E3040FACE4B1E00C9377
:10253000A8E4B1E0EC91FF27A8E1B1E094E07BE7EB
:102540000E94861DAAE4B1E0EC91FF27ACE0B1E067
:1025500091E07BE70E94861DACE4B1E0EC91FF279F
:10256000AEE9B1E091E07BE70E94861D0895A9E401
:10257000B1E0EC91FF27ACE0B1E091E00E94971D43
:10258000089585E090E00E94B51AA0E0B1E00D91B9
:102590001C91083552E0150710F40C94D1120C94DC
:1025A000FB13E99800917C00007F066000937C009B
:1025B0000E94ED1AA0E0B1E08D939C93A0E0B1E001
:1025C0000D911C910D3C51E0150781E008F480E06D
:1025D0008F93A0E0B1E00D911C910A3352E01507F2
:1025E00081E010F009F080E09F918923882311F4A5
:1025F0000C9417130E94831280910B0181508093D9
:102600000B0100910B01083018F011F00C940A1323
:102610000C940D1388E080930B01E4E4F0E0ABE050
:10262000B1E091E07BE70E94861D0E94FB16A0E0CE
:10263000B1E00D911C910C3751E0150781E008F4D1
:1026400080E08F93A0E0B1E00D911C910C3C51E033
:10265000150781E010F009F080E09F91892388231D
:1026600011F40C9450130E948312ABE0B1E08C91F2
:102670008F5F8C9300910B01083018F011F00C94CF
:1026800043130C94461380E080930B01E4E4F0E0E4
:10269000ABE0B1E091E07BE70E94861D0E94FB1653
:1026A000A0E0B1E00D911C910C3251E0150781E0E2
:1026B00008F480E08F93A0E0B1E00D911C910B37FE
:1026C00051E0150781E010F009F080E09F91892327
:1026D000882311F40C947F13ACE0B1E08C918F5FF0
:1026E0008C9300910C01023018F011F00C947A13C5
:1026F0000C947D1380E080930C010E94CF0FA0E02A
:10270000B1E00D911C91023D50E0150781E008F405
:1027100080E08F93A0E0B1E00D911C91023251E076
:10272000150781E010F009F080E09F91892388234C
:1027300011F40C94AE13A7E3B1E08C918F5F8C93EE
:1027400000913701013018F011F00C94A9130C948A
:10275000AC1380E0809337010E940010A0E0B1E04C
:102760000D911C910E3650E0150781E008F480E0D1
:102770008F93A0E0B1E00D911C91093B50E015074B
:1027800081E010F009F080E09F918923882311F403
:102790000C94DD13ADE0B1E08C918F5F8C930091D0
:1027A0000D01043018F011F00C94D8130C94DB13C5
:1027B00081E080930D010E943C0FA0E0B1E00D91FB
:1027C0001C91023350E0150710F00C94FA13AEE997
:1027D000B1E08C918F5F8C9300919E01053018F0D1
:1027E00011F00C94F5130C94F81381E080939E0182
:1027F0000E94390EE99A0895E894ADE4B1E08C9115
:1028000080F98C93E894ADE4B1E08C9181F98C93DC
:10281000E894ADE4B1E08C9182F98C93E894ADE456
:10282000B1E08C9183F98C9340E653EE66E170E061
:10283000A8E1B1E00D911D912D913C910E94D11C18
:1028400080E014F009F081E08F9340EA55E266E2FF
:1028500070E0A8E1B1E00D911D912D913C910E9495
:10286000D11C80E00CF481E09F918923882311F42E
:102870000C945A1480E080930B0100E613EE26E1DD
:1028800030E0A0E1B1E00D931D932D933C9380E0E7
:102890008093470100EA15E226E230E0A4E1B1E0CE
:1028A0000D931D932D933C9384E28093490182E321
:1028B00080934B0140EA55E266E270E0A8E1B1E0A6
:1028C0000D911D912D913C910E94D11C80E014F03E
:1028D00009F081E08F9340E25AEA64E470E0A8E1F5
:1028E000B1E00D911D912D913C910E94D11C80E091
:1028F0000CF481E09F918923882311F40C94A61491
:102900006894ADE4B1E08C9180F98C9381E0809380
:102910000B0100EA15E226E230E0A0E1B1E00D9300
:102920001D932D933C9384E08093470100E21AEAC3
:1029300024E430E0A4E1B1E00D931D932D933C938A
:1029400085E28093490183E380934B0140E25AEA98
:1029500064E470E0A8E1B1E00D911D912D913C91EE
:102960000E94D11C80E014F009F081E08F9340E0D8
:1029700052E16AE770E0A8E1B1E00D911D912D915F
:102980003C910E94D11C80E00CF481E09F9189234E
:10299000882311F40C94F2146894ADE4B1E08C91A6
:1029A00081F98C9382E080930B0100E21AEA24E41F
:1029B00030E0A0E1B1E00D931D932D933C9388E0AE
:1029C0008093470100E012E12AE730E0A4E1B1E0A2
:1029D0000D931D932D933C9386E28093490184E3EC
:1029E00080934B0140E052E16AE770E0A8E1B1E07A
:1029F0000D911D912D913C910E94D11C80E014F00D
:102A000009F081E08F9340E05BE167EB70E0A8E1C3
:102A1000B1E00D911D912D913C910E94D11C80E05F
:102A20000CF481E09F918923882311F40C944415C0
:102A30006894ADE4B1E08C9180F98C936894ADE436
:102A4000B1E08C9181F98C9383E080930B0100E0DD
:102A500012E12AE730E0A0E1B1E00D931D932D9340
:102A60003C938CE08093470100E01BE127EB30E0D2
:102A7000A4E1B1E00D931D932D933C9387E28093E5
:102A8000490185E380934B0140E05BE167EB70E037
:102A9000A8E1B1E00D911D912D913C910E94D11CB6
:102AA00080E014F009F081E08F9340E054E264EF9D
:102AB00070E0A8E1B1E00D911D912D913C910E9433
:102AC000D11C80E00CF481E09F918923882311F4CC
:102AD0000C9490156894ADE4B1E08C9182F98C93DC
:102AE00084E080930B0100E01BE127EB30E0A0E1E4
:102AF000B1E00D931D932D933C9380E180934701AA
:102B000000E014E224EF30E0A4E1B1E00D931D9366
:102B10002D933C9388E28093490186E380934B0197
:102B200040E054E264EF70E0A8E1B1E00D911D9146
:102B30002D913C910E94D11C80E014F009F081E0BD
:102B40008F9340E05DE261E371E0A8E1B1E00D91B7
:102B50001D912D913C910E94D11C80E00CF481E0EC
:102B60009F918923882311F40C94E2156894ADE4B5
:102B7000B1E08C9180F98C936894ADE4B1E08C91D4
:102B800082F98C9385E080930B0100E014E224EF3E
:102B900030E0A0E1B1E00D931D932D933C9384E1CF
:102BA0008093470100E01DE221E331E0A4E1B1E0C0
:102BB0000D931D932D933C9389E28093490187E304
:102BC00080934B0140E05DE261E371E0A8E1B1E098
:102BD0000D911D912D913C910E94D11C80E014F02B
:102BE00009F081E08F9340E056E36EE671E0A8E1E2
:102BF000B1E00D911D912D913C910E94D11C80E07E
:102C00000CF481E09F918923882311F40C943416ED
:102C10006894ADE4B1E08C9181F98C936894ADE453
:102C2000B1E08C9182F98C9386E080930B0100E0F7
:102C30001DE221E331E0A0E1B1E00D931D932D935E
:102C40003C9388E18093470100E016E32EE631E0F3
:102C5000A4E1B1E00D931D932D933C938AE2809300
:102C6000490188E380934B0140E056E36EE671E052
:102C7000A8E1B1E00D911D912D913C910E94D11CD4
:102C800080E014F009F081E08F9340E85AEB6CE8A3
:102C900071E0A8E1B1E00D911D912D913C910E9450
:102CA000D11C80E00CF481E09F918923882311F4EA
:102CB0000C948C166894ADE4B1E08C9180F98C93FF
:102CC0006894ADE4B1E08C9181F98C936894ADE4A3
:102CD000B1E08C9182F98C9387E080930B0100E046
:102CE00016E32EE631E0A0E1B1E00D931D932D93A4
:102CF0003C938CE18093470100E81AEB2CE831E02B
:102D0000A4E1B1E00D931D932D933C938BE280934E
:102D1000490189E380934B0140E85AEB6CE871E08C
:102D2000A8E1B1E00D911D912D913C910E94D11C23
:102D300080E014F009F081E08F9340E853EC69ECF7
:102D400071E0A8E1B1E00D911D912D913C910E949F
:102D5000D11C80E00CF481E09F918923882311F439
:102D60000C94D8166894ADE4B1E08C9183F98C93FF
:102D700088E080930B0100E81AEB2CE831E0A0E139
:102D8000B1E00D931D932D933C9380E28093470116
:102D900000E813EC29EC31E0A4E1B1E00D931D93C0
:102DA0002D933C938CE2809349018AE380934B01FD
:102DB0008FE711E00E94D719ECEFFBE30E94C119E5
:102DC00080E0809337010E94300F0E94B7120E946A
:102DD000CF0F0E94130E8AE180934E018AE2809306
:102DE0004F018CE2809350010E946E040E948E0677
:102DF0000E942002089500910B0144E0049FA7E483
:102E0000B1E00C920E9479120E94FC13ABE4B1E095
:102E1000EC91FF27AEE9B1E091E00E94971D0E947E
:102E2000390E08950F921F922F923F924F925F9208
:102E30007F92AF92BF920F931F932F933F934F9325
:102E40005F936F937F938F939F93AF93BF93CF9332
:102E5000DF93EF93FF938FB78F93A9E2B0E08C914C
:102E600083FB882780F9082F42E0049FA4EAB1E0A1
:102E70000C920091A401A9E2B0E08C9182FB88271A
:102E800080F9482F040FA4EAB1E00C930091A5014A
:102E900044E0049FA6EAB1E00C920091A6014091A3
:102EA000A401040FA6EAB1E00C93A6EAB1E08C916C
:102EB0008F5F8C930091A601023011F00C9467177C
:102EC000709109017061709309010C94B21703307D
:102ED00011F00C947217709109017F7E70930901B3
:102EE0000C94B217053011F00C947D177091090104
:102EF0007F7E709309010C94B217083011F00C9486
:102F00008817709109017061709309010C94B217D0
:102F1000093011F00C94931770910901706170934E
:102F200009010C94B2170C3011F00C949E1770919B
:102F300009017F7E709309010C94B2170E3011F0D5
:102F40000C94A917709109017F7E709309010C946C
:102F5000B2170F3011F00C94B21770910901706123
:102F6000709309018091A4018093A501A9E0B1E0CB
:102F70008C9184FB16F40C94D117A8E1B1E00D916B
:102F80001D912D913C91AEE0B1E04D915C91662791
:102F900077270E94C71CA8E1B1E00D931D932D93E4
:102FA0003D9370910901706870930901A9E0B1E047
:102FB0008C9184FB16F00C94F117A8E1B1E00D910F
:102FC0001D912D913C91AEE0B1E04D915C91662751
:102FD00077270E94CC1CA8E1B1E00D931D932D939F
:102FE0003D937091090170687093090173E07CBB97
:102FF0008F918FBFFF91EF91DF91CF91BF91AF91F3
:103000009F918F917F916F915F914F913F912F9100
:103010001F910F91BF90AF907F905F904F903F9026
:103020002F901F900F901895E99800EE1DEF2CE15E
:1030300030E0A8E1B1E00D931D932D933C9380E027
:10304000809348010E946E1200ED11EB27E330E0FF
:10305000A8E1B1E00D931D932D933C9384E0809300
:1030600048010E946E1200E311EE2BE630E0A8E169
:10307000B1E00D931D932D933C9388E0809348011C
:103080000E946E1208EC1EE72AE930E0A8E1B1E0E8
:103090000D931D932D933C938CE0809348010E94E7
:1030A0006E1200E719EE27ED30E0A8E1B1E00D93D4
:1030B0001D932D933C9380E1809348010E946E12F2
:1030C00000E21FE224E131E0A8E1B1E00D931D939D
:1030D0002D933C9384E1809348010E946E1200E39B
:1030E00019EB22E431E0A8E1B1E00D931D932D939B
:1030F0003C9388E1809348010E946E1200EE1DE827
:103100002CE731E0A8E1B1E00D931D932D933C93A2
:103110008CE1809348010E946E1200E210EE22EBD7
:1031200031E0A8E1B1E00D931D932D933C9380E233
:10313000809348010E946E120AE010E020E030E027
:10314000A8E1B1E00D931D932D933C938CE3809304
:1031500048010E946E1201E010E020E030E0A8E19A
:10316000B1E00D931D932D933C9380E4809348012F
:103170000E946E1203E010E020E030E0A8E1B1E030
:103180000D931D932D933C9384E4809348010E94FA
:103190006E1200EC1CEF2BE931E0A8E1B1E00D93D9
:1031A0001D932D933C9388E4809348010E946E12F6
:1031B00008E11DE327E830E0A8E1B1E00D931D939D
:1031C0002D933C938CE4809348010E946E1200ED95
:1031D00018E427E830E0A8E1B1E00D931D932D93AA
:1031E0003C9380E5809348010E946E1200E71FE344
:1031F00027E830E0A8E1B1E00D931D932D933C93B7
:1032000084E5809348010E946E1208E716E427E8DF
:1032100030E0A8E1B1E00D931D932D933C9388E538
:10322000809348010E946E1204EF12E427E830E018
:10323000A8E1B1E00D931D932D933C938CE5809311
:1032400048010E946E1201E010E020E030E0A8E1A9
:10325000B1E00D931D932D933C9384E68093480138
:103260000E946E1201E010E020E030E0A8E1B1E041
:103270000D931D932D933C9388E6809348010E9403
:103280006E12E99A0895F894FFCFED91FC91EF5FEB
:10329000FF4FFC93EE93089500FC10D0089503D0E7
:1032A0001ED001F8F9CF0024E89457FF02C009D0DE
:1032B000689400F80BD010F80124089502D009D0CA
:1032C0000895509540954F5F5F4F0895E89417FF1C
:1032D0000895009510950F5F1F4F68940895352F3E
:1032E000242FE894452B11F468940895512F402F12
:1032F0000027112780E1440F551F001F111F021BDB
:10330000130B416018F4020F131F4E7F8A9599F733
:1033100008958F938D918823E9F711978F910895E0
:1033200081E00090C00007FE88270895882700905C
:10333000C00007FE089500C08091C00087FFFCCF49
:103340008091C6000895A8EAB2E08D91882311F01B
:1033500009D0FBCF08950E94981C802D11F002D057
:10336000FACF08950090C00005FEFCCF8093C60000
:103370000895A8EAB2E08D91882311F06CD0FBCFBC
:1033800008950E94981C802D11F065D0FACF089501
:1033900081E067D015D080E864C08FE7213039F034
:1033A0008FEB223021F08FE8233009F08FEC810F72
:1033B0000C94311A88EE93E0D8D03197D9F708955C
:1033C00083E09927D2C08AEF90E00E94B51A249A30
:1033D000239A229A219A209A579A5F9885E090E042
:1033E0000E94B51A28982C982B982A9A299A289ADC
:1033F000EF93FF93EDE6F2E00E94A91AFF91EF919F
:103400002898B0D0289AEF93FF93EDE6F2E00E945F
:10341000A91AFF91EF912898A5D0289AEF93FF93CE
:10342000EDE6F2E00E94A91AFF91EF9128989AD058
:103430002998289AEF93FF93EDE6F2E00E94A91AEB
:10344000FF91EF9128988ED088E20BD08EE009D0C2
:1034500086E007D008955F9A829505D004D082D087
:1034600008955F98F9CF859510F4299A01C029989D
:10347000859510F42A9A01C02A98859510F42B9A04
:1034800001C02B98859510F42C9A01C02C98289A8D
:10349000EF93FF93EDE6F2E00E94A91AFF91EF91FE
:1034A0002898089500FC05D0089530D005D001F883
:1034B000F9CF37D03FD00895842F952FA62FB72F5F
:1034C000E894452B462B472B11F468940895402F20
:1034D000512F622F732F0027112722273327F0E265
:1034E000440F551F661F771F001F111F221F331F18
:1034F000081B190B2A0B3B0B416028F4080F191FFE
:103500002A1F3B1F4E7FFA9559F708950024E8942F
:1035100077FF02C006D0689400F809D010F80124A3
:10352000089512D04F5F5F4F6F4F7F4F0895E8941B
:1035300037FF089500951095209530950F5F1F4F28
:103540002F4F3F4F68940895409550956095709522
:1035500008953197F1F70895689462F80895E89412
:1035600062F8089581E090E000C0EF93FF93EE27AA
:10357000E82BE92B31F0EAE6F8E13197F1F7019712
:10358000D1F7FF91EF9108950F921F922F92C801EA
:10359000D901489F80014A9F90014B9F202C499F51
:1035A000100D211D321D5A9F202C589F100D211DDA
:1035B000321D599F200D311D689F200D311D699FBF
:1035C000300D789F300D2F901F900F9008950E941E
:1035D000981C0D920020D9F7089570917A007064BC
:1035E00070937A0000907A0006FCFCCF70917A000C
:1035F000706470937A0000907A0006FCFCCF809192
:1036000078009091790008953DD0992711278F2D4A
:10361000880F80E8F82A802F881F08F41FEF41F0F8
:103620008F57082F07FD04C0003240F08FEF01C014
:103630008827982FD82EE82EF82E09C08FE1801BFE
:10364000082FF694E794D79497950A95D1F711230C
:1036500051F09095D094E094F09481E0980F8827F1
:10366000D81EE81EF81E0F2DFE2CED2CD92E089525
:10367000D094E094F09491E0D90E9927E91EF91EB8
:1036800010950895D190E190F190019108952191C4
:103690003191419151910895102F90E8FF0C001F36
:1036A0000927990FF7941078652F90E8440F551F5C
:1036B0005927990F4795607800380895FF0C90E8D6
:1036C0009027110F9795F794092F0895102FBD2C6F
:1036D000DE2CEF2CF02E11234AF4B094D094E09419
:1036E000F0949FEFB91AD90AE90AF90A0EE1FF200E
:1036F00039F4FE2CED2CDB2CBB240850C2F767C03C
:1037000032F00A95BB0CDD1CEE1CFF1CF9CF0E94A9
:103710008A1BD4CFB7FE089590E8B91611F4D0FEF5
:1037200008959FEFD91AE90AF90A09F40395089553
:10373000502F2D2D3E2D4F2D612F08952DEC3CEC5B
:103740004CEC5DE366270FC09DDFF2DFDD24EE2445
:1037500090E8F92E0FE307C09ADF05C02227332730
:1037600040E251E46627552351F1002381F194DFB3
:1037700071F11627005850580894050B18F407FDEE
:1037800003C025C007FD23C0469537952795F694BD
:10379000E794D79422D0FF202AF0DD0CEE1CFF1C0A
:1037A000015073F09D2D969548F0DD203AF4EE20FF
:1037B0002AF491E0D90E9927E91EF91E7FCF07C0A0
:1037C0009FE7092FF92A9FEFD92EE92E0895DD24CE
:1037D000EE24FF240027112708959F929924AA24FC
:1037E000BB2488E1D216E306F40628F0D21AE30AD5
:1037F000F40A089401C08894991CAA1CBB1CDD0C17
:10380000EE1CFF1C8A9571F7D92CEA2CFB2C9F909B
:10381000089542DFE1F25038D1F21627005850588F
:103820000894051F12F418F4CBCF08F0D0CF0BD0BA
:10383000FF202AF0BB0CDD1CEE1CFF1C3FCF0F5FEE
:103840000BF4BECF3BCF9F929924AA24BB24992787
:1038500088E1990CAA1CBB1CDD1CEE1CFF1C30F47B
:10386000920EA31EB41ED91EE91EF91E8A9589F771
:103870009F9008950CDF10DF503829F090E86927F9
:103880000CC00AF045D01ACF5FE322273327442724
:1038900001C0FDDE01DF5038B1F3003899F3902FFD
:1038A000951B8BF312F434D0FACF983118F02227FD
:1038B00033274427983028F0232F342F442798505B
:1038C000F9CF992329F04695379527959A95D9F7F9
:1038D000912F962742F014D0B0F6F794E794D7943E
:1038E0000F5F8BF66DCF10D051F008F4C1DEFF20D2
:1038F00052F2DD0CEE1CFF1C0150CBF761CF67CFFD
:10390000D20EE31EF41E0895D21AE30AF40A0895B3
:10391000DF92EF92FF920F931F93D22EE32EF42E9D
:10392000052F162F6F915F914F913F912F91089521
:10393000C895319600200895FBDFD02CF9DFE02CEC
:10394000F7DFF02CF5DF002D0895F2DF202DF0DFFA
:10395000302DEEDF402DECDF502D089591E08823CF
:1039600021F08894991F8A95E9F7892F90950895F9
:10397000BB270E94AE1C9C9198279C933197F1F72E
:1039800098279C93089580E30EF483950895040F7F
:10399000151F261F371F0895041B150B260B370B09
:1039A000089504171507260737070895000F111FFC
:1039B000221F331F089500951095209530950F5FB5
:1039C0001F4F2F4F3F4F0895019110810EC001915D
:1039D0001191219130810BC00191108117FF05C019
:1039E0003FEF2FEF04C0008111272227332737FF35
:1039F00003C0E1DF8DE28D93CF93DF93CF92DF920F
:103A0000EF92AA24BB24CC24DD24EE2440E2CAE0B9
:103A1000DD2755E093E38881890F87FD9F7083FD43
:103A2000907F891B89935A95A9F7C0DFAA1CBB1CFC
:103A3000CC1CDD1CEE1C4A9551F7E894EFE0FF2703
:103A400082910ED0EB30E0F71EF068948A2D0CD0F6
:103A500088278D93EF90DF90CF90DF91CF910895DD
:103A6000982F829501D0892F8F70805D26F080334A
:103A700009F4089568948D9308950027112722274B
:103A800033271DD08A3328F4803318F005D015D0A1
:103A9000F9CF0EF490CF089580538F93402F512F7C
:103AA000622F732F83DF82DF72DF80DF8F91992790
:103AB000080F191F291F391F08958D910895E89443
:103AC000FCDF8032E9F38B32D9F38930C9F38D32D0
:103AD00011F46894F2CF089588278D93089594E0A7
:103AE00081918D939A95E1F7089581918D930A952F
:103AF00019F08823D1F70895EFCFF999FECFE1BDF2
:103B0000F2BD3196089591E001C092E07B3751F407
:103B10007FB7F894F2DF8D9180BDFA9AF99A9A9561
:103B2000C9F77FBF7727089591E001C092E0E5DFF4
:103B3000F89A80B58D939A95D1F708958FEF839574
:103B40009D919923E1F70895689401C0E894AF939B
:103B5000BF938D9116F0919103C00E94981C902DF7
:103B6000891718F011F48823A1F7BF91AF91089538
:103B70003C983D984498459808953D9A3C9803D0C8
:103B80003D9801D03C9AEF93FF93E9E0F0E00E946A
:103B9000A91AFF91EF9108953D9A3C9AF4DF3D9860
:103BA000359BFECFF0DF3C98EECF0894111F01C08B
:103BB000110F69F03D9A18F400003C9802C03C9A3D
:103BC00000C0E1DF3D98359BFECFDDDFF1CF3D9AB0
:103BD0003C98D9DF3D98359BFECFE89434996894A2
:103BE00062F8D1CFF0FF7F490000004353002E0060
:103BF0002000500054582000526974005258200090
:103C000048462053796E745F555233494C46000044
:103C1000207665722E56335F536935333531410056
:103C2000494600004C5342005553420043574C0054
:103C30004357550050534B00487A20007361766516
:103C40002049460020202020202020002020202065
:103C5000202020202020202000004F55542000004C
:103C600032353030302E30303000487A0000536921
:103C7000353335315F00202020004F555420323538
:103C80003030302E303030487A2000002020207331
:103C90006176652053693533353120200000536942
:103CA0003533353120434C4B3D004F55543D56463E
:103CB0004F2B00002D007361766520434C4B205341
:103CC000693533353100414930004149313B00000D
:103CD0003F3B0000464100004642000050540000B7
:103CE000505430363B004D4431004D4432004D4479
:103CF00033004D4439004D443700545800005258A9
:103D000000003000303030003B0046423030303070
:103D1000373037303030303B000020202020202B3F
:103D200030303030303020303000303030303030D3
:103D3000203B000020205374657000005052450065
:103D40004154540058464300522F5400543D5200F1
:00000001FF
