:100000000C943400189500000C94171718950000F4
:10001000189500001895000018950000189500002C
:10002000189500001895000018950000189500001C
:10003000189500000C94EE17189500001895000014
:1000400018950000189500000C94740C1895000089
:1000500018950000189500001895000018950000EC
:1000600018950000189500008FEF8DBFC8E3E0ECF5
:100070004E2E88E08EBFD8E0F6E05F2EA89584B7BC
:10008000082E877F84BF88E1992780936000909332
:100090006000EEEFF7E0A0E0B1E088278D933197A4
:1000A000E9F788E08093C40080E08093C50088E190
:1000B0008093C1006624209A219A229A239A249A36
:1000C0002598389A399A3A9A3B9A52985398559A61
:1000D000569A579A0E94FF198CE00E944D1AEAEF37
:1000E000F0E088E40E944D1A58E0C895802D0E94E7
:1000F000471A31965A95C9F704C0202004200420DD
:100100002020EEE1F1E080E50E944D1A58E0C8950C
:10011000802D0E94471A31965A95C9F704C0201BBA
:100120001B1B1B1B2020E2E4F1E088E50E944D1A16
:1001300058E0C895802D0E94471A31965A95C9F704
:1001400004C0201F1B111B1F202087E880937A000A
:1001500080E480937C0086E08093060143981D9A9A
:100160000E94D41D82E390E00E94D11A5098519AC7
:1001700082E390E00E94D11A709109017068709337
:100180000901E4E6F0E0AAE0B1E091E00E94B31DCD
:100190000E94FD07E99A80916900837F88608093BF
:1001A000690080E08093800083E0809381007091FB
:1001B0006F00716070936F007091C10070687093F0
:1001C000C100789470917A00706870937A00E0E4CE
:1001D000F0E0ADE0B1E091E00E94B31DECE3F0E0AF
:1001E000AEE0B1E092E00E94B31D8AE090E00E9490
:1001F000D11A00917C00007F066000937C000E9471
:10020000091BA0E0B1E08D939C93A0E0B1E00D91BB
:100210001C91023D50E0150781E008F480E08F93C7
:10022000A0E0B1E00D911C91023251E0150781E090
:1002300010F009F080E09F918923882311F40C9439
:1002400027018AE090E00E94D11A0E947208009172
:100250007C00007F066000937C000E94091BA0E0E8
:10026000B1E08D939C93A0E0B1E00D911C9102331D
:1002700050E0150718F011F00C9442010E94CF0FC6
:100280000E943018E0E4F0E0ADE0B1E091E00E94BF
:10029000B31D00910D010A3018F011F00C945201B9
:1002A0000C9454010E9430180E94590408E316E58A
:1002B0002CE435E0A8E1B1E00D931D932D933C9320
:1002C0000E94240286E090E0A4E0B1E08D939C932C
:1002D00081E1809306010E945112E998E8E6F0E07E
:1002E000A4E4B1E091E00E94B31DE0E4F0E0ADE0F1
:1002F000B1E091E00E94B31DECE3F0E0A5E4B1E0D1
:1003000092E00E94B31DE8E4F0E0A2E8B1E094E0DE
:100310000E94B31DE4E4F0E0ABE0B1E091E00E94A4
:10032000B31D8FEB15E00E94F319E4E2FCE30E9499
:10033000DD198FE71AE00E94F319E6E2FCE30E9460
:10034000DD198FE71EE00E94F319E6E2FCE30E944C
:10035000DD19E99A0E940017A9E0B1E08C9187FBB2
:1003600016F00C94B5010E947003A3E2B0E00C916A
:1003700005FB81E00EF480E08F93A9E0B1E08C9161
:1003800086FB81E00EF080E09F91892B882311F499
:100390000C94D00185E090E00E94D11A0E94BD0328
:1003A00000917C00007F066000937C000E94091B86
:1003B000A0E0B1E08D939C93A0E0B1E00D911C9181
:1003C000083552E0150718F011F00C94120285E080
:1003D00090E00E94D11A00913701003011F00C9486
:1003E000F5010E94C6120C94F7010E944010009182
:1003F0007C00007F066000937C000E94091BA0E047
:10040000B1E08D939C93A0E0B1E00D911C91043874
:1004100053E0150718F011F00C9410020C94F7013A
:100420000E94CF0FA9E0B1E08C9185FB16F00C94EF
:1004300020020E94320E709109017F7D70930901A4
:100440000E94A3110C94AC0100E412E42FE030E010
:10045000ACE2B1E00D931D932D933C93A8E1B1E084
:100460000D911D912D913C914AE050E060E070E0CB
:100470000E94781AA0E2B1E04D935D936D937D9355
:1004800081E080932B0100912B01073018F011F0CF
:100490000C949702A0E2B1E00D911D912D913C9139
:1004A000ACE2B1E04D915D916D917C910E94781A22
:1004B000ACE1B1E04D935D936D937D9380911C0110
:1004C000ABE2B1E0AD90BB24A3E2B1E0AA0DBB1D4D
:1004D0008C93A0E2B1E00D911D912D913C91ACE285
:1004E000B1E04D915D916D917C910E94711AA0E2F5
:1004F000B1E00D931D932D933D93ACE2B1E00D91CE
:100500001D912D913C914AE050E060E070E00E9426
:10051000781AACE2B1E04D935D936D937D93ABE2BD
:10052000B1E08C918F5F8C9310F40C94430240E8FF
:1005300056E968E970E0A8E1B1E00D911D912D91B7
:100540003C910E94ED1C0CF402C00C94AA0280E0C5
:10055000809324018091C1008F738093C1004091EA
:10056000240100913001041711F40C94DA02009177
:100570002401003011F00C94CA028FE718E00E94A9
:10058000F319E8E2FCE30E94DD1980E0809330017A
:100590000C94DA028FE718E00E94F319A8EAB6E09B
:1005A000E4E2F1E00E940F1D0E94D5198091240120
:1005B000809330014091250100913101041711F41D
:1005C0000C94F2028FE719E00E94F319A8EAB6E052
:1005D000E5E2F1E00E940F1D0E94D51980912501EE
:1005E000809331014091260100913201041711F4EA
:1005F0000C940A038FE71BE00E94F319A8EAB6E007
:10060000E6E2F1E00E940F1D0E94D51980912601BB
:10061000809332014091270100913301041711F4B6
:100620000C9422038FE71CE00E94F319A8EAB6E0BD
:10063000E7E2F1E00E940F1D0E94D5198091270189
:10064000809333014091280100913401041711F483
:100650000C943A038FE71DE00E94F319A8EAB6E074
:10066000E8E2F1E00E940F1D0E94D5198091280157
:10067000809334014091290100913501041711F450
:100680000C9452038FE71FE00E94F319A8EAB6E02A
:10069000E9E2F1E00E940F1D0E94D5198091290125
:1006A0008093350140912A0100913601041711F41D
:1006B0000C946A038FE710E10E94F319A8EAB6E0F0
:1006C000EAE2F1E00E940F1D0E94D51980912A01F3
:1006D000809336018091C100806C8093C1000895A1
:1006E000A4E1B1E04D915D916D917C91A8E1B1E003
:1006F0000D911D912D913C91041715072607370781
:1007000018F011F00C9486030C949203A0E1B1E070
:100710000D911D912D913C91A8E1B1E00D931D9398
:100720002D933C93A0E1B1E04D915D916D917C9151
:10073000A8E1B1E00D911D912D913C910417150791
:100740002607370710F00C94B103A4E1B1E00D9136
:100750001D912D913C91A8E1B1E00D931D932D9336
:100760003C93709109017F77709309010E94700496
:100770000E9490060E9424020895E998A8E1B1E041
:100780000D911D912D913C91ACE3B1E00D931D9322
:100790002D933C9300910C01023011F00C94D10385
:1007A0005D98439A00913701013011F00C94EA03EF
:1007B000A8E3B1E00D911D912D913C91A8E1B1E02C
:1007C0000D931D932D933C930E9470040E949006FC
:1007D0000E9424028FEB15E00E94F319EAE2FCE389
:1007E0000E94DD198FE711E00E94F319ECE2FCE3AF
:1007F0000E94DD191D990C940E047091090170641A
:10080000709309010E94A3111D9B0C940204709126
:1008100009017F7B709309010C9417040E94A311B6
:10082000A9E0B1E08C9186FB16F40C940E04709153
:1008300009017F7B7093090100913701013011F0AC
:100840000C943D04ACE3B1E00D911D912D913C91D0
:10085000A8E1B1E00D931D932D933C938FE711E038
:100860000E94F319E0E3FCE30E94DD197091090195
:100870007068709309010C9445048FE711E00E94A1
:10088000F319E4E3FCE30E94DD1900910C0102304E
:1008900011F00C944C045D9A73E07CBB43988FEB91
:1008A00015E00E94F319E4E2FCE30E94DD19E99AE5
:1008B00008958FE712E00E94F319E8E3FCE30E9439
:1008C000DD198FEB11E00E94F319E8E4FCE30E94CC
:1008D000DD19E1E0F0E00E94F6190E94E4190895A4
:1008E000A8E1B1E00D911D912D913C91A2E5B1E0FF
:1008F0000D931D932D933C9300914401013011F011
:100900000C949604A2E5B1E00D911D912D913C91BE
:10091000A0E4B1E04D915D916D917C910E94E31C4A
:10092000A2E5B1E00D931D932D933D9300914401F9
:10093000023011F00C94CF0400910B01033018F039
:1009400011F00C94A5040C94BB04A2E5B1E00D9148
:100950001D912D913C91A0E4B1E04D915D916D917F
:100960007C910E94E81CA2E5B1E00D931D932D93AC
:100970003D930C94CF04A2E5B1E00D911D912D9112
:100980003C91A0E4B1E04D915D916D917C910E940C
:10099000E31CA2E5B1E00D931D932D933D930E94BE
:1009A000E1040895A0E4B1E00D911D912D913C91D9
:1009B000A2E5B1E00D931D932D933C930E94E104B9
:1009C000089500E01AEC2AE93BE3A2E5B1E04D917D
:1009D0005D916D917C910E94781AAAE5B1E04D93EA
:1009E0005D936D937D93AAE5B1E00D911D912D91DD
:1009F0003C9142E050E060E070E00E94711AA6E590
:100A0000B1E00D931D932D933D9340E050E060E0E5
:100A100070E0A6E5B1E00D911D912D913C91041778
:100A200015072607370711F40C942805AAE5B1E04D
:100A30000D911D912D913C9141E050E060E070E0FE
:100A40000E94E81CAAE5B1E00D931D932D933D9300
:100A5000AAE5B1E00D911D912D913C9141E050E04E
:100A600060E070E00E94E01AA6E5B1E00D931D93EE
:100A70002D933D93A6E5B1E00D911D912D913C91F3
:100A8000A2E5B1E04D915D916D917C910E94E01ADB
:100A9000A6E5B1E00D931D932D933D9380E08093E7
:100AA0005F01A6E5B1E00D911D912D913C91A2E869
:100AB000B1E04D915D916D917C910E94781AA0E614
:100AC000B1E04D935D936D937D93E2E8F1E00E9478
:100AD0005E1B0E94821B0E94B41B2F933F934F9377
:100AE0005F93E0E6F1E00E945E1B0E94821B5F9133
:100AF0004F913F912F910E94251CEDE0F0E0A8E678
:100B0000B1E00E948B1DE8E6F1E00E94631BE6E580
:100B1000F1E00E945E1B0E94821B0E94571CEDE0C8
:100B2000F0E0A8E6B1E00E948B1DECE1FCE30E943E
:100B3000C11CE8E6F1E00E945E1B0E94251CEDE06E
:100B4000F0E0A8E6B1E00E948B1DE2E8F1E00E942F
:100B50005E1B0E94821B0E94B41BE8E6F1E00E942B
:100B60005E1B0E94CF1BEDE0F0E0A8E6B1E00E9422
:100B70008B1DE8E6F1E00E94201BA4E6B1E0EDE069
:100B8000FF270E948B1D00E810E020E030E0AAE57E
:100B9000B1E04D915D916D917C910E94E01AA0E7CA
:100BA000B1E00D931D932D933D93A0E7B1E00D911E
:100BB0001D912D913C9140E052E060E070E00E9478
:100BC000E81CA0E7B1E00D931D932D933D93E4E65F
:100BD000F1E00E945E1B0E94821B0E94B41BE0E2B7
:100BE000FCE30E94B81C0E94251CEDE0F0E0A8E6A2
:100BF000B1E00E948B1DECE1FCE30E94C11CE8E621
:100C0000F1E00E945E1B0E94CF1BEDE0F0E0A8E641
:100C1000B1E00E948B1DE8E6F1E00E94201BACE6EB
:100C2000B1E0EDE0FF270E948B1D00E810E020E01E
:100C300030E0A0E6B1E04D915D916D917C910E9414
:100C4000E01AA4E7B1E00D931D932D933D93A4E723
:100C5000B1E00D911D912D913C91ACE6B1E04D912B
:100C60005D916D917C910E94E31CA4E7B1E00D932E
:100C70001D932D933D93A4E7B1E00D911D912D910E
:100C80003C9140E052E060E070E00E94E81CA4E784
:100C9000B1E00D931D932D933D93ACE6B1E00D9122
:100CA0001D912D913C914FEF5FEF6FE070E00E943E
:100CB000E01AACE7B1E00D931D932D933D9300E84E
:100CC00010E020E030E0A4E6B1E04D915D916D913F
:100CD0007C910E94E01AA8E7B1E00D931D932D933B
:100CE0003D93A8E7B1E00D911D912D913C91ACE7AA
:100CF000B1E04D915D916D917C910E94E81CA8E757
:100D0000B1E00D931D932D933D930FEF1FEF2FE057
:100D100030E0ACE7B1E00D931D932D933C93089523
:100D200080914E01809380013FB6F894A0E8B1E035
:100D3000BA93AA93ADE7B1E0BA93AA930E94DB07F6
:100D40002496A0E8B1E08C918F5F8C933FB6F89425
:100D5000A0E8B1E0BA93AA93ACE7B1E0BA93AA9342
:100D60000E94DB072496A0E8B1E08C918F5F8C9302
:100D70003FB6F894A0E8B1E0BA93AA93A6E7B1E031
:100D8000BA93AA930E94DB072496A0E8B1E08C9165
:100D90008F5F8C933FB6F894A0E8B1E0BA93AA9322
:100DA000A5E7B1E0BA93AA930E94DB072496A0E8D6
:100DB000B1E08C918F5F8C933FB6F894A0E8B1E0DE
:100DC000BA93AA93A4E7B1E0BA93AA930E94DB076F
:100DD000249680917E0180935101A1E5B1E08C9130
:100DE00082958C930091510140917A01042BA1E5E9
:100DF000B1E00C93A0E8B1E08C918F5F8C933FB68B
:100E0000F894A0E8B1E0BA93AA93A1E5B1E0BA934F
:100E1000AA930E94DB072496A0E8B1E08C918F5F33
:100E20008C933FB6F894A0E8B1E0BA93AA93A9E7EF
:100E3000B1E0BA93AA930E94DB072496A0E8B1E040
:100E40008C918F5F8C933FB6F894A0E8B1E0BA9391
:100E5000AA93A8E7B1E0BA93AA930E94DB0724966D
:100E600080914F018093800180E0809381013FB6A3
:100E7000F894A0E8B1E0BA93AA93A1E8B1E0BA93DC
:100E8000AA930E94DB072496A0E8B1E08C918F5FC3
:100E90008C9381E0809381013FB6F894A0E8B1E0A3
:100EA000BA93AA93A1E8B1E0BA93AA930E94DB0790
:100EB000249680915F0180935101009151014091EE
:100EC0007201042BA1E5B1E00C93A0E8B1E08C9194
:100ED0008F5F8C933FB6F894A0E8B1E0BA93AA93E1
:100EE000A1E5B1E0BA93AA930E94DB072496A0E89B
:100EF000B1E08C918F5F8C933FB6F894A0E8B1E09D
:100F0000BA93AA93A1E7B1E0BA93AA930E94DB0730
:100F10002496A0E8B1E08C918F5F8C933FB6F89453
:100F2000A0E8B1E0BA93AA93A0E7B1E0BA93AA937C
:100F30000E94DB072496A0E8B1E08C918F5F8C9330
:100F400080E0809381013FB6F894A0E8B1E0BA93C5
:100F5000AA93A1E8B1E0BA93AA930E94DB07249672
:100F6000A0E8B1E08C918F5F8C9380E08093810149
:100F70003FB6F894A0E8B1E0BA93AA93A1E8B1E033
:100F8000BA93AA930E94DB072496A0E8B1E08C9163
:100F90008F5F8C9380E0809381013FB6F894A0E846
:100FA000B1E0BA93AA93A1E8B1E0BA93AA930E94E0
:100FB000DB07249608953FBE0E94D91D10EC0E94C5
:100FC000F11DEF93EBE0EA95F1F7EF91AA81BB8178
:100FD0001C910E94F11DEF93EBE0EA95F1F7EF9180
:100FE000A881B9811C910E94F11DEF93EBE0EA9575
:100FF000F1F7EF910E94E81D089587EB809380013F
:1010000080EC809381013FB6F894A0E8B1E0BA93F8
:10101000AA93A1E8B1E0BA93AA930E94DB072496B1
:1010200083E08093800100910A01023011F00C945A
:101030001E088CEF809381010C9421088EEF809321
:1010400081013FB6F894A0E8B1E0BA93AA93A1E871
:10105000B1E0BA93AA930E94DB0724968FE08093B5
:10106000800180E0809381013FB6F894A0E8B1E070
:10107000BA93AA93A1E8B1E0BA93AA930E94DB07BE
:10108000249680E1809380018FE4809381013FB6B4
:10109000F894A0E8B1E0BA93AA93A1E8B1E0BA93BA
:1010A000AA930E94DB07249600910A01023011F0F6
:1010B0000C946D0881E1809380018FE6809381011B
:1010C0003FB6F894A0E8B1E0BA93AA93A1E8B1E0E2
:1010D000BA93AA930E94DB0724968AE090E00E94CC
:1010E000D11A08958091C1008F738093C100ECE400
:1010F000F0E0A8E1B1E094E00E94B31D81E090E04F
:10110000AEE0B1E08D939C9381E090E0A5E4B1E086
:101110008D939C9385E080930D018CE480939E01D8
:101120008FE711E00E94F319E8E5FCE30E94DD1966
:101130008FE714E00E94F31900919E010C3411F026
:101140000C94A808ECE5FCE30E94DD190C94CE0891
:10115000003511F00C94B208E0E6FCE30E94DD19C2
:101160000C94CE08043511F00C94BC08E4E6FCE3C2
:101170000E94DD190C94CE08083511F00C94C608B5
:10118000E8E6FCE30E94DD190C94CE080C3511F062
:101190000C94CE08ECE6FCE30E94DD198FE718E022
:1011A0000E94F319A8EAB6E0E8E1F1E00E94031D0D
:1011B0000E94D519E0E7FCE30E94DD1900917C0054
:1011C000007F066000937C000E94091BA0E0B1E054
:1011D0008D939C93A0E0B1E00D911C91023350E0FF
:1011E000150710F00C943909E998AEE9B1E0EC91DB
:1011F000FF27A8E1B1E094E07BE70E94A21DAEE9E1
:10120000B1E08C918C5F8C93AEE9B1E0EC91FF275B
:10121000A8E1B1E094E00E94B31DE99A8FEB16E0DB
:101220000E94F319E4E7FCE30E94DD19E2E0F0E03C
:101230000E94F6198FEB16E00E94F319ECE7FCE32D
:101240000E94DD1900919E01003611F00C943909BD
:101250000E9475090E94870A8AE090E0AEE0B1E042
:101260008D939C938091C100806C8093C1000C94FD
:101270007409A0E0B1E00D911C910E3650E0150705
:1012800081E008F480E08F93A0E0B1E00D911C9123
:10129000093B50E0150781E010F009F080E09F91D4
:1012A0008923882311F40C947209ADE0B1E08C918C
:1012B0008F5F8C9300910D01063018F011F00C94A3
:1012C00063090C94660982E080930D010E94CF0FA0
:1012D0000E94350F8FEB15E00E94F319E4E8FCE360
:1012E0000E94DD190C9498080895E8E4F0E0A2E863
:1012F000B1E094E00E94B31D81E090E0AEE0B1E087
:101300008D939C9300E010E020E030E0A0E4B1E099
:101310000D931D932D933C930E94E41982E08093DA
:101320000A010E94FD078FEB11E00E94F319E2E928
:10133000FCE30E94DD19E8E9FCE30E94DD19E2EA22
:10134000FCE30E94DD19A2E8B1E00D911D912D9101
:101350003C91A8E1B1E00D931D932D933C938AE15C
:1013600080934E018AE280934F018CE2809350017A
:10137000A9E0B1E08C9187FB16F00C94FA098FE795
:1013800011E00E94F319E6EAFCE30E94DD19A8EAE5
:10139000B6E0E8E1F1E00E94031D0E94D519A8E142
:1013A000B1E00D911D912D913C91A2E8B1E00D931A
:1013B0001D932D933C9300E418E72DE731E0A8E15D
:1013C000B1E00D931D932D933C930E9470040E94F5
:1013D0009006A2E8B1E00D911D912D913C91A8E1FC
:1013E000B1E00D931D932D933C93709109017F778C
:1013F0007093090100917C00007F066000937C00DF
:101400000E94091BA0E0B1E08D939C93A0E0B1E0A5
:101410000D911C910E3650E0150781E008F480E034
:101420008F93A0E0B1E00D911C91093B50E01507AE
:1014300081E010F009F080E09F918923882311F466
:101440000C94470AADE0B1E08C918F5F8C930091D2
:101450000D01063018F011F00C94300A0C94330A88
:1014600082E080930D010E94CF0F8FEB11E00E946C
:10147000F319EEEAFCE30E94DD190E94350F8FEBB1
:1014800011E00E94F319E2EBFCE30E94DD19A0E0F9
:10149000B1E00D911C910C3751E0150781E008F483
:1014A00080E08F93A0E0B1E00D911C910C3C51E0E5
:1014B000150781E010F009F080E09F9189238823CF
:1014C00011F40C94840A84E190E00E94D11AE99806
:1014D000E8E4F0E0A2E8B1E094E07BE70E94A21D1E
:1014E000E99A8FEB11E00E94F319E4ECFCE30E940F
:1014F000DD19E2E0F0E00E94F6190E94E41981E0B3
:1015000080930D010C94860A0C94B80908958FE716
:1015100011E00E94F319E6EDFCE30E94DD198FEB68
:1015200011E00E94F319E2EEFCE30E94DD198FEB5B
:101530001AE00E94F319E8E5FCE30E94DD19E4E6F5
:10154000F0E0AAE0B1E091E00E94B31DE8E6F0E02F
:10155000A4E4B1E091E00E94B31D8FE71CE00E947B
:10156000F319A8EAB6E0EAE0F1E00E940F1D0E943C
:10157000D5198FEB19E00E94F319AAE9B1E00E9496
:10158000D71900914401013011F00C94CF0AAAE957
:10159000B1E0E8E2FCE30E94031B0C94D50AAAE93F
:1015A000B1E0ECEEFCE30E94031B00917C00007FA5
:1015B000066000937C000E94091BA0E0B1E08D93BF
:1015C0009C93A0E0B1E00D911C910C3751E0150700
:1015D00081E008F480E08F93A0E0B1E00D911C91D0
:1015E0000C3C51E0150781E010F009F080E09F917C
:1015F0008923882311F40C941E0BAAE0B1E08C918E
:101600008F5F8C9300910A01023018F011F00C9456
:101610000B0B0C940E0B81E080930A018FE71CE00A
:101620000E94F319A8EAB6E0EAE0F1E00E940F1D7B
:101630000E94D5190E94CF0F0E94CF0FA0E0B1E009
:101640000D911C910D3C51E0150781E008F480E0FC
:101650008F93A0E0B1E00D911C910A3352E0150781
:1016600081E010F009F080E09F918923882311F434
:101670000C944F0BA4E4B1E08C918F5F8C9300919C
:101680004401023018F011F00C94480B0C944B0BF1
:1016900081E0809344010E94CF0F0E94CF0FA0E011
:1016A000B1E00D911C91023D50E0150781E008F476
:1016B00080E08F93A0E0B1E00D911C91023251E0E7
:1016C000150781E010F009F080E09F9189238823BD
:1016D00011F40C948D0BE4E6F0E0AAE0B1E091E0A7
:1016E0007BE70E94A21DE8E6F0E0A4E4B1E091E00F
:1016F0007BE70E94A21D8FEB11E00E94F319EEEE32
:10170000FCE30E94DD190E94FD07E2E0F0E00E9488
:10171000F6190E94E4190C948F0B0C94AD0A0895ED
:1017200000919C010D3011F00C949A0B0E94CB0C8F
:101730000C94540CA8E8B1E0EEEFFCE30E94C01D4D
:1017400011F00C94AD0BE2E0FDE30E94C719E8E054
:10175000FDE30E94C7190C94540CE8E5FCE30E94D9
:10176000C01D11F00C94B80B0E946E0D0C94540C1B
:10177000ECE0FDE30E94C01D11F00C94C30B0E942D
:10178000320D0C94540CE0E1FDE30E94C01D11F0F9
:101790000C94CE0B0E94690D0C94540CE4E1FDE313
:1017A0000E94C01D11F00C94DB0BE8E1FDE30E94E8
:1017B000C7190C94540CEEE1FDE30E94C01D11F01A
:1017C0000C94EC0B81E080939E0170910901706292
:1017D000709309010C94540CE2E2FDE30E94C01DD9
:1017E00011F00C94FD0B82E080939E017091090131
:1017F0007062709309010C94540CE6E2FDE30E94C0
:10180000C01D11F00C940E0C84E080939E01709129
:1018100009017062709309010C94540CEAE2FDE333
:101820000E94C01D11F00C941F0C85E080939E0156
:10183000709109017062709309010C94540CEEE2EE
:10184000FDE30E94C01D11F00C94300C83E08093E6
:101850009E01709109017062709309010C94540CFF
:10186000E2E3FDE30E94C01D11F00C943E0C709168
:1018700009017064709309010C94540CE6E3FDE3D4
:101880000E94C01D11F00C944C0C709109017F7BDB
:10189000709309010C94540CA8E8B1E00E94C1199E
:1018A000E8E0FDE30E94C719A8E8B1E088278C931F
:1018B0000E94AC19082F013011F00C94610C0E94A9
:1018C000650C80E080939C0108950E94B219A8E8FD
:1018D000B1E08D9388278C93A8E8B1E08C9180309B
:1018E00011F00C94650C08950F921F922F923F9265
:1018F0004F925F927F92AF92BF920F931F932F935D
:101900003F934F935F936F937F938F939F93AF9387
:10191000BF93CF93DF93EF93FF938FB78F930E9483
:10192000B219A7E8B1E08C938BE3482F00918701AF
:10193000041711F40C94AD0CA7E8B1E08C91A8E861
:10194000B1E00E94A5198D9388278C93ACE9B1E092
:101950008C918F5F8C930C94AF0C0E94900B8F91A5
:101960008FBFFF91EF91DF91CF91BF91AF919F9189
:101970008F917F916F915F914F913F912F911F9127
:101980000F91BF90AF907F905F904F903F902F90BE
:101990001F900F901895A9E0B1E08C9186FB16F08E
:1019A0000C94D40C0C94310DA8E1B1E00D911D9173
:1019B0002D913C91A6E9B1E00D931D932D933C939D
:1019C000A8E8B1E00E94BA1DEA2FFB2F39970FEF6C
:1019D000A8E8B1E00E94911DA8E8B1E00E94591D5D
:1019E000A8E1B1E00D931D932D933D9340E853EC96
:1019F00069EC71E0A8E1B1E00D911D912D913C9150
:101A00000E94ED1C80E00CF481E08F9340E653EEE1
:101A100066E170E0A8E1B1E00D911D912D913C913E
:101A20000E94ED1C80E014F009F081E09F91892371
:101A3000882311F40C94250D70910901706870933E
:101A400009010E94CE0D0C94310DA6E9B1E00D9173
:101A50001D912D913C91A8E1B1E00D931D932D9323
:101A60003C9308954FE756E968E970E0A8E1B1E0DA
:101A70000D911D912D913C910E94ED1C1CF011F0D7
:101A80000C94440D0C944A0DAAE9B1E088278C937C
:101A90000C94500DAAE9B1E0EAE3FDE30E94031BB8
:101AA000ECE0FDE30E94C719AAE9B1E00E94C11968
:101AB000ECE3FDE30E94C719A8EAB6E0E8E1F1E033
:101AC0000E94031D0E94BF19E0E4FDE30E94C719B4
:101AD0000895E2E4FDE30E94C719089540E050E054
:101AE00060E070E0A8E1B1E00D911D912D913C9175
:101AF0000E94ED1C11F00C947E0D08954FE756E9FD
:101B000068E970E0A8E1B1E00D911D912D913C9143
:101B10000E94ED1C1CF011F00C94900D0C94960D8D
:101B2000AAE9B1E088278C930C949C0DAAE9B1E056
:101B3000EAE3FDE30E94031BE8E5FCE30E94C7190A
:101B4000AAE9B1E00E94C119ECE3FDE30E94C719C4
:101B5000A8EAB6E0E8E1F1E00E94031D0E94BF1987
:101B6000E2E5FDE30E94C719A9E0B1E08C9186FB94
:101B7000A8EAB6E00E94DF1C8D9388278C930E9410
:101B8000BF19A8EAB6E0E6E8F1E00E940F1D0E9446
:101B9000BF19E2E6FDE30E94C7190895A4E1B1E090
:101BA0004D915D916D917C91A8E1B1E00D911D91F8
:101BB0002D913C91041715072607370718F011F0EF
:101BC0000C94E40D0C94E60D0E94FC0DA0E1B1E034
:101BD0004D915D916D917C91A8E1B1E00D911D91C8
:101BE0002D913C91041715072607370710F00C9428
:101BF000FB0D0E94FC0D08950E940114E4E4F0E046
:101C0000ABE0B1E091E07BE70E94A21D7091090179
:101C10007068709309010895399A389A4098ADE434
:101C2000B1E0119698E08E91983018F4392F9927E9
:101C300002C038E09850881F419808F4419A00008B
:101C40000000409A000000004098000000003A9513
:101C500091F7992341F782E0E1E0F0E0A8E20E94E9
:101C6000D41C0895E894ADE4B1E08C9184F98C9390
:101C7000E894ADE4B1E08C9185F98C93E894ADE4FF
:101C8000B1E08C9186F98C93E894ADE4B1E08C914D
:101C900087F98C9300919E01013011F00C94640E31
:101CA00081E0809386016894ADE4B1E08C9184F981
:101CB0008C938CE480935101A0EAB1E0ECE5FCE365
:101CC0000E94031B0C94C20E023011F00C947C0E87
:101CD00082E0809386016894ADE4B1E08C9185F94F
:101CE0008C9380E580935101A0EAB1E0E0E6FCE34B
:101CF0000E94031B0C94C20E033011F00C94940E3E
:101D000087E0809386016894ADE4B1E08C9186F918
:101D10008C9384E580935101A0EAB1E0E4E6FCE312
:101D20000E94031B0C94C20E043011F00C94AC0EF4
:101D300083E0809386016894ADE4B1E08C9186F9EC
:101D40008C9388E580935101A0EAB1E0E8E6FCE3DA
:101D50000E94031B0C94C20E053011F00C94C20EAD
:101D600089E0809386016894ADE4B1E08C9187F9B5
:101D70008C938CE580935101A0EAB1E0ECE6FCE3A2
:101D80000E94031B00914401023011F00C94F50EE7
:101D900000910B01033018F011F00C94D10E0C944B
:101DA000F50E00919E01013011F00C94DC0E80E5DF
:101DB000809351010C94F50E023011F00C94E50E55
:101DC0008CE4809351010C94F50E033011F00C94C7
:101DD000EE0E88E5809351010C94F50E043011F05D
:101DE0000C94F50E84E5809351010E940C0EA1E540
:101DF000B1E0EC91FF27A0E4B1E094E00E94B31DB4
:101E000000910A01023011F00C94130F82E28093CA
:101E10004E0182E380934F0184E3809350010E943E
:101E2000D2040E9490068AE180934E018AE2809358
:101E30004F018CE2809350010E9470040E94900632
:101E40008FE714E00E94F319A0EAB1E00E94D719CD
:101E5000089500913701013011F00C94340F80E0A7
:101E6000809337010E940510089500910D01013003
:101E700011F00C94430F8AE090E0AEE0B1E08D9356
:101E80009C930C947D0F023011F00C944F0F82E361
:101E900090E0AEE0B1E08D939C930C947D0F033005
:101EA00011F00C945B0F84E690E0AEE0B1E08D930E
:101EB0009C930C947D0F043011F00C94670F88EE06
:101EC00093E0AEE0B1E08D939C930C947D0F0530D0
:101ED00011F00C94730F81E090E0AEE0B1E08D93CF
:101EE0009C930C947D0F063011F00C947D0F8AE0CA
:101EF00090E0AEE0B1E08D939C938FEB14E00E94F4
:101F0000F31900910D01013011F00C948D0FECE6E6
:101F1000FDE30E94DD190C949D0FEAE7FDE30E94AA
:101F2000DD19A8EAB6E0EEE0F1E00E94001D0E9493
:101F3000D519ECE7FCE30E94DD190E94CF0FE0E425
:101F4000F0E0ADE0B1E091E07BE70E94A21DECE3A0
:101F5000F0E0AEE0B1E092E07BE70E94A21D0E94BB
:101F6000CF0F8FEB15E00E94F319E4E2FCE30E942F
:101F7000DD1986E090E0A4E0B1E08D939C9381E1CF
:101F8000809306010E9451120E94A311AEE0B1E0BD
:101F90008D919C91A5E4B1E08D939C93089588EC7C
:101FA00090E00E94D11A089500910C01023011F0C6
:101FB0000C94E40F5D9A5E988FEB11E00E94F31988
:101FC000E2E8FDE30E94DD1900910C01013011F0FF
:101FD0000C94F40F5E9A5D988FEB11E00E94F31958
:101FE000E6E8FDE30E94DD1900910C01003011F0DC
:101FF0000C9404105E985D988FEB11E00E94F31929
:10200000EEEAFCE30E94DD190895009137010130EA
:1020100011F00C941F108FE711E00E94F319E0E318
:10202000FCE30E94DD19A8E1B1E00D911D912D9115
:102030003C91A8E3B1E00D931D932D933C93009147
:102040003701003011F00C943F108FE711E00E942F
:10205000F319E4E3FCE30E94DD19A8E3B1E00D917C
:102060001D912D913C91A8E1B1E00D931D932D930D
:102070003C930E9470040E9490060E9424020895DE
:1020800085E090E00E94D11A00917C00007F0660FC
:1020900000937C000E94091BA0E0B1E08D939C930B
:1020A000A0E0B1E00D911C91083552E0150718F041
:1020B00011F00C945D100C945F100C94A211A0E030
:1020C000B1E00D911C910D3C51E0150781E008F441
:1020D00080E08F93A0E0B1E00D911C910A3352E0B3
:1020E000150781E010F009F080E09F918923882393
:1020F00011F40C94E910A8E1B1E04D915D916D915E
:102100007C91A8E3B1E00D911D912D913C91A8E146
:10211000B1E00D931D932D933C93A8E3B1E04D9353
:102120005D936D937D930E9470040E9490060E94BF
:1021300024028FE711E00E94F319EAE8FDE30E9410
:10214000DD19A9E0B1E08C9187FB16F00C94AA1080
:102150000E94700300917C00007F066000937C0069
:102160000E94091BA0E0B1E08D939C93A0E0B1E038
:102170000D911C91083552E0150718F011F00C94E0
:10218000C3100C94A110A8E1B1E04D915D916D9147
:102190007C91A8E3B1E00D911D912D913C91A8E1B6
:1021A000B1E00D931D932D933C93A8E3B1E04D93C3
:1021B0005D936D937D930E9470040E9490060E942F
:1021C00024028FE711E00E94F319E0E3FCE30E9490
:1021D000DD19A0E0B1E00D911C910C3751E015071D
:1021E00081E008F480E08F93A0E0B1E00D911C91B4
:1021F0000C3C51E0150781E010F009F080E09F9160
:102200008923882311F40C943711A8E1B1E04D9192
:102210005D916D917C91A8E3B1E00D911D912D919F
:102220003C91A8E1B1E00D931D932D933C93A8E35D
:10223000B1E04D935D936D937D930E9470040E9475
:1022400090060E9424028FE711E00E94F319EEE845
:10225000FDE30E94DD190E94CF0F0E94CF0F8FE790
:1022600011E00E94F319E0E3FCE30E94DD19A0E015
:10227000B1E00D911C910C3251E0150781E008F49A
:1022800080E08F93A0E0B1E00D911C910B3751E0FD
:10229000150781E010F009F080E09F9189238823E1
:1022A00011F40C947311A8E1B1E00D911D912D91E1
:1022B0003C91A8E3B1E00D931D932D933C938FE7E0
:1022C00011E00E94F319E2E9FDE30E94DD190E948A
:1022D000CF0F0E94CF0F8FE711E00E94F319E0E3C8
:1022E000FCE30E94DD19A0E0B1E00D911C91023DDC
:1022F00050E0150781E008F480E08F93A0E0B1E0A2
:102300000D911C91023251E0150781E010F009F0A7
:1023100080E09F918923882311F40C94A211A7E3F4
:10232000B1E08C918F5F8C9300913701013018F0F0
:1023300011F00C949D110C94A01180E08093370152
:102340000E9405100895A2E0B1E00E946119A2E088
:10235000B1E00D911C91043F51E0150710F00C9471
:10236000B3110C94F21100917C00007F0760009380
:102370007C000E94091BA2E0B1E08D939C93A2E037
:10238000B1E00D911C9144E150E00E948B19A4E052
:10239000B1E04D935C93A4E0B1E00D911C910B3042
:1023A00050E0150718F011F00C94D8110C94DE11C0
:1023B0008BE090E0A4E0B1E08D939C93A4E0B1E0C9
:1023C0000D911C9146E050E0040F151FA4E0B1E010
:1023D0000D931C930E94F31180E090E0A2E0B1E025
:1023E0008D939C930895A6E0B1E04D915527A4E00C
:1023F000B1E00D911C910417150711F00C94021215
:102400000C9422128091C1008F738093C100A6E0CA
:10241000B1E04D915527A4E0B1E00D911C91041756
:10242000150718F011F00C9417120C941B120E944F
:1024300023120C941D120E9451128091C100806CD5
:102440008093C100089582E0A7E0B1E08D938827D2
:102450008C93009106010E3010F40C94351283E039
:10246000A7E0B1E08D9388278C938FEB1091060144
:102470000E94F319A7E0B1E00E94D719A6E0B1E0ED
:102480008C918F5F8C93A4E0B1E04D915C91A6E0BC
:10249000B1E00D9111270417150711F00C942312C8
:1024A000089581E0A7E0B1E08D9388278C93A6E0A2
:1024B000B1E08C9181508C938FEB109106010E94BA
:1024C000F319A7E0B1E00E94D719A4E0B1E04D9163
:1024D0005C91A6E0B1E00D9111270417150711F0EA
:1024E0000C9457120895A8E4B1E0EC91FF27A8E1FD
:1024F000B1E094E07BE70E94A21D0895A7E4B1E05B
:10250000EC91FF27A8E1B1E094E00E94B31D08958B
:1025100000910B0144E0049FA8E4B1E00C9200910B
:102520000B0144E2040FAAE4B1E00C9300910B010B
:1025300042E3040FACE4B1E00C93A8E4B1E0EC9109
:10254000FF27A8E1B1E094E07BE70E94A21DAAE486
:10255000B1E0EC91FF27ACE0B1E091E07BE70E94B5
:10256000A21DACE4B1E0EC91FF27AEE9B1E091E04F
:102570007BE70E94A21D0895A9E4B1E0EC91FF273A
:10258000ACE0B1E091E00E94B31D089585E090E0D9
:102590000E94D11AA0E0B1E00D911C91083552E0E3
:1025A000150710F40C94D6120C940014E9980091BD
:1025B0007C00007F066000937C000E94091BA0E065
:1025C000B1E08D939C93A0E0B1E00D911C910D3C86
:1025D00051E0150781E008F480E08F93A0E0B1E0BE
:1025E0000D911C910A3352E0150781E010F009F0BB
:1025F00080E09F918923882311F40C941C130E947E
:10260000881280910B01815080930B0100910B0186
:10261000083018F011F00C940F130C94121388E08A
:1026200080930B01E4E4F0E0ABE0B1E091E07BE704
:102630000E94A21D0E940017A0E0B1E00D911C9124
:102640000C3751E0150781E008F480E08F93A0E09B
:10265000B1E00D911C910C3C51E0150781E010F0A8
:1026600009F080E09F918923882311F40C9455137D
:102670000E948812ABE0B1E08C918F5F8C93009147
:102680000B01083018F011F00C9448130C944B1304
:1026900080E080930B01E4E4F0E0ABE0B1E091E096
:1026A0007BE70E94A21D0E940017A0E0B1E00D91FF
:1026B0001C910C3251E0150781E008F480E08F9303
:1026C000A0E0B1E00D911C910B3751E0150781E0BE
:1026D00010F009F080E09F918923882311F40C9475
:1026E0008413ACE0B1E08C918F5F8C9300910C016E
:1026F000023018F011F00C947F130C94821380E0D8
:1027000080930C010E94D40FA0E0B1E00D911C91C8
:10271000023D50E0150781E008F480E08F93A0E0CF
:10272000B1E00D911C91023251E0150781E010F0EB
:1027300009F080E09F918923882311F40C94B3134E
:10274000A7E3B1E08C918F5F8C930091370101304A
:1027500018F011F00C94AE130C94B11380E0809338
:1027600037010E940510A0E0B1E00D911C910E36DA
:1027700050E0150781E008F480E08F93A0E0B1E01D
:102780000D911C91093B50E0150781E010F009F014
:1027900080E09F918923882311F40C94E213ADE02B
:1027A000B1E08C918F5F8C9300910D01043018F093
:1027B00011F00C94DD130C94E01381E080930D0173
:1027C0000E94350FA0E0B1E00D911C91023350E062
:1027D000150710F00C94FF13AEE9B1E08C918F5FF8
:1027E0008C9300919E01053018F011F00C94FA13AF
:1027F0000C94FD1381E080939E010E94320EE99AB1
:102800000895E894ADE4B1E08C9180F98C93E8945C
:10281000ADE4B1E08C9181F98C93E894ADE4B1E042
:102820008C9182F98C93E894ADE4B1E08C9183F9BA
:102830008C9340E653EE66E170E0A8E1B1E00D91C3
:102840001D912D913C910E94ED1C80E014F009F047
:1028500081E08F9340EA55E266E270E0A8E1B1E0E2
:102860000D911D912D913C910E94ED1C80E00CF486
:1028700081E09F918923882311F40C945F1480E0F8
:1028800080930B0100E613EE26E130E0A0E1B1E019
:102890000D931D932D933C9380E08093470100EAB4
:1028A00015E226E230E0A4E1B1E00D931D932D93F3
:1028B0003C9384E28093490182E380934B0140EA98
:1028C00055E266E270E0A8E1B1E00D911D912D9115
:1028D0003C910E94ED1C80E014F009F081E08F93A0
:1028E00040E25AEA64E470E0A8E1B1E00D911D9184
:1028F0002D913C910E94ED1C80E00CF481E09F91B1
:102900008923882311F40C94AB146894ADE4B1E0EE
:102910008C9180F98C9381E080930B0100EA15E2A1
:1029200026E230E0A0E1B1E00D931D932D933C939E
:1029300084E08093470100E21AEA24E430E0A4E155
:10294000B1E00D931D932D933C9385E28093490153
:1029500083E380934B0140E25AEA64E470E0A8E12B
:10296000B1E00D911D912D913C910E94ED1C80E0F4
:1029700014F009F081E08F9340E052E16AE770E0E3
:10298000A8E1B1E00D911D912D913C910E94ED1CAB
:1029900080E00CF481E09F918923882311F40C944A
:1029A000F7146894ADE4B1E08C9181F98C9382E0E6
:1029B00080930B0100E21AEA24E430E0A0E1B1E0E8
:1029C0000D931D932D933C9388E08093470100E085
:1029D00012E12AE730E0A4E1B1E00D931D932D93BD
:1029E0003C9386E28093490184E380934B0140E06D
:1029F00052E16AE770E0A8E1B1E00D911D912D91DF
:102A00003C910E94ED1C80E014F009F081E08F936E
:102A100040E05BE167EB70E0A8E1B1E00D911D9152
:102A20002D913C910E94ED1C80E00CF481E09F917F
:102A30008923882311F40C9449156894ADE4B1E01E
:102A40008C9180F98C936894ADE4B1E08C9181F91C
:102A50008C9383E080930B0100E012E12AE730E0E1
:102A6000A0E1B1E00D931D932D933C938CE08093F6
:102A7000470100E01BE127EB30E0A4E1B1E00D935A
:102A80001D932D933C9387E28093490185E38093C6
:102A90004B0140E05BE167EB70E0A8E1B1E00D9134
:102AA0001D912D913C910E94ED1C80E014F009F0E5
:102AB00081E08F9340E054E264EF70E0A8E1B1E080
:102AC0000D911D912D913C910E94ED1C80E00CF424
:102AD00081E09F918923882311F40C9495156894C3
:102AE000ADE4B1E08C9182F98C9384E080930B018A
:102AF00000E01BE127EB30E0A0E1B1E00D931D9376
:102B00002D933C9380E18093470100E014E224EF91
:102B100030E0A4E1B1E00D931D932D933C9388E246
:102B20008093490186E380934B0140E054E264EFD7
:102B300070E0A8E1B1E00D911D912D913C910E94B2
:102B4000ED1C80E014F009F081E08F9340E05DE23D
:102B500061E371E0A8E1B1E00D911D912D913C91EF
:102B60000E94ED1C80E00CF481E09F918923882372
:102B700011F40C94E7156894ADE4B1E08C9180F900
:102B80008C936894ADE4B1E08C9182F98C9385E0EC
:102B900080930B0100E014E224EF30E0A0E1B1E00B
:102BA0000D931D932D933C9384E18093470100E0A6
:102BB0001DE221E331E0A4E1B1E00D931D932D93DB
:102BC0003C9389E28093490187E380934B0140E085
:102BD0005DE261E371E0A8E1B1E00D911D912D91FD
:102BE0003C910E94ED1C80E014F009F081E08F938D
:102BF00040E056E36EE671E0A8E1B1E00D911D9171
:102C00002D913C910E94ED1C80E00CF481E09F919D
:102C10008923882311F40C9439166894ADE4B1E04B
:102C20008C9181F98C936894ADE4B1E08C9182F938
:102C30008C9386E080930B0100E01DE221E331E0FC
:102C4000A0E1B1E00D931D932D933C9388E1809317
:102C5000470100E016E32EE631E0A4E1B1E00D9378
:102C60001D932D933C938AE28093490188E38093DE
:102C70004B0140E056E36EE671E0A8E1B1E00D9152
:102C80001D912D913C910E94ED1C80E014F009F003
:102C900081E08F9340E85AEB6CE871E0A8E1B1E085
:102CA0000D911D912D913C910E94ED1C80E00CF442
:102CB00081E09F918923882311F40C9491166894E4
:102CC000ADE4B1E08C9180F98C936894ADE4B1E00F
:102CD0008C9181F98C936894ADE4B1E08C9182F988
:102CE0008C9387E080930B0100E016E32EE631E041
:102CF000A0E1B1E00D931D932D933C938CE1809363
:102D0000470100E81AEB2CE831E0A4E1B1E00D93B3
:102D10001D932D933C938BE28093490189E380932B
:102D20004B0140E85AEB6CE871E0A8E1B1E00D918D
:102D30001D912D913C910E94ED1C80E014F009F052
:102D400081E08F9340E853EC69EC71E0A8E1B1E0D9
:102D50000D911D912D913C910E94ED1C80E00CF491
:102D600081E09F918923882311F40C94DD166894E7
:102D7000ADE4B1E08C9183F98C9388E080930B01F2
:102D800000E81AEB2CE831E0A0E1B1E00D931D93CF
:102D90002D933C9380E28093470100E813EC29ECEB
:102DA00031E0A4E1B1E00D931D932D933C938CE2AF
:102DB000809349018AE380934B018FE711E00E94E1
:102DC000F319E4E3FCE30E94DD1980E0809337010E
:102DD0000E94290F0E94BC120E94D40F0E940C0E68
:102DE0008AE180934E018AE280934F018CE28093C6
:102DF00050010E9470040E9490060E9424020895CF
:102E000000910B0144E0049FA7E4B1E00C920E9402
:102E10007E120E940114ABE4B1E0EC91FF27AEE911
:102E2000B1E091E00E94B31D0E94320E08950F920E
:102E30001F922F923F924F925F927F92AF92BF92DA
:102E40000F931F932F933F934F935F936F937F93B2
:102E50008F939F93AF93BF93CF93DF93EF93FF93A2
:102E60008FB78F9380918100887F80938100A5E444
:102E7000B1E08D919C91AEE0B1E08D939C93009177
:102E80000D01013011F00C949517A4E8B0E00D91FC
:102E90001C91003A5FE0150710F00C94551784E17F
:102EA00090E0AEE0B1E08D939C93A4E8B0E00D918A
:102EB0001C9100385CE0150710F00C9465178EE14A
:102EC00090E0AEE0B1E08D939C93A4E8B0E00D916A
:102ED0001C910C3F58E0150710F00C94751782E315
:102EE00090E0AEE0B1E08D939C93A4E8B0E00D914A
:102EF0001C910C3D55E0150710F00C94851784E6E5
:102F000090E0AEE0B1E08D939C93A4E8B0E00D9129
:102F10001C91003253E0150710F00C94951784EFC4
:102F200091E0AEE0B1E08D939C934A9B0C94AE1778
:102F3000A8E1B1E00D911D912D913C91AEE0B1E081
:102F40004D915C91662777270E94E31CA8E1B1E0D0
:102F50000D931D932D933D930C94C217A8E1B1E0FE
:102F60000D911D912D913C91AEE0B1E04D915C91A0
:102F7000662777270E94E81CA8E1B1E00D931D9316
:102F80002D933D937091090170687093090180E061
:102F900090E0909385008093840083E0809381008B
:102FA00072E07CBB8F918FBFFF91EF91DF91CF914A
:102FB000BF91AF919F918F917F916F915F914F9151
:102FC0003F912F911F910F91BF90AF907F905F9095
:102FD0004F903F902F901F900F9018950F921F9237
:102FE0002F923F924F925F927F92AF92BF920F9338
:102FF0001F932F933F934F935F936F937F938F9381
:103000009F93AF93BF93CF93DF93EF93FF938FB7CC
:103010008F9380918100887F809381008EEF9FEF56
:1030200090938500809384008F918FBFFF91EF91E3
:10303000DF91CF91BF91AF919F918F917F916F91D0
:103040005F914F913F912F911F910F91BF90AF9042
:103050007F905F904F903F902F901F900F9018950A
:10306000E99800EE1DEF2CE130E0A8E1B1E00D930E
:103070001D932D933C9380E0809348010E9473122E
:1030800000ED11EB27E330E0A8E1B1E00D931D93D3
:103090002D933C9384E0809348010E94731200E3D7
:1030A00011EE2BE630E0A8E1B1E00D931D932D93D6
:1030B0003C9388E0809348010E94731208EC1EE75D
:1030C0002AE930E0A8E1B1E00D931D932D933C93E4
:1030D0008CE0809348010E94731200E719EE27EDFF
:1030E00030E0A8E1B1E00D931D932D933C9380E176
:1030F000809348010E94731200E21FE224E131E054
:10310000A8E1B1E00D931D932D933C9384E180934E
:1031100048010E94731200E319EB22E431E0A8E1B8
:10312000B1E00D931D932D933C9388E1809348016A
:103130000E94731200EE1DE82CE731E0A8E1B1E037
:103140000D931D932D933C938CE1809348010E9435
:10315000731200E210EE22EB31E0A8E1B1E00D9332
:103160001D932D933C9380E2809348010E9473123B
:103170000AE010E020E030E0A8E1B1E00D931D93FB
:103180002D933C938CE3809348010E94731201E0DD
:1031900010E020E030E0A8E1B1E00D931D932D9305
:1031A0003C9380E4809348010E94731203E010E096
:1031B00020E030E0A8E1B1E00D931D932D933C9306
:1031C00084E4809348010E94731200EC1CEF2BE909
:1031D00031E0A8E1B1E00D931D932D933C9388E479
:1031E000809348010E94731208E11DE327E830E054
:1031F000A8E1B1E00D931D932D933C938CE4809353
:1032000048010E94731200ED18E427E830E0A8E1BD
:10321000B1E00D931D932D933C9380E5809348017D
:103220000E94731200E71FE327E830E0A8E1B1E055
:103230000D931D932D933C9384E5809348010E9448
:10324000731208E716E427E830E0A8E1B1E00D9337
:103250001D932D933C9388E5809348010E9473123F
:1032600004EF12E427E830E0A8E1B1E00D931D93EC
:103270002D933C938CE5809348010E94731201E0EA
:1032800010E020E030E0A8E1B1E00D931D932D9314
:103290003C9384E6809348010E94731201E010E0A1
:1032A00020E030E0A8E1B1E00D931D932D933C9315
:1032B00088E6809348010E947312E99A0895F89471
:1032C000FFCFED91FC91EF5FFF4FFC93EE930895DC
:1032D00000FC10D0089503D01ED001F8F9CF0024CF
:1032E000E89457FF02C009D0689400F80BD010F89A
:1032F0000124089502D009D00895509540954F5F5C
:103300005F4F0895E89417FF0895009510950F5F9B
:103310001F4F68940895352F242FE894452B11F4FE
:1033200068940895512F402F0027112780E1440F02
:10333000551F001F111F021B130B416018F4020FD1
:10334000131F4E7F8A9599F708958F938D91882347
:10335000E9F711978F91089581E00090C00007FE72
:103360008827089588270090C00007FE089500C0B0
:103370008091C00087FFFCCF8091C6000895A8EA25
:10338000B6E08D91882311F009D0FBCF08950E94FB
:10339000B41C802D11F002D0FACF08950090C00027
:1033A00005FEFCCF8093C6000895A8EAB6E08D9193
:1033B000882311F06CD0FBCF08950E94B41C802D9F
:1033C00011F065D0FACF089581E067D015D080E87C
:1033D00064C08FE7213039F08FEB223021F08FE885
:1033E000233009F08FEC810F0C944D1A88EE93E096
:1033F000D8D03197D9F7089583E09927D2C08AEFC2
:1034000090E00E94D11A249A239A229A219A209A13
:10341000579A5F9885E090E00E94D11A28982C98DE
:103420002B982A9A299A289AEF93FF93ECE8F1E0D7
:103430000E94C51AFF91EF912898B0D0289AEF9377
:10344000FF93ECE8F1E00E94C51AFF91EF912898F4
:10345000A5D0289AEF93FF93ECE8F1E00E94C51AFB
:10346000FF91EF9128989AD02998289AEF93FF938B
:10347000ECE8F1E00E94C51AFF91EF9128988ED0F8
:1034800088E20BD08EE009D086E007D008955F9ADD
:10349000829505D004D082D008955F98F9CF8595A4
:1034A00010F4299A01C02998859510F42A9A01C030
:1034B0002A98859510F42B9A01C02B98859510F4C5
:1034C0002C9A01C02C98289AEF93FF93ECE8F1E036
:1034D0000E94C51AFF91EF912898089500FC05D02D
:1034E000089530D005D001F8F9CF37D03FD00895F6
:1034F000842F952FA62FB72FE894452B462B472BCB
:1035000011F468940895402F512F622F732F0027D4
:10351000112722273327F0E2440F551F661F771F1C
:10352000001F111F221F331F081B190B2A0B3B0BF7
:10353000416028F4080F191F2A1F3B1F4E7FFA9580
:1035400059F708950024E89477FF02C006D06894E4
:1035500000F809D010F80124089512D04F5F5F4F92
:103560006F4F7F4F0895E89437FF089500951095A9
:10357000209530950F5F1F4F2F4F3F4F6894089550
:10358000409550956095709508953197F1F708959D
:10359000689462F80895E89462F8089581E090E0F4
:1035A00000C0EF93FF93EE27E82BE92B31F0E0EA20
:1035B000FFE03197F1F70197D1F7FF91EF9108956F
:1035C0000F921F922F92C801D901489F80014A9FF4
:1035D00090014B9F202C499F100D211D321D5A9F99
:1035E000202C589F100D211D321D599F200D311D7B
:1035F000689F200D311D699F300D789F300D2F90F1
:103600001F900F9008950E94B41C0D920020D9F7CE
:10361000089570917A00706470937A0000907A0037
:1036200006FCFCCF70917A00706470937A00009071
:103630007A0006FCFCCF8091780090917900089583
:103640003DD0992711278F2D880F80E8F82A802FE9
:10365000881F08F41FEF41F08F57082F07FD04C0A3
:10366000003240F08FEF01C08827982FD82EE82E27
:10367000F82E09C08FE1801B082FF694E794D794A9
:1036800097950A95D1F7112351F09095D094E09435
:10369000F09481E0980F8827D81EE81EF81E0F2DA1
:1036A000FE2CED2CD92E0895D094E094F09491E066
:1036B000D90E9927E91EF91E10950895D190E19031
:1036C000F190019108952191319141915191089585
:1036D000102F90E8FF0C001F0927990FF79410781E
:1036E000652F90E8440F551F5927990F479560782B
:1036F00000380895FF0C90E89027110F9795F794E4
:10370000092F0895102FBD2CDE2CEF2CF02E112345
:103710004AF4B094D094E094F0949FEFB91AD90A87
:10372000E90AF90A0EE1FF2039F4FE2CED2CDB2C1E
:10373000BB240850C2F767C032F00A95BB0CDD1CF1
:10374000EE1CFF1CF9CF0E94A61BD4CFB7FE089534
:1037500090E8B91611F4D0FE08959FEFD91AE90A3E
:10376000F90A09F403950895502F2D2D3E2D4F2D64
:10377000612F08952DEC3CEC4CEC5DE366270FC007
:103780009DDFF2DFDD24EE2490E8F92E0FE307C081
:103790009ADF05C02227332740E251E466275523EC
:1037A00051F1002381F194DF71F116270058505830
:1037B0000894050B18F407FD03C025C007FD23C0BE
:1037C000469537952795F694E794D79422D0FF2015
:1037D0002AF0DD0CEE1CFF1C015073F09D2D969518
:1037E00048F0DD203AF4EE202AF491E0D90E992732
:1037F000E91EF91E7FCF07C09FE7092FF92A9FEF27
:10380000D92EE92E0895DD24EE24FF240027112768
:1038100008959F929924AA24BB2488E1D216E30636
:10382000F40628F0D21AE30AF40A089401C0889436
:10383000991CAA1CBB1CDD0CEE1CFF1C8A9571F7A1
:10384000D92CEA2CFB2C9F90089542DFE1F25038EE
:10385000D1F21627005850580894051F12F418F496
:10386000CBCF08F0D0CF0BD0FF202AF0BB0CDD1C53
:10387000EE1CFF1C3FCF0F5F0BF4BECF3BCF9F92E0
:103880009924AA24BB24992788E1990CAA1CBB1C63
:10389000DD1CEE1CFF1C30F4920EA31EB41ED91EBC
:1038A000E91EF91E8A9589F79F9008950CDF10DFB5
:1038B000503829F090E869270CC00AF045D01ACF9B
:1038C0005FE322273327442701C0FDDE01DF5038A4
:1038D000B1F3003899F3902F951B8BF312F434D089
:1038E000FACF983118F0222733274427983028F050
:1038F000232F342F44279850F9CF992329F0469548
:10390000379527959A95D9F7912F962742F014D09D
:10391000B0F6F794E794D7940F5F8BF66DCF10D085
:1039200051F008F4C1DEFF2052F2DD0CEE1CFF1C4A
:103930000150CBF761CF67CFD20EE31EF41E08957E
:10394000D21AE30AF40A0895DF92EF92FF920F93DE
:103950001F93D22EE32EF42E052F162F6F915F9119
:103960004F913F912F910895C89531960020089569
:10397000FBDFD02CF9DFE02CF7DFF02CF5DF002D9A
:103980000895F2DF202DF0DF302DEEDF402DECDF4B
:10399000502D089591E0882321F08894991F8A95ED
:1039A000E9F7892F90950895BB270E94CA1C9C9126
:1039B00098279C933197F1F798279C93089580E37B
:1039C0000EF483950895040F151F261F371F0895C1
:1039D000041B150B260B370B089504171507260734
:1039E00037070895000F111F221F331F08950095F8
:1039F0001095209530950F5F1F4F2F4F3F4F089523
:103A0000019110810EC001911191219130810BC063
:103A10000191108117FF05C03FEF2FEF04C0008117
:103A200011272227332737FF03C0E1DF8DE28D9373
:103A3000CF93DF93CF92DF92EF92AA24BB24CC24C2
:103A4000DD24EE2440E2CAE0DD2755E093E38881DF
:103A5000890F87FD9F7083FD907F891B89935A95FD
:103A6000A9F7C0DFAA1CBB1CCC1CDD1CEE1C4A95B0
:103A700051F7E894EFE0FF2782910ED0EB30E0F7AA
:103A80001EF068948A2D0CD088278D93EF90DF90DC
:103A9000CF90DF91CF910895982F829501D0892FF3
:103AA0008F70805D26F0803309F4089568948D93BB
:103AB000089500271127222733271DD08A3328F4A1
:103AC000803318F005D015D0F9CF0EF490CF0895BB
:103AD00080538F93402F512F622F732F83DF82DF0C
:103AE00072DF80DF8F919927080F191F291F391F57
:103AF00008958D910895E894FCDF8032E9F38B32CC
:103B0000D9F38930C9F38D3211F46894F2CF089556
:103B100088278D93089594E081918D939A95E1F78C
:103B2000089581918D930A9519F08823D1F708950E
:103B3000EFCFF999FECFE1BDF2BD3196089591E046
:103B400001C092E07B3751F47FB7F894F2DF8D919A
:103B500080BDFA9AF99A9A95C9F77FBF7727089599
:103B600091E001C092E0E5DFF89A80B58D939A95D7
:103B7000D1F708958FEF83959D919923E1F70895EB
:103B8000689401C0E894AF93BF938D9116F0919122
:103B900003C00E94B41C902D891718F011F48823DB
:103BA000A1F7BF91AF9108953C983D9844984598EE
:103BB00008953D9A3C9803D03D9801D03C9AEF93EC
:103BC000FF93E4E0F0E00E94C51AFF91EF910895A1
:103BD0003D9A3C9AF4DF3D98359BFECFF0DF3C9850
:103BE000EECF0894111F01C0110F69F03D9A18F42F
:103BF00000003C9802C03C9A00C0E1DF3D98359B34
:103C0000FECFDDDFF1CF3D9A3C98D9DF3D98359B63
:103C1000FECFE8943499689462F8D1CFF0FF7F49E1
:103C20000000004353002E00200050005458200094
:103C3000526974005258200048462053796E745FD0
:103C4000555233494C460000207665722E56335F3C
:103C50005369353335314100494600004C53420029
:103C60005553420043574C004357550050534B00A7
:103C7000487A200073617665204946002020202084
:103C80002020200020202020202020202020202054
:103C900000004F555420000032353030302E303087
:103CA0003000487A00005369353335315F002020F9
:103CB00020004F55542032353030302E30303048CF
:103CC0007A20000020202073617665205369353307
:103CD00035312020000053693533353120434C4BBA
:103CE0003D004F55543D56464F2B00002D0073614B
:103CF000766520434C4B20536935333531004149BB
:103D000030004149313B00003F3B0000464100008C
:103D10004642000050540000505430363B004D44A1
:103D200031004D4432004D4433004D4439004D4480
:103D30003700545800005258000030003030300036
:103D40003B00464230303030373037303030303B57
:103D5000000020202020202B303030303030203028
:103D60003000303030303030203B000020202053F5
:103D700074657020696E7420200020205374657073
:103D80000000505245004154540058464300522F01
:063D90005400543D5200F6
:00000001FF
